:020000040800F2
:100000006007002059060008290200082B0200089A
:100010002D0200082F020008310200080000000035
:100020000000000000000000000000003302000893
:1000300035020008000000003702000839020008FD
:1000400073060008730600087306000873060008AC
:10005000730600087306000873060008730600089C
:10006000730600087306000873060008730600088C
:10007000730600087306000873060008730600087C
:10008000730600087306000873060008730600086C
:10009000730600087306000873060008730600085C
:1000A000730600087306000873060008730600084C
:1000B000730600087306000873060008730600083C
:1000C000730600087306000873060008730600082C
:1000D00073060008ED0500087306000873060008A3
:1000E000730600087306000873060008730600080C
:1000F00073060008730600087306000873060008FC
:1001000073060008730600087306000873060008EB
:1001100073060008730600087306000873060008DB
:1001200073060008730600087306000873060008CB
:1001300000F002F800F047F80AA090E8000C8244B2
:100140008344AAF10107DA4501D100F03CF8AFF28F
:10015000090EBAE80F0013F0010F18BFFB1A43F0A5
:10016000010318476C2600008C260000103A24BFBB
:1001700078C878C1FAD8520724BF30C830C144BF0C
:1001800004680C607047000000230024002500264E
:10019000103A28BF78C1FBD8520728BF30C148BFEA
:1001A0000B607047662902F0C782002070471FB5B8
:1001B00001F08EFB04000020002102F0EFF8E06067
:1001C0001FBD10B510BD01F09FFC1146FFF7EFFFFA
:1001D00000F008F801F0BDFC03B4FFF7F2FF03BC28
:1001E00000F0AEF900F060F900F0E2F800F046F936
:1001F0000B4D4FF066340A21012000F026F902F081
:1002000014F922462B4602F023F902F0DDF802F041
:100210001DFA02460B4603A001F0F4F8EBE70000DC
:1002200066664A3F256600007047FEE7FEE7FEE788
:10023000FEE7704770477047704700000CB500221A
:10024000019200925248016841F4803101604FF4FC
:10025000A063016801F4003100910199491C0191EA
:10026000009911B901999942F3D10168890302D526
:100270000121009100E000920099012930D1454907
:100280000A6842F010020A600A6822F003020A605B
:100290000A6842F002020A604168416041684160B8
:1002A000416841F480614160416821F47C11416002
:1002B000416841F4E8114160016841F080710160DA
:1002C00001688901FCD5416821F003014160416862
:1002D00041F0020141604168C1F381010229FAD174
:1002E0000CBDABE710B52A48016841F0010101607F
:1002F0004168294A114041600168284A1140016063
:10030000016821F480210160416821F4FE0141600F
:100310004FF41F018160FFF7E4FF21494FF00060B7
:10032000086010BD10B51A4A506800F00C011D4B52
:100330001D4800290ED004290ED008290ED00360D4
:100340005168194AC1F30311121D515C0268CA4079
:10035000026010BD0360F3E70360F1E7516801F448
:100360007011536803F48033022404EB914133B1DC
:1003700053689B0307D50D4B59430160E0E70B4BD6
:1003800059430160DCE7074B59430160D8E700009F
:1003900000100240002002400000FFF8FFFFF6FEC0
:1003A00008ED00E000127A000000002000093D0086
:1003B00010B586B00121480200F0DDFB4FF400408B
:1003C00000F05CFB00208DF8090004904FF46021E0
:1003D0000391019001208DF814008DF80800264C3F
:1003E00001A9204600F074FE0121204600F098FE8D
:1003F000204600F0B8FE204600F0BAFE0028FAD1F0
:10040000204600F0BCFE204600F0BEFE0028FAD1D7
:100410000121204600F0BFFE06B010BD10B5164CFD
:10042000014607230122204600F0DCFE0121204680
:1004300000F0B1FE0221204600F0BAFF0028F9D0FA
:100440002046BDE8104000F013BF2DE9F0410746FB
:100450000E460025002408E03846FFF7DFFF05447C
:10046000052000F04FF8641CE4B2B442F4D3B5FBAD
:10047000F6F080B2BDE8F0810024014008B501210A
:10048000042000F078FB00208DF803000220ADF876
:10049000000003208DF802006946024800F065F96B
:1004A00008BD00000008014010B56FF0040000F026
:1004B000CFFD204820490068B0FBF1F01F49C0B2D1
:1004C000087000EB4002C2EBC0104FF6FF7202EA68
:1004D000C000488010BD1949097848434FF0E02119
:1004E000486100238B61086940F0010008610869D8
:1004F000C20701D0C003FAD5086920F001000861E5
:100500008B6170470D49498848434FF0E0214861AD
:1005100000238B61086940F0010008610869C20787
:1005200001D0C003FAD5086920F0010008618B6191
:10053000704700000000002000127A001400002024
:10054000704741490A885206FCD53F4AC1B2121D84
:100550001180704770B586B00546012144F2040051
:1005600000F009FB4FF40070ADF8140003248DF87F
:10057000164018218DF81710344E05A9304600F0AA
:10058000F4F83115ADF8141004218DF8171005A9F1
:10059000304600F0EAF825208DF800008DF8014083
:1005A0008DF8024001208DF80300684600F00DFD33
:1005B00001950020ADF80800ADF80A00ADF80C0078
:1005C000ADF810000C20ADF80E001F4C01A920461C
:1005D00000F070FB012240F22551204600F0F1FBB3
:1005E0000121204600F0E1FB06B070BD70B5164C4D
:1005F00040F22551204600F0B1FC00280ED02046E4
:1006000000F038FCC1B2124A1088030406D4440436
:100610004FF0000307D50A2901D0138070BD40F4C4
:100620000040108070BD0D290AD00A4DC0F30D04A2
:100630002955401C80B21080C728F3D9138070BDA3
:1006400040F48040108070BD003801400008014037
:10065000180000203400002009488047094800475E
:10066000FEE7FEE7FEE7FEE7FEE7FEE7FEE7FEE762
:10067000FEE7FEE704480549054A064B70470000BF
:10068000E502000831010008600100206007002039
:10069000600300206003002010B59C49884209D106
:1006A0000121042000F07DFA0021BDE81040042063
:1006B00000F077BA9649884209D10121082000F05C
:1006C00070FA0021BDE81040082000F06ABA914994
:1006D000884209D10121102000F063FA0021BDE811
:1006E0001040102000F05DBA8B49884209D10121E9
:1006F000202000F056FA0021BDE81040202000F034
:1007000050BA8649884209D10121402000F049FAB7
:100710000021BDE81040402000F043BA80498842E3
:1007200009D10121802000F03CFA0021BDE81040F1
:10073000802000F036BA7B4988420AD18415012115
:10074000204600F02EFA2046BDE81040002100F0BF
:1007500028BA10BD10B50121084600F022FA002188
:10076000BDE81040012000F01CBA2DE9F041002244
:10077000CC7804F00F03E40601D58C7823430C7881
:100780004FF00F0714F0FF0F4FF0010C1CD005685D
:100790000CFA02F40E882640A64211D1960007FA00
:1007A00006F825EA080503FA06F848EA0505CE78B2
:1007B000282E02D0482E02D002E0446100E00461FD
:1007C000521C082AE4D305600A88FF2A1ED945680E
:1007D000002202F108060CFA06F40E882640A64212
:1007E00010D1960007FA06F825EA080503FA06F87C
:1007F00048EA0505CE78282E00D14461CE78482EEF
:1008000000D10461521C082AE3D34560BDE8F081A1
:100810004FF6FF710180022181700421C170704781
:100820000246002092680A4200D00120704780688A
:1008300080B2704702460020D2680A4200D00120F0
:100840007047C06880B2704701617047416170476E
:10085000002A01D00161704741617047C160704753
:1008600041F480328261816182618169806970476F
:1008700010B52D4B1A684FF68074224042EA0010E2
:100880000843186010BD2949C8617047F0B5264C6F
:10089000002801DAE36900E06368C0F30346420D13
:1008A000120185B2C0F301579540032F07D0C20251
:1008B0000CD50322B240934343F0706209E023F069
:1008C0007062636823F07063636002E0AB4343F0DF
:1008D000706201B12A43002801DAE261F0BD626072
:1008E000F0BD10B58A07120F0F23934021F00304C7
:1008F0000D4921448C689C438C608B689040034375
:100900008B6010BD0949DC31086070470008014068
:10091000000C01400010014000140140001801408B
:10092000001C014000200140000001400000204266
:10093000B448016841F0010101604168B24A1140C8
:1009400041600168B14A11400160016821F48021D1
:100950000160416821F4FE0141604FF41F01816094
:100960007047A8490A6822F480320A600A6822F4B3
:1009700080220A60B0F5803F07D0B0F5802F03D108
:10098000086840F4A02008607047086840F4803090
:10099000086070470346002059099A4A01290AD085
:1009A00002290AD0516A03F01F02012393400B422F
:1009B00000D0012070471168F5E7116AF3E718B518
:1009C000002000904FF4A0643120FFF7E3FF00996E
:1009D000491C00910099A14201D00028F4D0312097
:1009E000FFF7D8FF08B1012018BD002018BD854AC7
:1009F000116821F0F80141EAC00010607047844995
:100A0000086070477F4B5A6822F47C1208431043F9
:100A1000586070477E49086670477A4A516821F0ED
:100A200003010143516070477648406800F00C00B4
:100A30007047744A516821F0F001014351607047DA
:100A4000704A516821F4E0610143516070476D4A7A
:100A5000516821F4605141EAC00050607047694A12
:100A6000002903D0517A014351727047517A814372
:100A7000517270476649D83108607047614A5168C1
:100A800021F440410143516070475E49002220310A
:100A90000A7001F82029012805D0042802D1052078
:100AA00081F820007047012081F8200070475949E3
:100AB0000860704753490A6A02430A627047554901
:100AC00044390860704710B54E4A516801F00C0176
:100AD000514B002927D0042927D0082927D00360AB
:100AE000516801F0F00109094C4B5C5C0168E14080
:100AF0004160546804F4E064240A1C5D21FA04F4A3
:100B00008460546804F46054E40A1B5DD940C160F9
:100B1000526802F44042920B404B1B1F9A5CB1FB9F
:100B2000F2F1016110BD0360DAE70360D8E75168B4
:100B300001F47011536803F48033022404EB9141F3
:100B400033B153689B0307D5354B59430160C7E761
:100B5000334B59430160C3E72F4B59430160BFE753
:100B6000284A002903D051690143516170475169F6
:100B7000814351617047234A002903D091690143A1
:100B80009161704791698143916170471D4A0029C5
:100B900003D0D1690143D1617047D1698143D161EB
:100BA0007047184A002903D0D1680143D1607047CB
:100BB000D1688143D1607047124A002903D011697E
:100BC00001431161704711698143116170471149F7
:100BD0004039086070470E49C86470470949C871B8
:100BE00070470848416A41F0807141627047014690
:100BF0000020044A92680A4200D00120704701494F
:100C000088727047001002400000FFF8FFFFF6FEF8
:100C1000000042428004424200127A002400002078
:100C200000093D0010B5E14988420AD101218C0339
:100C30002046FFF7B6FF2046BDE810400021FFF731
:100C4000B0BFDB4988420AD101214C042046FFF79E
:100C5000B3FF2046BDE810400021FFF7ADBFD549E6
:100C600088420AD101218C042046FFF7A5FF2046C7
:100C7000BDE810400021FFF79FBFCF4988420AD14D
:100C80000121CC042046FFF797FF2046BDE8104025
:100C90000021FFF791BFC94988420AD101210C0503
:100CA0002046FFF789FF2046BDE810400021FFF7EE
:100CB00083BF10BD30B585B004460D46208A4CF682
:100CC000FF710840E98801432182A0894EF6F311A3
:100CD0000840A9882A8911436A8902431143A181E6
:100CE000A08A4FF6FF410840A9890143A1826846C6
:100CF000FFF7E9FEAD48844201D1039800E0029875
:100D0000A189090408D500EBC00101EB0010296896
:100D10004900B0FBF1F007E000EBC00101EB00106F
:100D200029688900B0FBF1F06422B0FBF2F10901FF
:100D30000B096FF018056B4300EB8300A3891D04BA
:100D40004FF0320307D503EBC000B0FBF2F000F028
:100D50000700084306E003EB0010B0FBF2F000F0E0
:100D60000F000843208105B030BD4FF416510160DB
:100D700000218180C18001810C22428181817047E4
:100D800010B5038A4FF2FF0213400A884C882243B1
:100D90008C88C9880C4322431A43028210BD00216B
:100DA000018041808180C1807047002904D0818901
:100DB00041F4005181817047818921F40051818182
:100DC000704710B540F66A13C1F3421301F01F04D7
:100DD0000121A140012B07D0022B07D014303AB1DA
:100DE00002680A43026010BD0C30F8E71030F6E7E5
:100DF00002688A43026010BD002A03D0828A0A4337
:100E000082827047828A8A4382827047028A22F0F5
:100E10000F020282028A0A4302827047828922F408
:100E20000062828182890A4382817047002904D04E
:100E3000818941F0020181817047818921F002019D
:100E400081817047028A22F020020282028A0A43CC
:100E500002827047002904D0018A41F48041018256
:100E60007047018A21F4804101827047C1F3080173
:100E7000818070478088C0F308007047818941F005
:100E8000010181817047028BD2B20283028B42EA58
:100E9000012101837047028B02F47F420283028B9F
:100EA0000A4302837047002904D0818A41F020015F
:100EB00081827047818A21F0200181827047002958
:100EC00004D0818A41F0100181827047818A21F02B
:100ED000100181827047002904D0818A41F0080105
:100EE00081827047818A21F0080181827047002940
:100EF00004D0818941F40041818170478189C1F327
:100F00000E0181817047002904D0818A41F400617B
:100F100081827047818A21F4006181827047828AD0
:100F200022F004028282828A0A4382827047002968
:100F300004D0818A41F0020181827047818A21F0C8
:100F40000201818270470246002012880A4200D0C6
:100F5000012070478A05C9430180704770B500249D
:100F600040F66A12C1F3421301F01F05012606FA8A
:100F700005F2012B0CD0022B0DD0838A1340090AF5
:100F80008E40008830400BB100B10124204670BD76
:100F900083891340F3E7038A1340F0E740F66A12AF
:100FA0000A0A01219140C94301807047003801407D
:100FB0000044004000480040004C00400050004009
:100FC0002A4908432A490860704770B50F23C27840
:100FD00001260178002A1ED0254A126802F4E06238
:100FE000C2F5E062120AC2F10404D3404578A5407C
:100FF00082781A402A43120101F1E02181F800248D
:10100000007800F01F018E404009800000F1E020D0
:10101000C0F8006170BD01F01F00864048098000E3
:1010200000F1E020C0F8806170BD124A1140014318
:101030000F48001F016070470D4A121D002903D0A0
:101040001168014311607047116881431160704756
:101050004FF0E021042804D0086920F00400086162
:101060007047086940F00400086170470000FA0505
:101070000CED00E080FFFF1F10B5DB4988420AD16C
:10108000441501212046FFF78CFD2046BDE81040A5
:101090000021FFF786BDD54988420AD104150121F8
:1010A0002046FFF77EFD2046BDE810400021FFF7F7
:1010B00078BDCF4988420AD10121CC032046FFF7F1
:1010C00070FD2046BDE810400021FFF76ABD10BD4D
:1010D00010B54268C74B1A400C790B6842EA0422EB
:1010E000134343608268C44B1A40D1E9024323434F
:1010F0004C7942EA440213438360C26A22F47002CC
:10110000097C491EC9B242EA0151C16210BD0021E9
:101110000160017141718160C160012101747047FA
:10112000002904D0816841F0010181607047816825
:1011300021F0010181607047002904D0816841F4E9
:10114000807181607047816821F48071816070478F
:10115000C9B2002A03D042680A434260704742681D
:101160008A4342607047816841F00801816070479E
:10117000014600208968090700D501207047816871
:1011800041F00401816070470146002089684907E9
:1011900000D501207047002904D0816841F4A001E6
:1011A00081607047816821F4A00181607047014629
:1011B00000208968490200D501207047426822F466
:1011C0006042491E42EA413141607047002904D023
:1011D000416841F4006141607047416821F4006159
:1011E0004160704770B5072609290AD9C568A1F181
:1011F0000A0404EB4404A640B543A3401D43C56064
:1012000007E0056901EB4104A640B543A3401D4337
:1012100005611F23072A09D2446B521E02EB82028A
:1012200093409C4391400C43446370BD0D2A09D206
:10123000046BD21F02EB820293409C4391400C430B
:10124000046370BDC46A0D3A02EB820293409C4372
:1012500091400C43C46270BD002904D0816841F400
:10126000801181607047816821F48011816070472E
:10127000C06C80B270475C484C30006870470029F1
:1012800004D0416841F4806141607047416821F4B5
:10129000806141607047002904D0416841F4805169
:1012A00041607047416821F4805141607047826815
:1012B00022F4E0420A4382607047002904D081682A
:1012C00041F4004181607047816821F400418160F0
:1012D0007047002904D0816841F402118160704791
:1012E000816821F4021181607047014600208968FD
:1012F000890200D50120704770B5072609290AD94F
:10130000C568A1F10A0404EB4404A640B543A34018
:101310001D43C56007E0056901EB4104A640B543E4
:10132000A3401D430561836BC3F30154121B921C40
:1013300002EB82021F249440A34391400B4383633A
:1013400070BD826B22F44012491E42EA0151816352
:10135000704708B50090009808440090009802601B
:1013600008BD08B500900098084428300090009807
:10137000006880B208BD4268204B1A400A434260B0
:101380007047416282627047426822F01F020A433E
:101390004260704714490831002804D0086840F4BE
:1013A000000008607047086820F40000086070477B
:1013B0000246002012680A4200D001207047C9434B
:1013C0000160704710B5024600200B0A5468C9B28C
:1013D0000C401168194202D0002C00D0012010BD31
:1013E000090AC943016070470024014000280140F8
:1013F000003C0140FFFEF0FFFDF7F1FFFFFD3FFF66
:10140000704700000FB4044910B503AA029800F019
:101410004DFA10BC5DF814FB1C0000202DE9F041D2
:101420000E460446002020622046E168884730B31B
:10143000252805D0D4E901219047206A401CF2E715
:10144000E168204600278847050018D0A5F1410033
:10145000192802D820354FF4006732462946204625
:101460002760FEF79FFE40B1012804D0F61D26F04C
:1014700007060836D8E7361DD6E72846DAE7206A99
:10148000BDE8F081704770477047704770472DE99D
:10149000FF4F0C461E464FF0FF378BB0D2E90001DC
:1014A000DDF860800A908A46C1F30A5505B93D46C9
:1014B000002108464FF00000BAF1000F00F4400090
:1014C00005DA00EB80004FF4400101EA50004FEADA
:1014D0009059B9F1010F00DDB9460A9850EA4A0067
:1014E0000ED044F61050A5F2FF3545432F14B8F145
:1014F000000F1ED07542291E1EDDC9F100021CE03E
:10150000B8F1010F4FF0000001D0302103E0F243A9
:1015100005E02154401CB042FBDB30460022002194
:1015200021540B99C1F80880C1E900200FB0BDE833
:10153000F08FBD1B6D1CDEE74A4600DA694206A843
:1015400000F068FA06AB93E8070003AB83E80700F6
:1015500050460A9900F046FB8DE80700A0F50050C0
:101560001F3800900398002D0ADD42F21F014A4601
:101570000844002303A90390684600F0AFFD09E08A
:10158000A0F500504A461F38002303A9039068467F
:1015900000F0B9FD8DE807000004000C03D04FF007
:1015A000FF30410800E01046B8F1000F03D00022E0
:1015B000009215461EE0751E05D400F08DF93032FC
:1015C00062556D1EF9D5B3460122084302D00022B0
:1015D0007F1C04E02078302801D100227F1E002AE1
:1015E000099784D01DE0112D07DA00F075F930322B
:1015F00062556D1C50EA0102F5D1084302D00098F3
:10160000C8B10EE00021681E05E0235C625C6354F3
:101610002254401E491C8142F7DBAB46A81B401EEA
:101620000990002004F80B000B98099AC0F8088074
:10163000C0E9002B7AE711264FF0000857E72DE9A3
:10164000F04F88460446D21D22F0070191B0D1E93F
:101650000001CDE90A0100F08DFE02460B98C00F93
:1016600001D02D2007E02068810701D52B2002E062
:10167000202101EAC000032A099001D0072A05DBD6
:1016800003464146204600F085F90BE120788006AC
:1016900001D5E06900E00620B8F1650F814606D06B
:1016A000B8F1660F18D0B8F1670F70D131E00020A3
:1016B000B9F1110F009001DB112301E009F10103E1
:1016C0000AAA01A90CA8FFF7E2FEDDE90C700026CA
:1016D00009F10105834647E001204B4600904FF099
:1016E00000470AAA01A90CA8FFF7D1FEDDE90DB059
:1016F0000C995D46002610B909F101000D18B9EBEF
:10170000050003D4C0F1FF3609F10105A5EB09007E
:101710002BE0B9F1010F01DA4FF001090020B9F116
:10172000110F0090484601DD112300E003460AAA8C
:1017300001A90CA8FFF7ABFEDDE90C704D460026B1
:101740008346207800070AD4AB4500DA5D4601A83D
:10175000012D04DD411911F8011C302907D04F4536
:1017600002DA17F1040F04DA012082460FE06D1E41
:10177000EEE7002F02DCED1B3E4403E0781CA8429C
:1017800000DD7D1CB81B00F1010A4FF000472078F6
:10179000000703D4AA4501DB4FF0FF3A0021B7F15F
:1017A000004F0DF143088DF8431024D002202B2365
:1017B000002F01DA7F422D230A21021EA0F1010031
:1017C00000DC5FB197FBF1FC97FBF1F201FB1C7CA5
:1017D00017460CF1300C08F801CDEEE7A8F1010036
:1017E00003702188090501D5452100E06521A0F19C
:1017F000010800F8011C09980FA9A1EB0807FF1DBB
:1018000000B10120411901EBEA70A1693844081ABE
:10181000401EA0612078C00602D42046AFF30080AD
:10182000099828B1D4E901219047206A401C206220
:101830002078C00622D52046AFF300801EE0002E9F
:1018400004DBB34502DD01A8805D00E03020D4E96F
:1018500001219047206A401C2062761CAAF10100F9
:101860005FEA000A0AD100F033F8C0680168405C02
:10187000D4E901219047206A401C2062281EA5F16E
:101880000105DCDC07E0D4E9012118F8010B9047E1
:10189000206A401C2062381EA7F10107F3DC2046B5
:1018A000AFF30080032011B041E60000074B70B594
:1018B0000D467B4400F05BF80446284600F01CF916
:1018C00010B14FF0FF3070BD204670BD8DECFFFFB2
:1018D000004870471C01002030B5B0F10A024FEA01
:1018E000900E71F100034EEA817EB0EB0E0061EBC9
:1018F00091014FEA101E4EEA017E10EB0E0041EB03
:1019000011114FEA102E4EEA016E10EB0E0041EB62
:1019100011214FEA104E4EEA014E10EB0E0041EB42
:101920001141401841F100014FEAD00040EA4170F6
:101930004FEAD10110EB80054FEA810444EA90742C
:1019400044EB01046D1944EB0404521BA3414FF016
:10195000000348BF0A3200D530BD401C41F10001F0
:1019600030BD000001694A1C02610878704700B56B
:101970008FB0CDE901310021059105497944CDE9C8
:10198000031011466846FFF749FD0FB000BD000087
:10199000E5FFFFFF2DE9F0411F46044603260168DD
:1019A000072A01F4006004DB08B116A505E016A5BE
:1019B00003E008B115A500E015A521F01000206096
:1019C000A069C01EA0610FB1401EA0612046AFF308
:1019D00000804FB1D4E9012138469047206A401C6D
:1019E0002062C01C206206E0206AFAE7D4E90121E7
:1019F00015F8010B9047761EF8D22046AFF3008011
:101A0000BDE8F0814E414E006E616E00494E4600C9
:101A1000696E66002DE9F047814616468AB0354862
:101A200078440DC88DE80D0032487844801C03AC22
:101A30000DC884E80D0041F69B300844372190FB27
:101A4000F1F290FBF1F5A5F1800501FB12041B3CBE
:101A500002D56442012000E00020DFF898A0804613
:101A60000027FA44AAF1BE0A0EE0E0070AD0324687
:101A7000684607EB470101230AEB810100F043FBB5
:101A80008DE8070064107F1C002CEED1194F7F44B5
:101A9000AE3F19E0E80715D007EB04100DF1180A66
:101AA00090E80E008AE80E00C068F04201D1981953
:101AB00008903246012306A903A800F024FB03ABDB
:101AC00083E807006D10641C002DE3D14FF0010383
:101AD00032466946B8F1000F03A802D000F0FEFAC2
:101AE00001E000F010FBC9E90001C9F808200AB0C4
:101AF000BDE8F087940D0000007B00F08000704787
:101B000000487047FC0000207546FFF7F9FFAE461D
:101B100005006946534620F00700854618B020B5F9
:101B2000FEF7A8FDBDE820404FF000064FF000078B
:101B30004FF000084FF0000B21F00701AC46ACE875
:101B4000C009ACE8C009ACE8C009ACE8C0098D46E2
:101B5000704710B50446AFF300802046BDE8104042
:101B6000FEF73ABB4FF0013C50F8042B51F8043B10
:101B70009A4221D1A2EB0C03934313EACC1317D161
:101B800050F8042B51F8043B9A4215D1A2EB0C03F8
:101B9000934313EACC130BD150F8042B51F8043BB8
:101BA0009A4209D1A2EB0C03934313EACC13DBD086
:101BB0004FF00000704700BFD01A01BAB1FA81F1AE
:101BC00001F0180122FA01F0CB40C1F12001DBB293
:101BD000C0B2C01A2CFA01F3D11A914311EAC31111
:101BE000E6D170475FEA400C08BF91F0000F4FEA62
:101BF0008C234FEAC12243EA51514FEA1C5018BFCF
:101C000000F5F0404FEA300018BF41F000415FEAB4
:101C10006C5C00F02980BCF1FF3F08BF40F08040C1
:101C20007047130C06BF12044FF0100C4FF0000C5D
:101C3000130E04BF12020CF1080C130F04BF1201A3
:101C40000CF1040C930F04BF92000CF1020CD30FA3
:101C500004BF52000CF1010C11464FF00002A0F13C
:101C60001F00A0EB0C00704711F0004F08BF704739
:101C700031F000413FF4D5AF0B0C06BF09044FF023
:101C8000100C4FF0000C0B0E04BF09020CF1080CF5
:101C90000B0F04BF09010CF1040C8B0F04BF89006A
:101CA0000CF1020CCB0F04BF49000CF1010CCCF17C
:101CB0002003A0EB0C0022FA03F302FA0CF241EA33
:101CC000030100F10100704720F07F4C80EA03001F
:101CD00023F07F47ACEB070303F57C5300F0004093
:101CE00003F1FF032DE980494FEA154B09B44FEA90
:101CF000144325EA0B4E24EA03480FF2042606EBB0
:101D0000132749083E785FEA320203FB0667C7F5EE
:101D1000000707FB06F64FEA54374FEAD64606F1AE
:101D2000020607FB066CCCF1005C4FEA1C472CEA6C
:101D3000074C07FB06F40CFB06F504EB15464FEACF
:101D4000961634BF00204FF000404FEAD13706FB13
:101D500007FC4FEA1C4C0CFB0BF7D21B03FB0CF7E8
:101D600061EB07010CFB0EF7B0EB074072EB17427B
:101D70000CFB08F734BFA2EB0742B2EB074261EB62
:101D800017414FEA0C444FEA910706FB07FC4FEA64
:101D90001C4C0CFB0BF7B0EBC74072EB573203FB4C
:101DA0000CF734BFA2EBC742B2EBC74261EB57312D
:101DB0000CFB0EF7B0EBC70072EB57720CFB08F789
:101DC00034BFA2EBC702B2EBC70261EB5771039FAE
:101DD0004FEA816141EA921104EBCC044FEAD1371A
:101DE0004FEA826206FB07FC42EA90124FEA8060EB
:101DF0004FEA1C4C0CFB0BF7D21B03FB0CF761EBFF
:101E000007010CFB0EF7B0EB074072EB17420CFB1F
:101E100008F734BFA2EB0742B2EB074261EB174170
:101E20004FEA8C554FEA910704EB9C2406FB07FC14
:101E30004FEA1C4C0CFB0BF7B0EBC74072EB573270
:101E400003FB0CF734BFA2EBC742B2EBC74261EB16
:101E500057310CFB0EF7B0EBC70072EB57720CFB5F
:101E600008F734BFA2EBC702B2EBC70261EB5771B0
:101E700015EB4C254FEA816141EA92114FEA8262EB
:101E80004FEAD13742EA901206FB07FC44F1000406
:101E90004FEA80604FEA1C4C0CFB0BF7D21B03FB94
:101EA0000CF761EB07010CFB0EF7B0EB074072EB90
:101EB00017420CFB08F734BFA2EB0742B2EB074214
:101EC00061EB174115EB1C154FEA813141EA924154
:101ED0004FEA823242EA90424FEA80304FEA0C7673
:101EE00044F1000448EA03434EEA0B484FF0000E69
:101EF000B2EB080C71EB030724BF624639464EEB88
:101F00000E0E4FF0000B0018524149414BEB0B0BEA
:101F1000B2EB080C71EB03077BF1000B24BF6246A8
:101F200039464EEB0E0E4FF0000B0018524149415E
:101F30004BEB0B0BB2EB080C71EB03077BF1000BC7
:101F400024BF624639464EEB0E0E51EA020718BF17
:101F500046F0010616EB0E7655F1000254F1000131
:101F600003D5BDE88901BDE80088BDE88901BDE869
:101F70000048B619524141EB0101A3F1010370473A
:101F800080807F7E7D7C7B7A7978777676757473B6
:101F9000727171706F6E6E6D6C6C6B6A6A69686875
:101FA000676666656464636362616160605F5F5E0B
:101FB0005E5D5D5C5C5B5B5A5A5959585857575681
:101FC00056555555545453535252525151505050E6
:101FD0004F4F4F4E4E4D4D4D4C4C4C4B4B4B4A4A38
:101FE0004A4949494848484747474746464645457C
:101FF00045444444444343434342424242414141B5
:10200000002B9C4630D477002BD01CB54FEA370705
:1020100003B44FF010004FF01001BAF1000F06D0DA
:10202000BCF1000FDCBF40F0080040F008014FF0A9
:1020300000000FBCBDE810400BF1010BBBF1010F1C
:1020400008BF5FEA170722BF12F1010211F1010177
:102050004FF0004143F1000300F0004043EA00006C
:102060007047F9D35708D0E746EA064613F1400F08
:102070004FEA16461FDD13F1200FDFBF16430A4655
:10208000002120335B42BED0C3F1200746EA06465A
:1020900002FA07F74FEA164646EA0706C3F1200799
:1020A00022FA03F201FA07F721FA03F14FF00003D5
:1020B00042EA0702A7E746EA020646EA06464FEA70
:1020C000164646EA0106BCBF46EA0646360C4FF005
:1020D00000034FF000024FF0000194E72DE9804C1F
:1020E0009A46934670B491E8380007C831EA400C2C
:1020F00048BF34EA430C03D5FFF7E6FDFFF780FF46
:10210000F0BCBDE8008C2DE9804C9A46934670B433
:1021100091E8380007C810F0804F08BF13F0804FD7
:1021200003D100F005F8FFF76BFFF0BCBDE8008CB1
:1021300020F07F4780EA030023F07F4C07EB0C037D
:10214000A3F57C5300F00040A3F1FE0392F0000FD2
:1021500000F0B38095F0000F00F077802DE9014981
:102160004FEA11404FEA144621EA004800FB06FC02
:1021700024EA064708FB06F607FB08F800FB07F70A
:1021800018EB06484CEB164C4FEA124B18EB07487D
:102190004FEA15464CEB174022EA0B4E0BFB06FCB0
:1021A00025EA06470EFB06F607FB0EFE0BFB07F7BC
:1021B0001EEB064E4CEB164C4FF000061EEB074E86
:1021C0004CEB174B18EB0B0840F1000018EB0E0B13
:1021D00058EB000840F100008F1A4FF000013CBF9F
:1021E000C943661B14BFB5EB040C00213CBFC943B7
:1021F000F61B4FEA17444EEA8E0E27EA04454FEAD3
:102200001C4704FB07622CEA074C05FB07F70CFB95
:1022100005F604FB0CFC16EB074642EB174216EBE7
:102220000C4642EB1C421BEB060658EB02024141F6
:1022300046EA9E0601D5BDE80189B619524141EB37
:102240000101A3F10103BDE801894FEA14454FEAFA
:10225000114724EA054621EA074C05FB07F406FB73
:1022600007F70CFB06F105FB0CFC11EB074144EBF7
:1022700017444FEA124711EB0C4144EB1C4422EA8D
:10228000074C05FB07F206FB07F70CFB06F605FB00
:102290000CFC16EB074642EB174216EB0C4642EBE2
:1022A0001C456A1854F1000148BF7047B6195241E5
:1022B00041EB0101A3F10103704795F0000F37D006
:1022C0004FEA11424FEA144721EA024624EA074C3A
:1022D00002FB07F106FB07F70CFB06F402FB0CFC04
:1022E00014EB074441EB17414FEA154714EB0C443C
:1022F00041EB1C4125EA074C02FB07F506FB07F7FB
:102300000CFB06F602FB0CFC16EB074645EB1745EB
:1023100016EB0C4645EB1C42121951F1000148BF67
:102320007047B619524141EB0101A3F10103704717
:102330004FEA14454FEA114724EA054621EA074CC3
:1023400005FB07F106FB07F70CFB06F24FF0000652
:1023500005FB0CFC12EB074241EB174112EB0C4260
:1023600051EB1C4148BF7047921841EB0101A3F1AA
:1023700001037047490050EAC12018BF04204A0DEC
:1023800018BF40F0010040F2FF72B2EB515F08BF8E
:1023900040F00200012808BF0520704710B5002951
:1023A0000AD00878002807D005487844FFF7DAFB00
:1023B000002801D0002010BD0248784410BD000064
:1023C000460400003E04000021F00042A2F16052E9
:1023D000B2F5801F01F0004328BFD2F17F6C0BD90A
:1023E0005FEA001C43EAC20242EB507018BF70471C
:1023F00028BF20F001007047B2F5801FBCBF18460F
:1024000070474FEA410C1CF5001F02D2084600F04D
:102410008EB970B500F0C6F800000089FFF7F6BF6E
:102420004FF00040A0F580007047B0FA80F310FA3A
:1024300003F10AD0C3F11D0303F580634FEA415055
:102440004FEA035202EBD12170474FF00000704772
:10245000DFF848C170B51CEA111E1EBF1CEA131537
:102460009EEA0C0F95EA0C0F00F06F8081EA0304DE
:1024700023EA4C134EEAD47E21EA4C1141F4801138
:1024800043F48013AE44A1FB024CA0FB0365AEF104
:102490007F7E361955EB0C05A1FB034C4CF1000374
:1024A000A0FB021C16EB0C06654153F10003094228
:1024B00018BF46F0010613F4007F0BD14FEA033139
:1024C0004FEA0530340341EA155140EA16506FF0E7
:1024D00003020AE04FEAC3214FEAC520F40241EAB1
:1024E000555140EA56506FF0020202EB2E4201EBCA
:1024F000025585EACE710AD05FEA440C18BF24F079
:10250000004450F1000041F1000120EAD47040F293
:10251000FE7C624500D270BDA84214BF4FF08044DB
:102520004FF04044002E08BF0024BEF1806FA8BFCA
:10253000A1F1C041BDE8704080F282804FF0000000
:1025400001F1C04101F0004170479EEA0C0F0CEA16
:10255000131518BF95EA0C0F06D04FF0000081EA62
:10256000030E0EF0004170BD00F01CF88900013E22
:1025700000F007B800F009B84FEA430C5FEA5C5C72
:1025800008D081EA030100F05BB84FEA410C5FEA32
:102590005C5CF6D14FF00000014970470000FF0776
:1025A0000000F87F0EF1020E2EF0030E5EF8046BB1
:1025B000364205D4012A43EB030515F5001F12D856
:1025C000012841EB010C1CF5001F0CD80ED14FEA7D
:1025D000D17C15F5001F0CEB4C0C0CF1020C08BF64
:1025E0004CEBD37C04E04FF0080C01E04FEAD37CC5
:1025F0000CEB4C0526FA05F606F00706B6F1040CBE
:1026000006D20EEB860CBDE870404CF0010C604722
:10261000DFE80CF0090B02024FF000414FF0000020
:10262000A1F5002170BD19461046012851EB0104A7
:1026300018BFD4F5001484BF002001F0004170BD24
:102640000808A0F500114FEA3101704743004FEA36
:10265000D30C4FEA3C0C43401FBF40070CF16051C4
:1026600013F0FE4F70471CF0006F03D100200CF0F8
:10267000004170470CF0004343EA507010B540EA47
:10268000CC0000F00EF800BF000000924FEA0001FD
:10269000FFF7D6BF4FF000414FF00000A1F5002139
:1026A00070470EF1020E2EF0030E5EF8044B24422A
:1026B00004D44FEA4102B2F17F4F11D84FEA4003F0
:1026C000B3F17F4F0CD80ED14FEAD07CB2F17F4FDF
:1026D0000CEB4C0C0CF1020C08BF4CEBD17C04E071
:1026E0004FF0080C01E04FEAD17C0CEB4C0324FACC
:1026F00003F404F00704B4F1040C06D20EEB840CCE
:10270000BDE810404CF0010C6047DFE80CF0070812
:1027100002024FF00040A0F5800010BD08464200C4
:1027200018BFD2F1807288BF00F0004010BDFF21B9
:1027300041EAD050C0057047FEF781BF024000005B
:10274000000000A00000000005400000000000C8DC
:10275000000000000C4000000000409C0000000051
:10276000194000000020BCBE000000003440000002
:10277000BFC91B8E00000004B5400000504BCFD0F5
:102780006607E2CF010000006C4100003E8251AAC2
:10279000DFEEA73401000000D9420000DCB5A0E262
:1027A0003A301F97FFFFFFFFB4450000FD25A0C88A
:1027B000E9A3C14FFFFFFFFFFF3F000000000080C3
:1027C00000000000FF3F000000000080000000004B
:1027D0000C28000800000020340000006C010008F4
:1027E00040280008340000202C0700008801000861
:1027F0001C00000043000000F8FFFFFF0C00000079
:102800000E0000000F0000002E00000000A24A048D
:102810000000000000000000010203040607080990
:102820000000000000000000000000000204060894
:102830000000000001020304010203040607080966
:0400000508000131BD
:00000001FF
