:020000040800F2
:1000000090070020A90100088F1B0008F1160008C6
:100010008D1B0008D91500085520000800000000BD
:100020000000000000000000000000007D1E00082D
:10003000DB150008000000005F1E0008511F0008CB
:10004000C3010008C3010008C3010008C301000880
:10005000C3010008C3010008C3010008C301000870
:10006000C3010008C3010008C3010008C301000860
:10007000C3010008C3010008C3010008C301000850
:10008000C3010008C3010008C3010008C301000840
:10009000C3010008C3010008C3010008C301000830
:1000A000C3010008C3010008C3010008C301000820
:1000B000C3010008C3010008C3010008C301000810
:1000C000C3010008C3010008C3010008C301000800
:1000D000C3010008A51F0008C3010008C3010008F0
:1000E000C3010008C3010008C301000800F002F8C2
:1000F00000F04AF80AA090E8000C82448344AAF178
:100100000107DA4501D100F03FF8AFF2090EBAE875
:100110000F0013F0010F18BFFB1A43F0010318473B
:100120002470000044700000103A24BF78C878C1E1
:10013000FAD8520724BF30C830C144BF04680C60ED
:10014000704700000023002400250026103A28BF35
:1001500078C1FBD8520728BF30C148BF0B60704739
:10016000662905F04085642900F0848000207047EE
:100170001FB500F0CBFC04000020002104F0C2FCFD
:10018000E0601FBD10B510BD00F0F0FD1146FFF797
:10019000EFFF03F0CFFB00F00EFE03B4FFF7F2FF1A
:1001A00003BC01F0DCFF0000094880470948004714
:1001B000FEE7FEE7FEE7FEE7FEE7FEE7FEE7FEE717
:1001C000FEE7FEE704480549054A064B7047000074
:1001D000551F0008ED000008900100209007002046
:1001E0009003002090030020704710B54C1084EA63
:1001F000530404D54042C1F1000138BF491E1B42DF
:1002000004D55242C3F1000338BF5B1E00F042F92F
:1002100014F0804F04D04042C1F1000138BF491EA4
:1002200014F0004F04D05242C3F1000338BF5B1EEC
:1002300010BD00000FB4044910B503AA029800F0E5
:1002400031FC10BC5DF814FB500000200FB41CB54D
:10025000074B06AA7B4469460090059800F009FC0C
:100260000020694600F018FC1CBC5DF814FB00007F
:10027000410800002DE9F041064600241068752968
:10028000314616A510D0AFF30080002802DA4042B4
:1002900013A507E031688A0701D512A502E04907D6
:1002A00004D511A5012401E0AFF3008000210A224A
:1002B00006F1240709E0B0FBF2FCB0FBF2F302FB0D
:1002C0001C00303078541846491C0028F3D12346CE
:1002D0002A463046BDE8F04100F05EB9000000005B
:1002E0002D0000002B000000200000002DE9F05F31
:1002F000894604464FF0000ADFF824B1FB44C0F8F9
:1003000020A02046E168884700287DD0252806D017
:10031000D4E901219047206A401C2062F1E70025C2
:100320005F462046E16888472028064607DB312ED5
:1003300005D2B81910F8200C08B10543F1E7A80759
:1003400001D525F00405C4F81CA00027C4F818A0A6
:100350002A2E09D0304601F0FBFE38B304EB8708A3
:10036000303EC8F8186019E059F8041B204604EB29
:1003700087029161E1688847012F064618D1E0693C
:10038000002820DA25F020051DE0D8F8180000EB41
:10039000800006EB40003038C8F818002046E168BD
:1003A0008847064601F0D4FE0028EED1012F0AD07E
:1003B0002E2E08D12046E16888477F1C0646022F72
:1003C00045F02005C4DBA069002803DA404245F06F
:1003D0000105A061E80701D025F01005A6B1A6F13E
:1003E0004100192802D8203645F400654A463146B6
:1003F000204625604D46FFF7B3FE60B1012807D0C7
:10040000ED1D25F0070000E007E000F1080978E79E
:1004100005F1040975E730467AE7206ABDE8F09FE8
:100420005E6C000040EA010310B59B070FD1042A5F
:100430000DD310C808C9121F9C42F8D020BA19BAAF
:10044000884201D9012010BD4FF0FF3010BD1AB114
:10045000D30703D0521C07E0002010BD10F8013B69
:1004600011F8014B1B1B07D110F8013B11F8014B90
:100470001B1B01D1921EF1D1184610BD02F0FF03E3
:1004800043EA032242EA024200F020BB7047704771
:100490007047704753EA020C00F069802DE9F04B79
:1004A0004FF00006002B1FBFB3FA83F503FA05F4E3
:1004B00024FA05F65E4012BF1643B2FA82F502FA3C
:1004C00005F4C5F120051EBF22FA05FC44EA0C0420
:1004D000203556EA044C4FEA144418BF641C4FF010
:1004E00000084FF00009904271EB030C39D300294A
:1004F00019BFB1FA81F701FA07F6B0FA80F700FAEE
:1005000007F6C7F120071EBF20FA07FC46EA0C06D3
:100510002037B6FBF4FCA7EB0507103F07F01F0BD5
:10052000CBF120060CFA0BFB2CFA06F644BFB346BF
:100530000026202FA4BF5E464FF0000B5BEA060C9E
:1005400008BF4FF0010B19EB0B09ABFB027C48EB2A
:100550000608C01B06FB02CC0BFB03CC71EB0C01A5
:10056000C1E70B46024641464846BDE8F08B13B54D
:100570004FF000004FF00001AFF30080BDE81C40D9
:10058000704710B500F0C6FA006810BD10B50446FB
:1005900000F0C0FA046010BD2DE9F0470D46994601
:1005A0009246044600F124080168880604D5E069F3
:1005B00021F01001216000E00120A84201DD471B6D
:1005C00000E00027A1697A1902EB0900081AA0616E
:1005D0002078C00602D42046AFF30080002608E051
:1005E000D4E901211AF806009047206A401C761CC5
:1005F00020624E45F4DB2078C0060AD52046AFF3D2
:10060000008006E0D4E9012130209047206A401C98
:100610002062381EA7F10107F4DC07E0D4E90121CC
:1006200018F805009047206A401C2062281EA5F19A
:100630000105F3DC2046AFF300802078000602D5E8
:100640000220BDE8F0870120FBE770472DE9FF4F4E
:100650000C461E464FF0FF378BB0D2E90001DDF8A3
:1006600060800A908A46C1F30A5505B93D460021CB
:1006700008464FF00000BAF1000F00F4400005DA20
:1006800000EB80004FF4400101EA50004FEA90591E
:10069000B9F1010F00DDB9460A9850EA4A000ED0C0
:1006A00044F61050A5F2FF3545432F14B8F1000F62
:1006B0001ED07542291E1EDDC9F100021CE0B8F1F2
:1006C000010F4FF0000001D0302103E0F24305E0BC
:1006D0002154401CB042FBDB304600220021215453
:1006E0000B99C1F80880C1E900200FB0BDE8F08F78
:1006F000BD1B6D1CDEE74A4600DA694206A800F021
:1007000093FA06AB93E8070003AB83E80700504673
:100710000A9900F099FB8DE80700A0F500501F38FA
:1007200000900398002D0ADD42F21F014A4608445A
:10073000002303A90390684600F002FE09E0A0F53B
:1007400000504A461F38002303A90390684600F072
:100750000CFE8DE807000004000C03D04FF0FF30C2
:10076000410800E01046B8F1000F03D000220092CB
:1007700015461EE0751E05D400F0D0F930326255E2
:100780006D1EF9D5B3460122084302D000227F1C1A
:1007900004E02078302801D100227F1E002A09972A
:1007A00084D01DE0112D07DA00F0B8F9303262551F
:1007B0006D1C50EA0102F5D1084302D00098C8B17F
:1007C0000EE00021681E05E0235C625C6354225445
:1007D000401E491C8142F7DBAB46A81B401E099016
:1007E000002004F80B000B98099AC0F80880C0E9B3
:1007F000002B7AE711264FF0000857E72DE9F04F5C
:1008000088460446D21D22F0070191B0D1E90001CB
:10081000CDE90A0101F01FFC02460B98C00F01D080
:100820002D2007E02068810701D52B2002E0202140
:1008300001EAC000032A099001D0072A05DB03461C
:100840004146204600F0B0F90BE12078800601D542
:10085000E06900E00620B8F1650F814606D0B8F1E6
:10086000660F18D0B8F1670F70D131E00020B9F1F0
:10087000110F009001DB112301E009F101030AAA25
:1008800001A90CA8FFF7E2FEDDE90C70002609F1D2
:100890000105834647E001204B4600904FF000479A
:1008A0000AAA01A90CA8FFF7D1FEDDE90DB00C9949
:1008B0005D46002610B909F101000D18B9EB0500DD
:1008C00003D4C0F1FF3609F10105A5EB09002BE0C7
:1008D000B9F1010F01DA4FF001090020B9F1110F50
:1008E0000090484601DD112300E003460AAA01A951
:1008F0000CA8FFF7ABFEDDE90C704D4600268346E1
:10090000207800070AD4AB4500DA5D4601A8012D26
:1009100004DD411911F8011C302907D04F4502DAD6
:1009200017F1040F04DA012082460FE06D1EEEE796
:10093000002F02DCED1B3E4403E0781CA84200DDE2
:100940007D1CB81B00F1010A4FF00047207800071A
:1009500003D4AA4501DB4FF0FF3A0021B7F1004F65
:100960000DF143088DF8431024D002202B23002FD3
:1009700001DA7F422D230A21021EA0F1010000DCD2
:100980005FB197FBF1FC97FBF1F201FB1C7C174672
:100990000CF1300C08F801CDEEE7A8F1010003706E
:1009A0002188090501D5452100E06521A0F1010854
:1009B00000F8011C09980FA9A1EB0807FF1D00B161
:1009C0000120411901EBEA70A1693844081A401E60
:1009D000A0612078C00602D42046AFF300800998B9
:1009E00028B1D4E901219047206A401C2062207878
:1009F000C00622D52046AFF300801EE0002E04DBA7
:100A0000B34502DD01A8805D00E03020D4E901217A
:100A10009047206A401C2062761CAAF101005FEA20
:100A2000000A0AD100F072F8C0680168405CD4E99D
:100A300001219047206A401C2062281EA5F1010573
:100A4000DCDC07E0D4E9012118F8010B9047206AAB
:100A5000401C2062381EA7F10107F3DC2046AFF3EB
:100A60000080032011B041E601694A1C0261087848
:100A7000704700B58FB0CDE90131002105910549DE
:100A80007944CDE9031011466846FFF72FFC0FB0FB
:100A900000BD0000E5FFFFFF0A6802F8010B0A60D5
:100AA00070470000074B70B50D467B44FFF7E1FF30
:100AB0000446284600F02AF910B14FF0FF3070BD0F
:100AC000204670BDA32800004FF000020429C0F0AA
:100AD000128010F0030C00F01F81CCF1040CBCF16B
:100AE000020F18BF00F8012BA8BF20F8022BA1EBC2
:100AF0000C0100F011B95FEAC17C24BF00F8012BA2
:100B000000F8012B48BF00F8012B704700487047E0
:100B10004C010020004870472C01002030B5B0F196
:100B20000A024FEA900E71F100034EEA817EB0EBAB
:100B30000E0061EB91014FEA101E4EEA017E10EBB0
:100B40000E0041EB11114FEA102E4EEA016E10EB30
:100B50000E0041EB11214FEA104E4EEA014E10EB10
:100B60000E0041EB1141401841F100014FEAD00065
:100B700040EA41704FEAD10110EB80054FEA810451
:100B800044EA907444EB01046D1944EB0404521BD5
:100B9000A3414FF0000348BF0A3200D530BD401CCE
:100BA00041F1000130BD00002DE9F0411F4604462F
:100BB00003260168072A01F4006004DB08B116A5CA
:100BC00005E016A503E008B115A500E015A521F084
:100BD00010002060A069C01EA0610FB1401EA0617E
:100BE0002046AFF300804FB1D4E901213846904749
:100BF000206A401C2062C01C206206E0206AFAE7DE
:100C0000D4E9012115F8010B9047761EF8D2204651
:100C1000AFF30080BDE8F0814E414E006E616E0082
:100C2000494E4600696E66002DE9F047814616463A
:100C30008AB0354878440DC88DE80D0032487844B4
:100C4000801C03AC0DC884E80D0041F69B300844BD
:100C5000372190FBF1F290FBF1F5A5F1800501FB46
:100C600012041B3C02D56442012000E00020DFF8A2
:100C700098A080460027FA44AAF1BE0A0EE0E007D9
:100C80000AD03246684607EB470101230AEB81018F
:100C900000F06BFB8DE8070064107F1C002CEED188
:100CA000194F7F44AE3F19E0E80715D007EB041059
:100CB0000DF1180A90E80E008AE80E00C068F042B4
:100CC00001D1981908903246012306A903A800F023
:100CD0004CFB03AB83E807006D10641C002DE3D1CF
:100CE0004FF0010332466946B8F1000F03A802D065
:100CF00000F026FB01E000F038FBC9E90001C9F86B
:100D000008200AB0BDE8F087A4640000007B00F072
:100D1000800070474FF0000200B513469446964697
:100D2000203922BFA0E80C50A0E80C50B1F12001FE
:100D3000BFF4F7AF090728BFA0E80C5048BF0CC0AC
:100D40005DF804EB890028BF40F8042B08BF70470A
:100D500048BF20F8022B11F0804F18BF00F8012B7C
:100D600070470000004870472C0100207546FFF7CF
:100D7000F9FFAE4605006946534620F00700854658
:100D800018B020B5FFF71EFABDE820404FF000066E
:100D90004FF000074FF000084FF0000B21F0070163
:100DA000AC46ACE8C009ACE8C009ACE8C009ACE8A6
:100DB000C0098D46704710B50446AFF30080204649
:100DC000BDE81040FFF7E9B94FF0013C50F8042BA3
:100DD00051F8043B9A4221D1A2EB0C03934313EA4E
:100DE000CC1317D150F8042B51F8043B9A4215D17B
:100DF000A2EB0C03934313EACC130BD150F8042B52
:100E000051F8043B9A4209D1A2EB0C03934313EA35
:100E1000CC13DBD04FF00000704700BFD01A01BAEE
:100E2000B1FA81F101F0180122FA01F0CB40C1F1D1
:100E30002001DBB2C0B2C01A2CFA01F3D11A9143DF
:100E400011EAC311E6D170475FEA400C08BF91F088
:100E5000000F4FEA8C234FEAC12243EA51514FEA77
:100E60001C5018BF00F5F0404FEA300018BF41F0A9
:100E700000415FEA6C5C00F02980BCF1FF3F08BFD5
:100E800040F080407047130C06BF12044FF0100C66
:100E90004FF0000C130E04BF12020CF1080C130FDC
:100EA00004BF12010CF1040C930F04BF92000CF16B
:100EB000020CD30F04BF52000CF1010C11464FF08D
:100EC0000002A0F11F00A0EB0C00704711F0004FD2
:100ED00008BF704731F000413FF4D5AF0B0C06BF9F
:100EE00009044FF0100C4FF0000C0B0E04BF090268
:100EF0000CF1080C0B0F04BF09010CF1040C8B0F53
:100F000004BF89000CF1020CCB0F04BF49000CF1A7
:100F1000010CCCF12003A0EB0C0022FA03F302FA3F
:100F20000CF241EA030100F10100704720F07F4C10
:100F300080EA030023F07F47ACEB070303F57C5303
:100F400000F0004003F1FF032DE980494FEA154B03
:100F500009B44FEA144325EA0B4E24EA03480FF282
:100F6000042606EB132749083E785FEA320203FBAA
:100F70000667C7F5000707FB06F64FEA54374FEA46
:100F8000D64606F1020607FB066CCCF1005C4FEA80
:100F90001C472CEA074C07FB06F40CFB06F504EB98
:100FA00015464FEA961634BF00204FF000404FEA36
:100FB000D13706FB07FC4FEA1C4C0CFB0BF7D21B8E
:100FC00003FB0CF761EB07010CFB0EF7B0EB0740DE
:100FD00072EB17420CFB08F734BFA2EB0742B2EBEF
:100FE000074261EB17414FEA0C444FEA910706FBB9
:100FF00007FC4FEA1C4C0CFB0BF7B0EBC74072EB45
:10100000573203FB0CF734BFA2EBC742B2EBC74227
:1010100061EB57310CFB0EF7B0EBC70072EB577268
:101020000CFB08F734BFA2EBC702B2EBC70261EBBF
:101030005771039F4FEA816141EA921104EBCC049E
:101040004FEAD1374FEA826206FB07FC42EA901270
:101050004FEA80604FEA1C4C0CFB0BF7D21B03FBE2
:101060000CF761EB07010CFB0EF7B0EB074072EBDE
:1010700017420CFB08F734BFA2EB0742B2EB074262
:1010800061EB17414FEA8C554FEA910704EB9C2422
:1010900006FB07FC4FEA1C4C0CFB0BF7B0EBC74000
:1010A00072EB573203FB0CF734BFA2EBC742B2EB33
:1010B000C74261EB57310CFB0EF7B0EBC70072EB88
:1010C00057720CFB08F734BFA2EBC702B2EBC702A2
:1010D00061EB577115EB4C254FEA816141EA9211A2
:1010E0004FEA82624FEAD13742EA901206FB07FCD0
:1010F00044F100044FEA80604FEA1C4C0CFB0BF7F4
:10110000D21B03FB0CF761EB07010CFB0EF7B0EBF6
:10111000074072EB17420CFB08F734BFA2EB074203
:10112000B2EB074261EB174115EB1C154FEA813119
:1011300041EA92414FEA823242EA90424FEA8030DD
:101140004FEA0C7644F1000448EA03434EEA0B48A8
:101150004FF0000EB2EB080C71EB030724BF6246A0
:1011600039464EEB0E0E4FF0000B0018524149412C
:101170004BEB0B0BB2EB080C71EB03077BF1000B95
:1011800024BF624639464EEB0E0E4FF0000B00189E
:10119000524149414BEB0B0BB2EB080C71EB0307CF
:1011A0007BF1000B24BF624639464EEB0E0E51EA2E
:1011B000020718BF46F0010616EB0E7655F1000245
:1011C00054F1000103D5BDE88901BDE80088BDE800
:1011D0008901BDE80048B619524141EB0101A3F174
:1011E0000103704780807F7E7D7C7B7A797877767B
:1011F00076757473727171706F6E6E6D6C6C6B6AF4
:101200006A69686867666665646463636261616091
:10121000605F5F5E5E5D5D5C5C5B5B5A5A5959580E
:101220005857575656555555545453535252525178
:10123000515050504F4F4F4E4E4D4D4D4C4C4C4BCE
:101240004B4B4A4A4A494949484848474747474615
:101250004646454545444444444343434342424251
:1012600042414141002B9C4630D477002BD01CB525
:101270004FEA370703B44FF010004FF01001BAF1F6
:10128000000F06D0BCF1000FDCBF40F0080040F0BA
:1012900008014FF000000FBCBDE810400BF1010B3E
:1012A000BBF1010F08BF5FEA170722BF12F101026D
:1012B00011F101014FF0004143F1000300F0004043
:1012C00043EA00007047F9D35708D0E746EA0646DC
:1012D00013F1400F4FEA16461FDD13F1200FDFBF59
:1012E00016430A46002120335B42BED0C3F12007DB
:1012F00046EA064602FA07F74FEA164646EA0706A6
:10130000C3F1200722FA03F201FA07F721FA03F1E9
:101310004FF0000342EA0702A7E746EA020646EA60
:1013200006464FEA164646EA0106BCBF46EA0646AE
:10133000360C4FF000034FF000024FF0000194E72D
:101340002DE9804C9A46934670B491E8380007C85E
:1013500031EA400C48BF34EA430C03D5FFF7E6FD01
:10136000FFF780FFF0BCBDE8008C2DE9804C9A4669
:10137000934670B491E8380007C810F0804F08BF5A
:1013800013F0804F03D100F005F8FFF76BFFF0BCBE
:10139000BDE8008C20F07F4780EA030023F07F4CFB
:1013A00007EB0C03A3F57C5300F00040A3F1FE0310
:1013B00092F0000F00F0B38095F0000F00F07780FE
:1013C0002DE901494FEA11404FEA144621EA00484D
:1013D00000FB06FC24EA064708FB06F607FB08F8B4
:1013E00000FB07F718EB06484CEB164C4FEA124B84
:1013F00018EB07484FEA15464CEB174022EA0B4E14
:101400000BFB06FC25EA06470EFB06F607FB0EFE65
:101410000BFB07F71EEB064E4CEB164C4FF000068D
:101420001EEB074E4CEB174B18EB0B0840F100007E
:1014300018EB0E0B58EB000840F100008F1A4FF02C
:1014400000013CBFC943661B14BFB5EB040C00216F
:101450003CBFC943F61B4FEA17444EEA8E0E27EAFB
:1014600004454FEA1C4704FB07622CEA074C05FBC6
:1014700007F70CFB05F604FB0CFC16EB074642EBEA
:10148000174216EB0C4642EB1C421BEB060658EBD0
:101490000202414146EA9E0601D5BDE80189B6191E
:1014A000524141EB0101A3F10103BDE801894FEA7B
:1014B00014454FEA114724EA054621EA074C05FB8B
:1014C00007F406FB07F70CFB06F105FB0CFC11EB20
:1014D000074144EB17444FEA124711EB0C4144EB30
:1014E0001C4422EA074C05FB07F206FB07F70CFB3E
:1014F00006F605FB0CFC16EB074642EB174216EB13
:101500000C4642EB1C456A1854F1000148BF704775
:10151000B619524141EB0101A3F10103704795F067
:10152000000F37D04FEA11424FEA144721EA024632
:1015300024EA074C02FB07F106FB07F70CFB06F455
:1015400002FB0CFC14EB074441EB17414FEA154733
:1015500014EB0C4441EB1C4125EA074C02FB07F558
:1015600006FB07F70CFB06F602FB0CFC16EB074626
:1015700045EB174516EB0C4645EB1C42121951F191
:10158000000148BF7047B619524141EB0101A3F178
:10159000010370474FEA14454FEA114724EA054614
:1015A00021EA074C05FB07F106FB07F70CFB06F2E7
:1015B0004FF0000605FB0CFC12EB074241EB174114
:1015C00012EB0C4251EB1C4148BF7047921841EBA3
:1015D0000101A3F101037047FEE770472DE9F041D7
:1015E0000022CC7804F00F03E40601D58C78234365
:1015F0000C784FF00F0714F0FF0F4FF0010C1CD0C8
:1016000005680CFA02F40E882640A64211D1960015
:1016100007FA06F825EA080503FA06F848EA050578
:10162000CE78282E02D0482E02D002E0446100E09D
:101630000461521C082AE4D305600A88FF2A1ED9D7
:101640004568002202F108060CFA06F40E882640CE
:10165000A64210D1960007FA06F825EA080503FA13
:1016600006F848EA0505CE78282E00D14461CE78E8
:10167000482E00D10461521C082AE3D34560BDE81E
:10168000F0810000F0B5154C002801DAE36900E0B4
:101690006368C0F30346420D120185B2C0F30157DF
:1016A0009540032F07D0C2020CD50322B2409343CA
:1016B00043F0706209E023F07062636823F07063A6
:1016C000636002E0AB4343F0706201B12A4300283B
:1016D00001DAE261F0BD6260F0BD0000000001408F
:1016E00001617047002A01D0016170474161704774
:1016F000FEE7000070B50A4C002525600948016826
:1017000021F470410160016841F44051016065605D
:1017100000F00AF80120206000F006F8256070BD96
:10172000A8812142040C0140022001F0C7B800004A
:1017300038B50121082000F093FB4FF44064ADF868
:10174000004010208DF8030003208DF80200054DA5
:1017500069462846FFF742FF21462846FFF7C0FFAB
:1017600038BD0000000C014070B50A4C0025256012
:101770000948016821F470410160016841F4405159
:10178000016001266660FFF7CFFF2660FFF7CCFF00
:10179000256070BDA8812142040C01402DE9F0476D
:1017A000814600241548016821F4704101600168F8
:1017B00041F4004101600025114E00274FF001085F
:1017C000C6F8A871FFF7B0FFC6F8A8816006040E3E
:1017D000D6F82C0108B1641CE4B2FFF7A5FF6D1C1C
:1017E000EDB2082DECD3B9F1000F04D0FFF782FF62
:1017F0002046BDE8F087FFF7B7FFF9E7040C01408A
:10180000008021422DE9F04105461148016821F48C
:1018100070410160016841F4405101600D4E4FF08C
:101820000008C6F8A88100240127E809C6F8AC0121
:101830006806050EC6F8A871FFF776FFC6F8A881FE
:10184000FFF772FF641CE4B2082CEED3BDE8F08110
:10185000040C01400080214270B50A48016821F45F
:1018600070410160016841F440510160064C012063
:1018700060602060FFF758FF00256560FFF754FFA8
:10188000256070BD040C0140A881214210B50B48B1
:10189000016821F470410160016841F44051016028
:1018A000074C002020606060FFF73EFF01202060B1
:1018B0006060BDE81040FFF737BF0000040C014036
:1018C000A881214270B500241148016821F47041BB
:1018D0000160016841F4004101600E4D0126C5F828
:1018E000AC61FFF721FFC5F8A861FFF71DFF07E016
:1018F000641CE4B2FA2C03D9FFF7C8FF012070BDC5
:10190000D5F82C010028F3D1C5F8A80170BD00005E
:10191000040C01400080214208B50121084600F076
:101920009FFA0121042000F09BFA4FF40040ADF82B
:10193000000010208DF8030003208DF80200694696
:101940002148FFF74BFE01212048FFF79BFE20496D
:1019500000200860FFF7ECFE80216B2000F0C7F844
:10196000642000F091FF00216B2000F0C0F80320FC
:1019700000F08AF8002000F082F8322000F0A1F890
:101980000021382000F0B3F800216A2000F0AFF801
:101990000021232000F0ABF88021372000F0A7F8C9
:1019A000752000F017F8682801D0012008BD01213A
:1019B0006B2000F09CF800216C2000F098F8322099
:1019C00000F07FF8002008BD000801400002300050
:1019D000BC01214210B50446FFF73EFFD020FFF7BF
:1019E00011FFFFF76FFF2046FFF70CFFFFF76AFFBD
:1019F000FFF732FFD120FFF705FFFFF763FF00205D
:101A0000FFF7CCFE0446FFF741FF204610BD2DE94D
:101A1000F04106460F4615461C46FFF71DFF7006AF
:101A2000000EFFF7EFFEFFF74DFF20B1FFF72EFF8F
:101A30000120BDE8F0813846FFF7E4FEFFF742FFE2
:101A4000FFF70AFF012000EB4600C0B2FFF7DAFE05
:101A5000FFF738FF08E0012D0CD00120FFF79EFEB4
:101A600020706D1EEDB2641C002DF4D1FFF70EFF47
:101A70000020DEE70020FFF791FE2070F1E7C006AE
:101A8000010E1C2000F033B8C006010E1B2000F030
:101A90002EB8BC2801D3012110E0622801D3022115
:101AA0000CE02A2801D3032108E0142801D30421E3
:101AB00004E00A2801D3052100E006211A2000F0E5
:101AC00016B810B504464FF47A70844200D9044623
:101AD000042C00D20424B0FBF4F0401EC1B2192043
:101AE00000F005F86008BDE81040FFF7D2BF70B500
:101AF00005460C46FFF7B0FED020FFF783FEFFF748
:101B0000E1FE18B1FFF7C2FE012070BD2846FFF7C5
:101B100079FEFFF7D7FE2046FFF774FEFFF7D2FEEF
:101B200018B1FFF7B3FE012070BDFFF7AFFE002034
:101B300070BD2DE9F04104460F4616461D46FFF7DD
:101B40008BFE6006000EFFF75DFEFFF7BBFE20B1C7
:101B5000FFF79CFE0120BDE8F0813846FFF752FEFA
:101B6000FFF7B0FE00240BE0285DFFF74BFEFFF708
:101B7000A9FE18B1FFF78AFE0120ECE7641CE4B26D
:101B8000B442F1D3FFF782FE0020E4E7FEE770479E
:101B900070B500250021284600F0EEF80024002052
:101BA00000F04CF9641CE4B2802CF8D36D1CEDB24B
:101BB000082DEFD370BD0000F8B50121082000F01A
:101BC0004FF914208DF8030003208DF802004FF424
:101BD0008074ADF800400B4E69463046FFF7FEFCBE
:101BE0006500ADF8005069463046FFF7F7FC01226A
:101BF00021463046FFF776FD012229463046FFF7A1
:101C000071FDF8BD000C01402DE9F04707460024A6
:101C1000134D4FF080094FF40078AE1529FA04F205
:101C20003A4041462846FFF75DFD012231462846ED
:101C3000FFF758FD002231462846FFF753FD641C8C
:101C4000E4B2082CEAD3012231462846FFF74AFDC8
:101C500031462846BDE8F0470022FFF743BD0000AB
:101C6000000C014070B501220B4D5402214628465C
:101C7000FFF738FD0122160231462846FFF732FDF4
:101C8000002221462846FFF72DFD31462846BDE8B3
:101C900070400022FFF726BD000C014070B50A4DD0
:101CA0004FF40074002221462846FFF71BFD012255
:101CB00011022846FFF716FD21462846BDE8704070
:101CC0000122FFF70FBD0000000C014010B50021FC
:101CD0004FF47A720020401C9042FCD3491C914280
:101CE000F8D3FFF769FFAE2000F097F8D52000F099
:101CF00094F8802000F091F8A82000F08EF83F20A2
:101D000000F08BF8D32000F088F8002000F085F870
:101D1000402000F082F8A12000F07FF8C82000F0F9
:101D20007CF8DA2000F079F8122000F076F88120B3
:101D300000F073F8CF2000F070F8D92000F06DF8B3
:101D4000F12000F06AF8DB2000F067F8302000F0A6
:101D500064F8A42000F061F8A62000F05EF88D2061
:101D600000F05BF8142000F058F8AF2000F055F8B0
:101D7000BDE81040FFF70CBF10B50C4640F0B000B6
:101D800000F04BF8102040EA141000F046F804F080
:101D90000F00BDE8104000F040B800002DE9F04110
:101DA0001546491E461ECF007006F9B2000EFFF719
:101DB000E3FF00240E48203D00EB0515285D00F0F0
:101DC0003DF8641CE4B2082CF8D3012000EB460077
:101DD000F9B2C0B2FFF7D0FF00242819007A00F052
:101DE0002DF8641CE4B2082CF7D3BDE8F0810000A4
:101DF000265D00082DE9F04107460D4616460024F1
:101E000006E02819C1B23846FFF7C8FF641CE4B2E7
:101E1000325D002AF5D1BDE8F08110B50446FFF728
:101E200021FF7820FFF7F0FE0020FFF7EDFE2046AF
:101E3000FFF7EAFEBDE81040FFF730BF10B50446DB
:101E4000FFF710FF7820FFF7DFFE4020FFF7DCFEF2
:101E50002046FFF7D9FEBDE81040FFF71FBF7047CF
:101E6000054A002903D09169014391617047916946
:101E7000814391617047000000100240704700F0FC
:101E800001B800000CB500220192009227480168B9
:101E900041F4803101604FF4A063016801F4003126
:101EA00000910199491C0191009911B90199994238
:101EB000F3D10168890302D50121009100E000926D
:101EC0000099012930D11A490A6842F010020A60CB
:101ED0000A6822F003020A600A6842F002020A60FD
:101EE0004168416041684160416841F480614160FE
:101EF000416821F47C114160416841F4E81141607E
:101F0000016841F08071016001688901FCD5416878
:101F100021F003014160416841F0020141604168E4
:101F2000C1F381010229FAD10CBD0000001002406A
:101F3000002002404FF0E021042804D0086920F07E
:101F4000040008617047086940F0040008617047A8
:101F50007047000010B50F48016841F001010160B1
:101F600041680D4A1140416001680C4A114001600E
:101F7000016821F480210160416821F4FE01416083
:101F80004FF41F018160FFF77AFF05494FF00060B1
:101F9000086010BD001002400000FFF8FFFFF6FED1
:101FA00008ED00E070B5164C40F22551204600F0D7
:101FB0002DF800280ED0204600F048F8C1B2114A92
:101FC0001088030406D444044FF0000307D50A29FF
:101FD00001D0138070BD40F40040108070BD0D2909
:101FE0000AD0094DC0F30D042955401C80B2108061
:101FF000C728F3D9138070BD40F48040108070BDB5
:10200000003801404E0000206400002070B500241C
:1020100040F66A12C1F3421301F01F05012606FAC9
:1020200005F2012B0CD0022B0DD0838A1340090A34
:102030008E40008830400BB100B10124204670BDB5
:1020400083891340F3E7038A1340F0E78088C0F3E5
:1020500008007047FEE7490050EAC12018BF04207D
:102060004A0D18BF40F0010040F2FF72B2EB515F21
:1020700008BF40F00200012808BF052070472DE985
:10208000F0414F1E00EBC7010446D1E9000115469F
:102090001E4637F006020DD02A46334602F0CAFF2C
:1020A0007F1E04EBC703D3E9002302F073FD37F072
:1020B0000602F1D1022F25D0042F13D0062F18BF0E
:1020C000BDE8F0812A46334602F0B4FFD4E90A2382
:1020D00002F060FD2A46334602F0ACFFD4E9082343
:1020E00002F058FD2A46334602F0A4FFD4E9062345
:1020F00002F050FD2A46334602F09CFFD4E9042347
:1021000002F048FD2A46334602F094FFD4E9022348
:1021100002F040FD2A46334602F08CFFD4E900234A
:10212000BDE8F04102F036BD012203F090BD02F09F
:1021300031BD002213461046114602F0E7BD0000F3
:10214000024A0020110703F082BD000001FDFFFFDD
:1021500030380A2801D201207047002070477047AC
:102160002DE9FE4F074688460025684601F0FCF839
:1021700000246FF00F0AE946012657F8240058F8AA
:102180002410401A00D5404203F0C0FB514603F032
:102190008CFD59F8241011F0FF4F0ED003F0B8FA5F
:1021A0004FF07E5103F0AAFC20F000400A4988421B
:1021B0000BDD06FA04F0054307E008490844084926
:1021C000884202D306FA04F00543641C032CD4DBD6
:1021D0002846BDE8FE8F0000295C0F3E666666C19A
:1021E0009A99D9002DE9F04D8D4F21F0004A86B023
:1021F00005460C46BA452ADBAAEB070028430AD05D
:102200008848824501DC1AD1CDB106B02846BDE828
:10221000F04DFFF789BF844A844B284602F00AFF3D
:1022200007460E46824A834B2846214602F002FFAB
:1022300006B03A463346BDE8F04D02F0ABBC012093
:10224000FEF7A4F906B0BDE8F04DFFF772BF7A487B
:10225000824542DABAF1795F0BDA2846FFF7FBFED6
:10226000042808BFFFF76CFF284606B02146BDE8EA
:10227000F08D2A460B46104602F0DCFE83460246ED
:102280006E480E460B4606217844FFF7F8FE5A4684
:10229000334602F0CFFE804669488A465A463346A6
:1022A00004217844FFF7EBFE5A46334602F0C2FEA3
:1022B00000223B4602F06EFC02460B464046514669
:1022C00002F024FD2A46234602F0B4FE06B02A4658
:1022D0002346BDE8F04D02F05DBC284624F00041E5
:1022E00000223D463B4602F0A3FF4FF0FF3203F0D1
:1022F000AEFC0646024653480F460B46062178447C
:10230000FFF7BDFE32463B4602F094FECDE90001E8
:102310004D4832463B4604217844FFF7B0FE324632
:102320003B4602F087FE00222B4602F033FC834638
:1023300002913046394602F0BFFB804643480D46C5
:10234000504517DCDDE900015A46029B02F0DEFC35
:1023500042462B4602F06EFE42462B4602F01AFC25
:10236000012203F074FC304A304B03F053F8304A3A
:10237000304B4CE04FF0000A52460B46404602F00C
:1023800009FCCDE9031052462B461046194602F0CF
:1023900051FE32463B4602F04BFFDDE9033202F0CC
:1023A000B5FC06460F46DDE900015A46029B02F0E5
:1023B000ADFC8346009101223046394603F047FCCC
:1023C000194A1A4B02F034FF06460F4601224046D6
:1023D000294603F03CFC5A46009B02F02BFE324695
:1023E0003B4603F017F806460F46012250462946A1
:1023F00003F02DFC0E4DDFF858802A46434602F0CC
:1024000017FF32463B4602F013FF2A46434602F0CE
:102410000FFF002CD8BF81F0004106B0BDE8F08D61
:102420000000F03F0000F07F075C143326A6913CCB
:10243000182D4454FB21F93F0000E03FE44C00001C
:10244000FA4C00006E4C0000844C00003333EF3F28
:10245000FB21E93F2DE9F84F04460D4621F00040ED
:1024600000917349814211DC7249884201DC06D136
:102470002CB120462946BDE8F84FFFF755BE6E48FF
:10248000002DCCBF6D496E49BDE8F88F6D49814282
:1024900011DD6D498142D8BF4FF0FF366DDD20461A
:1024A0002946FFF7D8FD042808BFFFF749FE20465C
:1024B0002946BDE8F88F6549654F25F00045814202
:1024C00033DD6449814219DD002632464FF08043F6
:1024D0002046294602F05EFB80468A4601222046BD
:1024E000294603F0B4FB00223B4602F093FF42462C
:1024F000534602F00BFC04460D463EE00126002246
:10250000BA463B462046294602F044FB80460F4629
:10251000002253462046294602F07CFF42463B46B5
:1025200002F0F4FB04460D4627E04B4981421BDDD7
:10253000DFF828A10226002253462046294602F051
:1025400079FD00223B4602F025FB80460F46002223
:1025500053462046294602F05DFF42463B4602F0C4
:10256000D5FB04460D4608E0032622462B460020F4
:102570003B4902F0CBFB04460D4622462B46104653
:10258000194602F057FD8B46824602460B4602F082
:1025900051FD07460246334888460B4606217844DB
:1025A000FFF76DFD52465B4602F044FD82462E4821
:1025B0008B463A46434605217844FFF760FD3A468C
:1025C000434602F037FD02460B46002E5046594660
:1025D0000CDA02F0DFFA22462B4602F02BFD01B0A6
:1025E00022462B46BDE8F04F02F022BE02F0D2FA9E
:1025F00022462B4602F01EFD1C4A7A4402EBC6031B
:10260000D3E9002302F006FF22462B4602F002FF28
:10261000174A7A4402EBC603D3E9002302F008FE0E
:10262000009A002AB8BF81F00041BDE8F88F000091
:10263000000010440000F07F182D4454FB21F93FA6
:10264000FB21F9BF0000DC3F0000203E0000F33F0B
:102650000000F03F0000E63F008003400000F83F2C
:102660000000F0BF864A0000444A0000E249000032
:10267000AA4900002DE9F04D9446CCF1000423F066
:1026800000464CEA0404594F46EAD4749A468846F8
:1026900021F00042BC4206D8454240EA050442EA25
:1026A000D474BC4204D9BDE8F04D6246FFF73FBD8B
:1026B000AAF14055A5F17F6555EA0C040BD0022420
:1026C00004EAAA744A4DDFF82CE144EAD87452EACD
:1026D000000B04D00CE0BDE8F04DFFF7BBBE002CB2
:1026E00014BF012CBDE8F08D022C30D0032C32D069
:1026F00056EA0C0B0AD0BE4220D1BA4209D126F0CC
:10270000804622F080423346114617E000291ADB4A
:1027100025E0DFF8E4B0FB44002C04BFDBE9000156
:10272000BDE8F08D012C02BFDBE9000181F0004122
:10273000BDE8F08D022C0AD0032C0CD0BA4212D185
:10274000B8F1000F0BDA2A482C49BDE8F08D284675
:102750002B49BDE8F08D28467146BDE8F08D244830
:102760002849BDE8F08D921B12153C2AC4BF204FAA
:10277000244E10DCBAF1000FBEBF12F13C0F00274F
:102780003E4608DB624602F0C1FA21F00041FFF745
:1027900061FE07460E4694B1012C08BF86F0004644
:1027A0000DD0194A194B022C3846314615D002F08B
:1027B00031FE2A46BDE8F04D114B02F02BBE00223F
:1027C00013463846314602F0F9FB04BF0220FDF7FC
:1027D000DDFE38463146BDE8F08D02F01BFE2A468C
:1027E000BDE8F04D064B02F023BD00000000F07F75
:1027F000182D4454FB2109C03E490000FB21F9BFBC
:10280000FB210940FB21F93F075C143326A6A13CBC
:1028100070B50446E07800F0C00500F03F00617834
:10282000094EC90707D0C30800F00701491C3268E8
:102830000AB1184690476078000703D5716809B15E
:10284000A8098847002070BD5400002010B56FF023
:102850000400FFF76FFB094809490068B0FBF1F07D
:102860000849C0B2087000EB4002C2EBC0104FF63E
:10287000FF7202EAC000488010BD00000000002086
:1028800000127A004A0000200B49498848434FF063
:10289000E021486100238B61086940F00100086174
:1028A0000869C20701D0C003FAD5086920F0010009
:1028B00008618B61704700004A0000200B490978CD
:1028C00048434FF0E021486100238B61086940F0E4
:1028D000010008610869C20701D0C003FAD5086980
:1028E00020F0010008618B61704700004A00002061
:1028F00008B500280CD020208DF8000028208DF885
:10290000010030208DF8020038208DF8030004E02B
:10291000A32204216846FDF7B1FD6A46042140F672
:102920009E2002F017F801F09BFC08BD3EB504465E
:1029300002208DF80000CA208DF80100E3208DF8F8
:10294000020009208DF803006A460421682002F085
:1029500001F8A3208DF80000610609D5C0218DF88B
:102960000110C8218DF80210C2218DF8031005E076
:102970008DF801008DF802008DF8030014F4C07F7B
:1029800009D0C4218DF80410CC218DF80510C62182
:102990008DF8061005E08DF804008DF805008DF81F
:1029A00006008DF807008DF808008DF809006A46CA
:1029B0000A2140F6A72001F0CDFFA0074FF0D8056F
:1029C00003D020208DF8000001E08DF800506A4609
:1029D000012140F6B62001F0BDFFA00603D501207D
:1029E00000F09AF802E0002000F096F814F4C07F9E
:1029F00020D0E0050CD5B2208DF800008B208DF89A
:102A00000100B6208DF802009B208DF803000BE03A
:102A1000B0208DF8000080208DF80100B4208DF8E2
:102A2000020090208DF803006A46042140F6A2209F
:102A300001F090FFE0074FF40B6323D0F8208DF8EE
:102A400000006A460121184601F084FFFA210720A0
:102A500000F0ACFB072000F07BFB012000F094FBB2
:102A6000642000F055FC4FF4FA7000F061FCC821BE
:102A7000274800F035FB282000F04AFB0A2000F030
:102A800057FB06E08DF800506A460121184601F018
:102A900061FFA00703D5D9208DF8000001E08DF873
:102AA00000506A46012140F23D7001F053FF60077B
:102AB00003D5012000F05CF802E0002000F058F897
:102AC000E00603D50120FFF713FF02E00020FFF727
:102AD0000FFF104D44F00800688101F0C1FB002099
:102AE000A873600601D50620A87314F4C07F02D035
:102AF000A87B801DA87314F0140F02D0A87B10309F
:102B0000A873A00702D0A87B001DA87300203EBDBB
:102B100009E3CA02540000200EB54FF49763002861
:102B20000CD00DA0D0E900128068CDE9001202900F
:102B30006A460921184601F00DFF0EBD09A0D0E933
:102B400000128068CDE9001202906A4609211846F9
:102B500001F000FF0EBD0000B8AAB38DB4980D358A
:102B60005D000000B8AAAAAAB088C3C5C7000000CB
:102B700008B500280CD0C0208DF80000C2208DF8C8
:102B80000100C4208DF80200C6208DF8030004E087
:102B90008B2204216846FDF771FC6A46042140F649
:102BA000982001F0D7FE01F05BFB08BDC8234FF46D
:102BB0008062024940F6F63001F002BA686300080C
:102BC0002DE9FF4F8DB01646DDE91A5207468846BB
:102BD0000024A146A5F80090DFF864B105A99BF890
:102BE0000E0001F0AFFA4FF0FF3A18B1504611B0A5
:102BF000BDE8F08FBBF80A3013F0140F61D09DF8D8
:102C000017009DF814109DF8162040EA01609DF809
:102C10001510090441EA0221084330609DF81B1099
:102C20009DF818209DF81A4041EA02619DF819208C
:102C3000120442EA0422114371609DF81F209DF89E
:102C40001C409DF81EC042EA04629DF81D40240409
:102C500044EA0C242243B2609DF823409DF820C032
:102C60009DF822B044EA0C6C9DF82140240444EA0B
:102C70000B244CEA040CC6F80CC01024001401907C
:102C800008140290101403904FEA2C40049001980D
:102C90000299404301FB01010398049A404302FB5F
:102CA00002000844A0F17060B0F1007F05D901F086
:102CB000D7FAA5F80090504699E7288840F480702C
:102CC0002880590605A818D50219065D517841EAF1
:102CD0000621A8F80010D178967841EA0621A8F8D4
:102CE00002105179127941EA0221A8F80410A41DBA
:102CF000E4B2298841F00801298013F4C07F15D07F
:102D00000119065D4A7842EA06223A80CA788E782E
:102D100042EA06227A804A79097942EA0121B98099
:102D2000A41DE4B2298841F070012980990702D0DE
:102D30002044FFF76DFD109800F05CFE002056E780
:102D40005400002030B587B00446684600F0C0FF4C
:102D5000BDF80000420CC1033C48038903F00300A6
:102D600054F820000490580702D50498404204907B
:102D7000C3F3C10054F820000590980602D50598C9
:102D800040420590C3F3811054F820000690D80506
:102D900002D50698404206900498A0FB0145C3174F
:102DA00003FB015300FB0230830043EA947004905C
:102DB0000598A0FB0145C31703FB015300FB02303C
:102DC000830043EA947005900698A0FB0145C31761
:102DD00003FB015100FB0210810041EA9470069050
:102DE0000498000E8DF804000498000C8DF805007E
:102DF0000498000A8DF8060004988DF807000598DD
:102E0000000E8DF808000598000C8DF80900059853
:102E1000000A8DF80A0005988DF80B000698000E40
:102E20008DF80C000698000C8DF80D000698000A2D
:102E30008DF80E0006988DF80F0001AA0C214FF4B2
:102E4000257001F087FD07B030BD00005400002060
:102E500030B585B0044616A1D1E900028968CDE9F4
:102E6000032102904FF0FF35C82C02D9284605B047
:102E700030BDC820B0FBF4F1491E080A8DF80000EF
:102E80008DF801106A46022140F2162001F062FD21
:102E900008B12846EBE702AA0C2140F6C12001F058
:102EA00059FD08B12846E2E7044884810020DEE7A6
:102EB000FEF2ABC4AAF1DFDFBBAFDFDF54000020BE
:102EC0001FB53F49098901F0030250F82220019201
:102ED0004A0702D5019A52420192C1F3C10250F849
:102EE000222002928A0602D5029A52420292C1F32D
:102EF000811250F822000390C80502D50398404281
:102F000003903048019981FB00218B0043EA9271C4
:102F10000191029981FB00218B0043EA9271029199
:102F2000039981FB0001800F40EA81000390019822
:102F3000000E8DF800000198000C8DF8010001983A
:102F4000000A8DF8020001988DF803006A460421FA
:102F50004FF4747001F0FEFC4FF0FF3410B12046C6
:102F600004B010BD0298000E8DF800000298000C0D
:102F70008DF801000298000A8DF8020002988DF881
:102F800003006A4604214FF4757001F0E3FC08B1B8
:102F90002046E5E70398000E8DF800000398000C2A
:102FA0008DF801000398000A8DF8020003988DF84F
:102FB00003006A4604214FF4767001F0CBFCCFE7A2
:102FC0005400002009E3CA0230B587B004463FA090
:102FD000006804903EA0006803903EA00068029044
:102FE0003DA00068019004F0030004AB195C8DF86B
:102FF0001810C4F3C102995C8DF81910C4F3811143
:103000005B5C8DF81A3003AB185C8DF81400985C8B
:103010008DF81500585C8DF8160006AA032140F2C1
:10302000264001F097FC4FF0FF3510B1284607B05D
:1030300030BD05AA032140F22A4001F08BFC08B103
:103040002846F4E7029806900198059060070BD592
:103050009DF8180040F001008DF818009DF814004C
:1030600040F001008DF81400A0060BD59DF8190062
:1030700040F001008DF819009DF8150040F00100A6
:103080008DF81500E0050BD59DF81A0040F0010001
:103090008DF81A009DF8160040F001008DF816001A
:1030A00006AA03214FF4886001F054FC08B12846B9
:1030B000BDE705AA032140F2314001F04BFC08B105
:1030C0002846B4E7054804810020B0E74CCD6C00E9
:1030D0000CC92C00365676002646660054000020A7
:1030E00008B54FF47A7290FBF2F04843010E8DF868
:1030F0000010010C8DF80110010A8DF802108DF8F6
:1031000003006A4604214FF4AE7001F023FC08BDB1
:1031100008B50521B0FBF1F0010A8DF800108DF81B
:1031200001006A4602214FF4AD7001F013FC08BDA6
:1031300008B50521B0FBF1F0010A8DF800108DF8FB
:1031400001006A4602214FF4AC7001F003FC08BD97
:1031500008B500210091C10701D0302100918107FD
:1031600004D59DF8001041F00C010091400704D5F2
:103170009DF8000040F0030000906A4601214FF4E2
:10318000A47001F0E7FB08BD08B500280BD00428A7
:1031900000D90420401E00906A46012140F24F10E1
:1031A00001F0D8FB08BD0120F4E700002DE9FC4147
:1031B0000546084669074FF0FF3602D0B0F5C86FE4
:1031C00002D93046BDE8FC8102F0B8FB4B4902F061
:1031D0009FFA0746684600F059FD9DF80000022856
:1031E00007D0042814D0082821D010282ED030462B
:1031F000E8E70E21384602F058FD02F067FB84B282
:103200003F49384602F0AEFB02F060FB80B22BE093
:103210000D21384602F049FD02F058FB84B23949CD
:10322000384602F09FFB02F051FB80B21CE00C21FB
:10323000384602F03AFD02F049FB84B23249384682
:1032400002F090FB02F042FB80B20DE00B21384609
:1032500002F02BFD02F03AFB84B22C49384602F012
:1032600081FB02F033FB80B2210A8DF804108DF847
:103270000540010A8DF806108DF80700E80701AC3B
:1032800011D001AA02214FF4EA7001F063FB08B1EA
:10329000304697E7A21C02214FF4927001F05AFBCE
:1032A00008B130468EE7A80711D501AA02214FF4D4
:1032B000EC7001F04FFB08B1304683E7A21C0221FD
:1032C0004FF4947001F046FB08B130467AE7680786
:1032D00011D501AA02214FF4EE7001F03BFB08B1B9
:1032E00030466FE7A21C02214FF4967001F032FBCA
:1032F00008B1304666E7002064E70000000048435C
:10330000000040460000C045000040450000C044A9
:1033100008B50521B0FBF1F0010A8DF800108DF819
:1033200001006A4602214FF4EF7001F013FB08BD63
:1033300008B50521B0FBF1F0010A8DF800108DF8F9
:1033400001006A4602214FF4ED7001F003FB08BD55
:1033500004490A885206FCD5024AC1B2121D1180E6
:1033600070470000003801402DE9FC410546264821
:1033700001AB042240680D210078FEF748FB10B134
:103380000720BDE8FC819DF807009DF80420C0F3EC
:10339000011102F0E00241EAD2018DF800109DF81F
:1033A0000520C0F3810102F0E00241EAD2018DF86C
:1033B00001109DF8061000F0030001F0E00140EA62
:1033C000D1008DF8020000246E46305D20B10F4818
:1033D00045F824000E4F0AE0002045F824000CE0D8
:1033E00055F82400394602F0BDFA45F82400305D56
:1033F000401E10F0FF003055F2D1641CE4B2032CE3
:10340000E3D30020BDE70000140000207B14AE3E93
:103410001D5A843F2DE9F04788B005460C46924678
:1034200001208DF8140000278DF81570DFF8B8839F
:1034300005AB0222D8F80000817CD8F8040000789F
:10344000FEF777FB4FF0FF3918B1484608B0BDE8EA
:10345000F087C820FFF718FA8DF81470D8F800002C
:1034600005AB0122C17BD8F804000078FEF761FBB0
:1034700008B14846EAE7D8F8000005AB01224179D7
:10348000D8F804000078FEF754FB08B14846DDE7A1
:10349000D8F8000005AB0122817CD8F80400007840
:1034A000FEF747FB08B14846D0E7D8F8000005AB67
:1034B0000122C17DD8F804000078FEF73AFB08B17C
:1034C0004846C3E7D8F8000005AB01220179D8F8D7
:1034D00004000078FEF72DFB08B14846B6E70C263D
:1034E0008DF81460D8F8000005AB01220179D8F8F6
:1034F00004000078FEF71DFB08B14846A6E70F2040
:10350000FFF7C2F9D8F82800407A8DF81400D8F8EF
:10351000000005AB01228178D8F804000078FEF79E
:1035200008FB08B1484691E7D8F82800007A8DF8E2
:103530001400D8F8000005AB01224178D8F8040047
:103540000078FEF7F6FA08B148467FE7BAF1000FB7
:1035500007D0D8F82800807A40F0E0008DF81400F9
:1035600004E0D8F82800807A8DF81400D8F800001C
:1035700005AB01228179D8F804000078FEF7D9FA6A
:1035800008B1484662E7BAF1000F07D0D8F8280022
:10359000C07A40F0E0008DF8140002E018208DF8A9
:1035A0001400D8F8000005AB0122C179D8F8040056
:1035B0000078FEF7BEFA08B1484647E7BAF1000FB7
:1035C00002D0C820FFF760F940208DF81400D8F829
:1035D000000005AB01220179D8F804000078FEF75D
:1035E000A8FA08B1484631E778208DF81400D8F8D9
:1035F000000005AB01224179D8F804000078FEF7FD
:1036000098FA08B1484621E73220FFF73DF98DF8D6
:103610001470D8F8000005AB01224179D8F80400F5
:103620000078FEF786FA08B148460FE7D8F80000A0
:1036300005AB0222817AD8F804000078FEF7E7F99A
:1036400008B1484602E79DF815009DF8141040EABD
:103650000120B0FBF6F0C6B2AF606F602F60A760CC
:1036600067602760002756E0D8F8000005AB0C2201
:10367000C17AD8F804000078FEF7C9F908B14846C5
:10368000E4E69DF815009DF8141040EA012000B210
:10369000ADF80C009DF817109DF8162041EA0221A4
:1036A00009B2ADF80E109DF819209DF8183042EAC5
:1036B000032212B2ADF8102023681844206060681D
:1036C00008446060A0681044A0609DF81B009DF84D
:1036D0001A1040EA012000B2ADF804009DF81D1058
:1036E0009DF81C2041EA022109B2ADF806109DF8B0
:1036F0001F209DF81E3042EA032212B2ADF80820C6
:103700002B6818442860686808446860A8681044FA
:10371000A8607F1CFFB2B742A6D328688322C117D6
:10372000090441EA104100040023FCF75EFD324623
:103730000023FCF75AFD286068688322C11709043A
:1037400041EA104100040023FCF74FFD32460023FC
:10375000FCF74BFD6860A8688322C117090441EAA1
:10376000104100040023FCF740FD32460023FCF723
:103770003CFDA86020684FF40065C117090441EAC8
:10378000104100042A460023FCF72FFD3246002397
:10379000FCF72BFD206060682A46C117090441EA46
:1037A000104100040023FCF720FD32460023FCF703
:1037B0001CFD6060A0682A46C117090441EA104157
:1037C00000040023FCF711FD32460023FCF70DFD39
:1037D000A060002803DDA0F58030A06002E000F5C5
:1037E0008030A060002031E6140000202DE9F84F61
:1037F00081468A4600252F486B46032240680D21EA
:103800000078FEF704F910B10720BDE8F88F9DF8A5
:10381000000000F01F008DF800009DF8010000F08E
:103820001F008DF801009DF8020000F01F008DF8C8
:10383000020000246F464FF0010859F824005AF89E
:103840002410401A00D5404202F060F86FF00F01DA
:1038500002F02BFA0646385DF8B1174ADFF85CB083
:1038600004E05946104602F07DF80246385D401EDD
:1038700010F0FF003855F4D11146304601F048FFF2
:103880004FF07E5102F03AF920F000400C49884296
:103890000BDD08FA04F0054307E00A483044B0F1B4
:1038A000D97F02D908FA04F00543641C032CC4DB59
:1038B0002846AAE7140000200000C84154E3853FD1
:1038C000295C0F3E0000E0BE00B50246104600F045
:1038D0000DF80346D01C00F009F843EAC003901D20
:1038E00000F004F843EA801080B200BD90F90010A7
:1038F000002902DD4FF00000704702DA4FF00400AB
:10390000704790F90110002902DD4FF00100704767
:1039100002DA4FF00500704790F90200002802DD3E
:103920004FF00200704702DA4FF0060070474FF088
:10393000070070470EB5FEF7C9F9FEF787FFFDF7E0
:10394000EBFF1DA41FA522A602E01420FEF79CFF9A
:1039500000F050F90028F8D16A4601A902A800F049
:103960007BF8029801F040FE02460B461BA1204660
:10397000FCF76CFC019801F037FE02460B4619A1DA
:103980002846FCF763FC009801F02EFE02460B4629
:1039900016A13046FCF75AFC012122460846FEF7E4
:1039A00029FA2A4601210220FEF724FA3246012193
:1039B0000320FEF71FFACFE750493A20787878784D
:1039C00078787800524F3A2078787878787878004C
:1039D00059573A20787878787878780050493A20A2
:1039E00025660000524F3A202566000059573A20BC
:1039F00025660000704700002DE9F041002620F008
:103A00000104144D95F82400002802D00020BDE8E0
:103A1000F081A97A4FF0FF3839B12F7C2140297409
:103A2000A14200D0464624B901E04046EFE7287D98
:103A300018B1012001F006F802E0002001F002F8C0
:103A40002CB100F00DFC10B12F744046DFE730467A
:103A5000DDE70000140000202DE9F74F8EB0054689
:103A600006A807A9CDE900100CAB02AA08A90AA86C
:103A7000FFF7A6F818B1012011B0BDE8F08FBDF82E
:103A80001C00C0057ED5029801F040FF6FF01D04B8
:103A9000214602F00AF90646039801F037FF214655
:103AA00002F003F90746049801F030FF214602F0C6
:103AB000FCF88046059801F029FF214602F0F5F850
:103AC00081460121304602F0F0F88346414601F07C
:103AD00049FF82464FF04041384601F043FF04461B
:103AE000494601F03FFF514601F0AAFD01F07CFD7F
:103AF000FEF778FB4FF0663A52463D4B01F09AFADA
:103B000001F016F828600121404602F0CEF8414647
:103B10000D9001F027FF05462046394601F022FFAF
:103B2000294601F0EBFF4FF07E5101F089FD01F0D5
:103B30005BFD04460D465846394601F013FF8346A7
:103B400049460D9801F00EFF594601F079FD01F04C
:103B50004BFD22462B46FEF78DFD5246244B01F0CD
:103B600069FA00F0E5FF0F9908604946484601F000
:103B7000F9FE04464146404601F0F4FE054639464A
:103B8000384600E032E001F0EDFE83463146304633
:103B900001F0E8FE594601F053FD294601F0AEFF61
:103BA000214601F0ABFF01F01FFD04460D464946DA
:103BB000304601F0D7FE06464146384601F0D2FEB7
:103BC000314601F03DFD012102F06FF801F00CFDDE
:103BD00022462B46FEF74EFD5246054B01F02AFACF
:103BE00000F0A6FF10990860002045E7022043E797
:103BF00066A64C4010B5FDF79BFD00F00BF908B12F
:103C00000A2010BD782000F04DFEC0B208B101209E
:103C100010BD7820FFF7F0FEC0B208B1022010BD41
:103C2000642000F0FDFDC0B208B1032010BDFEF716
:103C3000BDFFC0B208B1042010BD1348FFF744FE19
:103C4000FFF7C2F9C0B208B1052010BD40F27310F1
:103C5000FEF76CFEC0B208B1062010BD6420FFF76D
:103C6000F7F8C0B208B1072010BD00F0ABFE08B1F4
:103C7000082010BD012000F0EBFCC0B208B1092003
:103C800010BD002010BD0000400000200F4A517AF6
:103C9000002908D0012909D002290AD003290BD014
:103CA0004FF0FF3070470221017007E004210170DE
:103CB00004E00821017001E010210170D17C11B1F4
:103CC00001784900017000207047000014000020B6
:103CD000114A517A002908D001290AD002290CD0B2
:103CE00003290ED04FF0FF3070474FF48041018020
:103CF0000AE041F69C71018006E04FF4805101809A
:103D000002E04FF400610180D17C11B101884908C3
:103D10000180002070470000140000200249097C47
:103D20000170002070470000140000200E49097A3D
:103D3000002909D001290AD002290CD003290ED06C
:103D40000021018000207047FA210180FAE74FF43A
:103D5000FA710180F6E74FF47A710180F2E74FF4CF
:103D6000FA610180EEE70000140000200C49097A96
:103D7000002908D0012909D002290AD003290BD033
:103D80004FF0FF3070470749016007E006490160C6
:103D900004E00649016001E0054901600020704728
:103DA0001400002000000343000083423333034229
:103DB000333383410F49C97A072917D2DFE801F06D
:103DC0001604070A0D101300BC21018010E06221C7
:103DD00001800DE02A2101800AE01421018007E022
:103DE0000A21018004E00521018001E00021018019
:103DF0000020704714000020054991F82420002A73
:103E000002D04FF0FF307047C98901800020704711
:103E1000140000202DE9FC4180208DF80000544C56
:103E20006B4601222068817C60680078FDF781FE86
:103E30004FF0FF3610B13046BDE8FC816420FEF73C
:103E400023FD00258DF8005020686B460122817CFF
:103E500060680078FDF76DFE08B13046ECE7206839
:103E60006B460622817D60680078FDF7D0FD08B1C1
:103E70003046E1E79DF805009DF80310C007400FAC
:103E800001F0010140EA41019DF8010000F001004C
:103E90000143012761B1012906D0022906D035A0CE
:103EA000FCF7C8F93046C7E7E77414E0E57412E0A0
:103EB00020686B460122C17860680078FDF7A7FD95
:103EC00008B13046B8E79DF8000000F00F0008B3D5
:103ED000042824D0E574FF2104F80A1F04F8021C0A
:103EE00004F8011C61704FF6FF70A080A17121726F
:103EF000A77027766576E572A572E5602561656134
:103F0000A576E576A5834FF4FA6000F0DFFB58B1A3
:103F1000304691E72148FCF78DF930468CE720A028
:103F2000FCF788F9E774D6E7022000F0CBFA08B175
:103F3000304681E72A2000F035FC08B130467BE7A7
:103F4000322000F06DFC08B1304675E70020FFF725
:103F500053FD08B130466FE7002000F0EDFA08B1DC
:103F6000304669E7002000F09DFC002064E7000077
:103F700014000020556E737570706F727465642044
:103F8000736F6674776172652070726F64756374A5
:103F9000207265762025642E0A000000F470000867
:103FA00048616C662073656E7369746976697479AB
:103FB000207061727420666F756E642E0A000000B6
:103FC0002DE9FF4F85B005460E461746DFF8A08065
:103FD0004FF0FF3998F82500002803D0484609B073
:103FE000BDE8F08F0EB1002425E04846F7E7281B16
:103FF000102800DD10201FFA80FA3019834602468F
:104000005146204600F0A6FC08B14846E7E701AA61
:104010005146204600F0ECF808B14846DFE7584624
:10402000524601A9FCF7FEF910B16FF00100D6E786
:1040300004EB0A0084B2AC42D9D3380A8DF80000F0
:104040008DF80170D8F800006B460222817ED8F806
:1040500004000078FDF76DFD08B14846BFE7012078
:1040600088F825000898A8F826000020B7E7000087
:10407000140000202DE9F84304464FF0FF37282CA8
:1040800002D93846BDE8F8832D4D4FF007090026C8
:104090008CB1012000F056FB20208DF800004FF07D
:1040A0000108012C1CD0052C20D88DF8018005209A
:1040B00000F078FB29E0002000F044FB8DF8006060
:1040C0008DF8019028686B460222817C6868007830
:1040D000FDF72FFD08B13846D4E72E750020D1E753
:1040E0008DF80160052000F05DFB0EE0142C06D871
:1040F00002208DF801000A2000F054FB05E00320A7
:104100008DF80100142000F04DFB9DF8010009EB33
:1041100080108DF8010028686B460222817C686857
:104120000078FDF706FD08B13846ABE70820A87215
:104130002E7385F814800020FFF75EFC0020A1E7B5
:10414000140000202DE9F843054689461746274EFE
:104150004FF0FF3896F8240000280DD0B07A68B1EF
:1041600030686B460222817A70680078FDF74FFC58
:1041700030B14046BDE8F8834046FBE74046F9E7EA
:104180009DF801009DF8001040EA0124AC4203D2E2
:10419000002038704046EDE770684188B4EB510F5D
:1041A00012D9316800786B46497C0122FDF72FFC5B
:1041B00008B14046DEE79DF80000C00604D500F0D7
:1041C0004FF86FF00100D5E73068EAB24B46C17A8C
:1041D00070680078FDF71BFC08B14046CAE7B4FBE5
:1041E000F5F0401E38700020C4E7000014000020E5
:1041F0002DE9F8430E4690464FF0FF35B8F1000F19
:1042000010D0164FB97A79B1010A8DF80010C4B2F6
:104210008DF80140A0197C686189884206D928463A
:10422000BDE8F8832846FBE72846F9E738686B467F
:104230000222017E2078FDF77CFC08B12846EFE7DA
:104240003868F2B24346417D78680078FDF7DFFBBD
:1042500008B12846E4E70020E2E70000140000204F
:10426000F8B5594D4FF0FF36A87A00280CD000243D
:10427000009428686B460122C17B68680078FDF7CE
:1042800058FC18B13046F8BD3046F8BD28686B467A
:104290000122417968680078FDF74BFC08B130468F
:1042A000F8BD28686B460122017968680078FDF73F
:1042B00040FC08B13046F8BD95F8240090B30C20BE
:1042C000009028686B460122017968680078FDF744
:1042D00030FC08B13046F8BD3220FEF7D5FAC020D8
:1042E0000090A87AC00701D0E020009028686B46B3
:1042F0000122017968680078FDF71BFC08B130469F
:10430000F8BD687C10B10220009000E0009428689D
:104310006B460122C17B68680078FDF70AFC10B18A
:104320003046F8BD0BE0009428686B4601224179C5
:1043300068680078FDF7FDFBB8B33046F1E704206C
:10434000009028686B460122017968680078FDF7C3
:10435000F0FB08B13046E4E7A87C78B9A87AC0073A
:104360000CD06020009028686B46012201796868B3
:104370000078FDF7DEFB20B13046D2E74020009008
:10438000F1E73220FEF780FA687C10B1012000903E
:1043900000E0009428686B460122C17B68680078C1
:1043A000FDF7C7FB10B13046BBE70BE02868064BB2
:1043B00001224179686810330078FDF7BAFB08B133
:1043C0003046AEE70020ACE7140000202DE9F043B2
:1043D0008BB0814688463A4D95F82400002804D0D9
:1043E000002000F035F9012600E0002602A8FFF7C2
:1043F0009DFC04A8FFF74AFC6846FFF7DBFC01A818
:10440000FFF7FAFCAF7A03A8FFF788FC002400222C
:1044100041464846FEF7FEFF10B1641C022CF6DB55
:10442000022C19D00024012205A908A8FEF7F2FFEA
:1044300010B1641C022CF6DB022C0FD005A94046FB
:10444000FDF78EFE00F0FF0808A94846FFF7CEF9F9
:10445000C0B2002420B104E0002407E0002405E0FD
:104460000124B8F1000F01D144F00204FF202872AA
:104470006872E8724FF6FF71E981A8722874012012
:104480002873BDF8080000F021F99DF8100000F035
:1044900019F8BDF8000000F085F9BDF8040000F03F
:1044A000BFF9384600F0FEF99DF80C00FFF7A4FABA
:1044B00016B1012000F0CCF80BB02046BDE8F08327
:1044C0001400002038B51B4C4FF0FF35A17A0029AD
:1044D00009D0022809D004280AD008280BD01028B7
:1044E0000CD0284638BD284638BD0020009007E093
:1044F0000820009004E01020009001E018200090B7
:10450000607A9DF80010B0EBD10F01D1002038BDCA
:1045100020686B460122C17960680078FDF709FBCD
:1045200008B1284638BD9DF80000C0086072002020
:1045300038BD000014000020F8B50446434DA87CA7
:10454000A04201D10020F8BD40484FF0FF36D0E92D
:104550000010ACB3097900786B460122FDF757FAD9
:1045600008B13046F8BD9DF8000020F02000009012
:1045700028686B460122017968680078FDF7D9FA4E
:1045800008B13046F8BD0320FEF77EF90220009006
:1045900095F8220008B18220009095F8230020B100
:1045A0009DF8000040F03000009028686B46012222
:1045B000017D68680078FDF7BCFAE8B33046F8BDC5
:1045C000FFE7097900786B460122FDF720FA08B170
:1045D0003046F4E7A87AC00705D09DF8000040F007
:1045E0002000009004E09DF8000020F020000090E2
:1045F00028686B460122017968680078FDF799FA0E
:1046000008B13046DBE70320FEF73EF995F82200BB
:1046100010B18020009001E00020009095F8230068
:1046200020B19DF8000040F03000009028686B46F3
:10463000017D6868007800E005E00122FDF779FA65
:1046400008B13046BBE7AC740020B8E71400002086
:1046500038B51D4C94F82410814201D1002038BD9A
:104660000025F0B194F82500C0B1002000F0EAF96F
:104670000020FFF761FFE08C00F0D2F80095606841
:104680006B46012200782321FDF753FA012084F8BC
:10469000240000F0D7F9FFF7E3FD12E04FF0FF3000
:1046A00038BD002000F0CEF9207C009060686B4699
:1046B000012200782321FDF73CFA84F82450FFF70B
:1046C000CFFD002038BD00001400002038B51C4C80
:1046D0004FF0FF35A17A00290CD0FA280CD0B0F5A4
:1046E000FA7F0CD0B0F57A7F0CD0B0F5FA6F0CD011
:1046F000284638BD284638BD0020009007E0082035
:10470000009004E01020009001E018200090207A32
:104710009DF80010B0EBD10F01D1002038BD20680A
:104720006B460122817960680078FDF702FA08B1D2
:10473000284638BD9DF80000C0082072002038BD12
:104740001400002038B50446154D95F82300A0420A
:1047500001D1002038BD14B13020009001E00020CC
:104760000090A87C20B19DF8000040F0020000906D
:1047700095F8220020B19DF8000040F080000090E4
:1047800028686B460122017D68680078FDF7D1F941
:1047900010B14FF0FF3038BD85F82340002038BD00
:1047A0001400002038B51D4C4FF0FF35A17A0029C8
:1047B00004D0BC2804D30120009017E0284638BD5F
:1047C000622802D30220009010E02A2802D303209E
:1047D00000900BE0142802D30420009006E00A2881
:1047E00002D30520009001E006200090E07A9DF8B9
:1047F0000010884201D1002038BD20686B4601229C
:10480000817860680078FDF794F908B1284638BDD2
:104810009DF80000E072002038BD00001400002068
:10482000F8B504461E4D4FF0FF37A87A002804D093
:1048300095F8240018B13846F8BD3846F8BD287DF3
:1048400050B134B1282C04D8E0B2FFF713FC00209B
:10485000F8BD0020FFF70EFC4FF47A76042C01D24D
:10486000042402E0B44200D93446B6FBF4F0401E02
:10487000009028686B460122417868680078FDF74F
:1048800058F908B13846F8BD9DF80000401CB6FB49
:10489000F0F0E8814008FFF785FF0020F8BD000038
:1048A00014000020F8B5044614F0700F4FF0000615
:1048B00002D00120009004E00CB1009601E04020FD
:1048C0000090234D6B4601222868817C686800783F
:1048D000FDF72FF94FF0FF3710B1AE723846F8BD33
:1048E0009DF8000020F0400028730096600601D477
:1048F00004200090A00604D49DF8000040F00200BF
:104900000090E00604D49DF8000040F00100009003
:10491000200704D49DF8000040F03800009028687B
:104920006B460122C17C68680078FDF702F910B17E
:10493000AE723846F8BD24B1082C02D00020FFF733
:1049400001FFAC722E753220FDF79EFF0020F8BDEE
:10495000140000202DE9F8430E4690464FF0FF3535
:10496000B8F1000F10D0164FB97A79B1010A8DF85D
:104970000010C4B28DF80140A0197C68618988429A
:1049800006D92846BDE8F8832846FBE72846F9E71C
:1049900038686B460222017E2078FDF7CAF808B11C
:1049A0002846EFE73868F2B24346417D78680078E0
:1049B000FDF7BFF808B12846E4E70020E2E7000071
:1049C0001400002010B588B002A905A8FFF7FEFC6E
:1049D000032802D0012008B010BD01A8FFF7C6F9D6
:1049E000059800F093FF01990C4600F0BBFF00F022
:1049F00051FF0590069800F089FF214600F0B2FFB4
:104A000000F048FF0690079800F080FF214600F074
:104A1000A9FF00F03FFF079005A8FEF751FA68468E
:104A2000FFF756F9BDF8000002994143029103993E
:104A30004143039104994143049102A8FEF782F98E
:104A40000020C8E7F8B51B4C0023224694F82460E8
:104A500006CA5D1E002E11D010B10220009000E0A9
:104A600000931078C97B6B460122FDF762F808B10C
:104A70002846F8BD9DF80000607419E0A67A26B1BA
:104A800028B1667C1EB10020F8BD2846F8BD10B1E3
:104A90000120009000E000931078C97B6B46012252
:104AA000FDF747F808B12846F8BD9DF8000060748E
:104AB0000020F8BD140000202DE9F04106460F4605
:104AC00000F0C2FB041E0D4618BF0120284320F051
:104AD0000040C0F17F6000F1E040C00F0ED0301CFC
:104AE00018BF0120384320F00040C0F17F6000F182
:104AF000E040C00F04BF0120FBF748FD20462946D7
:104B0000BDE8F08110B500290AD00878002807D048
:104B100005487844FCF758F9002801D0002010BD62
:104B20000248784410BD0000522600004A260000CA
:104B300021F00042A2F16052B2F5801F01F0004363
:104B400028BFD2F17F6C0BD95FEA001C43EAC20296
:104B500042EB507018BF704728BF20F0010070472B
:104B6000B2F5801FBCBF184670474FEA410C1CF5D8
:104B7000001F02D2084600F0BCBF70B500F004FB75
:104B800000000089FFF7F6BF4FF00040A0F580005D
:104B90007047000010B591EA030F48BF83F000434F
:104BA00000F14084841A71EB030C05D2121943EB17
:104BB0000C03001B61EB0C01DFF824E14FEA1154F8
:104BC000A4EB135C1EEA430F18BF9EEA445F73D048
:104BD00023EA0E03DCF1200E21EA045143F4801392
:104BE00032D322FA0CFE10EB0E0023FA0CFE41EB3E
:104BF0000E01CCF1200E03FA0EFE10EB0E0051F167
:104C00000001B1F5801FCCF1200E32D201EB04512E
:104C100012FA0EF2BDE8104058BF7047401C38BF72
:104C20005FEA420218BF7047002814BF20F001005D
:104C300041F100014FEA410313F5001F38BF7047EF
:104C4000A1F1C04100F0EEBA012A43EB0302ACF13E
:104C5000200CDCF11F0E32BF4FF0000E23FA0CF3D4
:104C600010EB030041EB0451B4EB115FD0D0A1EB8A
:104C7000045101F5801149085FEA300001EB04514D
:104C80000ED350F1000038BF12FA0EFE08D1BDE875
:104C90001040C9E7401C38BF5FEA4202CAD1C3E7EF
:104CA000BDE810404FEA410313F5001F38BF7047BD
:104CB000A1F1C04100F0B6BA9EEA445F08D011EA03
:104CC0005E0FBDE8104004BF01F0004100207047B6
:104CD000BDE8104070B500F057FA00BF64FBBE3E5F
:104CE0000000E0FF02494FF0000000F07EBF00BF6F
:104CF0000000F87F491058BFC1F140415B1058BF18
:104D0000C3F140438B42EFF3008070472DE9C0416F
:104D100030B4DFF8A0C23CEA111418BF3CEA131407
:104D200000F0EC8081EA03051CEA111444EAD57412
:104D300018BF1CEA131500F0C780A4EB05044FF060
:104D4000004545EAC12145EAC32341EA505143EAFF
:104D5000525304F17F74994204F500344FEAC020A5
:104D60004FEAC22208BF904200F09C804FEA1365D0
:104D70000FF24016765D4FEA134506FB05F7C7F1C3
:104D8000807706FB07F74FEAD737A7FB0368764221
:104D9000C8F58038A7FB06CE38BFA8F1010807FB8D
:104DA00008E64FF0000EA6FB028CE6FB03CEDCF11A
:104DB000000CCEF1004E38BFAEF1010EA6FB0C5830
:104DC0004FF000074FF00005E6FB0E87A1FB08C679
:104DD000A0FB07CE16EB0E0645F10005E1FB0765CB
:104DE00015F1E04E7EBFA4F580345FEA46066D41C2
:104DF00016F1800745F100054FEA17274FEA0666CE
:104E000047EA0567A6F1DE46B6F1805F4FEA152551
:104E10001FD9384624F0010C05EBC471BCF1FE6FBC
:104E200001EB0C1102D8F0BCBDE8008124425CBF4C
:104E300001F5801E9EEAC47F02D4F0BCBDE800816B
:104E4000244238D4F0BCA1F1C041BDE8004100F0DB
:104E5000E9B94FEAD22242EA43524FEAD323A7FBF1
:104E600002864FEAD02040EA415007FB03661EEA63
:104E70000E0F4FEAD12105FB026658BFA6EB005684
:104E8000B6EB00564FEA520E4EEAC37E18EB0E0EFA
:104E900056EB530EBDD518EB02085E417F1C55F151
:104EA0000005B6E74FF480154FF000074FF00006FD
:104EB0004FF00008ADE7F0BC4FF0000001F1C04139
:104EC00001F00041BDE8008111EA0C1F0CEA131546
:104ED00000D00CE013EA0C1F00F025804FF000001A
:104EE000F0BC81EA030101F00041BDE80081F0BCA3
:104EF000BDE8004181EA030100F094B9F0BCBDE8CF
:104F0000004170B500F040F9097EFC3E00F007B8A2
:104F100081EA03014FF0000001F00041704781EA8F
:104F2000030100F07FB9F0BCBDE800414FF0000084
:104F300021497047FFFDFBF9F7F5F4F2F0EEEDEBD8
:104F4000E9E8E6E4E3E1E0DEDDDBDAD8D7D5D4D387
:104F5000D1D0CFCDCCCBCAC8C7C6C5C4C2C1C0BFD3
:104F6000BEBDBCBBBAB9B8B7B6B5B4B3B2B1B0AFD9
:104F7000AEADACABAAA9A8A8A7A6A5A4A3A3A2A1BD
:104F8000A09F9F9E9D9C9C9B9A9999989797969578
:104F900095949393929191908F8F8E8E8D8C8C8B14
:104FA0008B8A89898888878786858584848383829C
:104FB000828181800000FF070000F87F51EA030C26
:104FC00017D41CF5801F58BFBCF5801F00F1068068
:104FD000994218BF704708BF9042704707D711F534
:104FE000801F58BF13F5801F19D49942704789421A
:104FF00070471CF5801F08D5BCF5801FF7D58B4284
:1050000018BF704708BF824270474FF4001C1CEB6A
:10501000410F38BF1CEB430F01D28B42704770B574
:1050200000F0B2F8922449004FF000514FF0805345
:10503000FFF760BEDFF848C170B51CEA111E1EBF45
:105040001CEA13159EEA0C0F95EA0C0F00F06F8016
:1050500081EA030423EA4C134EEAD47E21EA4C1180
:1050600041F4801143F48013AE44A1FB024CA0FB39
:105070000365AEF17F7E361955EB0C05A1FB034CA1
:105080004CF10003A0FB021C16EB0C06654153F12A
:105090000003094218BF46F0010613F4007F0BD14C
:1050A0004FEA03314FEA0530340341EA155140EA33
:1050B00016506FF003020AE04FEAC3214FEAC52001
:1050C000F40241EA555140EA56506FF0020202EBF9
:1050D0002E4201EB025585EACE710AD05FEA440CFC
:1050E00018BF24F0004450F1000041F1000120EA13
:1050F000D47040F2FE7C624500D270BDA84214BF5D
:105100004FF080444FF04044002E08BF0024BEF111
:10511000806FA8BFA1F1C041BDE8704080F28280DD
:105120004FF0000001F1C04101F0004170479EEADC
:105130000C0F0CEA131518BF95EA0C0F06D04FF0B0
:10514000000081EA030E0EF0004170BD00F01CF873
:105150008900013E00F007B800F009B84FEA430C9F
:105160005FEA5C5C08D081EA030100F05BB84FEABB
:10517000410C5FEA5C5CF6D14FF0000001497047DA
:105180000000FF070000F87F0EF1020E2EF0030E64
:105190005EF8046B364205D4012A43EB030515F58E
:1051A000001F12D8012841EB010C1CF5001F0CD880
:1051B0000ED14FEAD17C15F5001F0CEB4C0C0CF115
:1051C000020C08BF4CEBD37C04E04FF0080C01E06C
:1051D0004FEAD37C0CEB4C0526FA05F606F00706E1
:1051E000B6F1040C06D20EEB860CBDE870404CF014
:1051F000010C6047DFE80CF0090B02024FF00041A0
:105200004FF00000A1F5002170BD1946104601289D
:1052100051EB010418BFD4F5001484BF002001F045
:10522000004170BD0808A0F500114FEA3101704738
:1052300091EA030F10B581F000413FF5B3AC83F064
:10524000004300F0EFB800002DE9F04101F5801CAB
:10525000BCF5001FC0F2C3804FEA115C21EA0C517B
:105260000CF1FD0C41F480115FEA5C0C0CF5C07C84
:1052700001D3400049413DA4890241EA905187028F
:105280008E0E0A0CA45D04FB04F602FB06F6C6F1C2
:105290004046A4FB0662F60D46EA422606FB06F4EB
:1052A000A4FB01235242C3F1404338BF5B1EA6FB5F
:1052B00002420024E6FB0324D20B42EA4446A6FB4A
:1052C0000623A1FB02E2A3FB07E4A4184FF00002AF
:1052D00052F10002E3FB01426442C2F1404E38BF8A
:1052E000AEF1010EA6FB04234FF00002E6FB0E32E6
:1052F000A2FB03464FF00004B61954F10004E2FB90
:105300000264A1FB06E6A4FB07E816EB08064FF0D3
:10531000000858F10008E4FB01687642C8F14058E3
:1053200038BFA8F10108A2FB06E4A3FB08E52D198C
:105330004FF0000454F10004E2FB0854A1FB05E621
:10534000A7FB04E818EB06084FF0000656F100062C
:10535000E1FB048618F1200556F10006A809A8F122
:105360001B08B10908F03F08B8F10A0F40EA86604F
:105370001CD901EB0C51BDE8F08100BFFCF5EEE853
:10538000E2DDD8D3CFCBC7C3C0BDB9B6B4B1AEACE4
:10539000A9A7A5A3A19F9D9B9A9896959392908F5C
:1053A0008D8C8B898887868584838281A0FB0068A9
:1053B00000FB01F208EB4208B8EB872807D5341848
:1053C00058EB0104D5D5401C51F10001D1E7341A46
:1053D00078EB0104CDD4401E71F10001C9E75FEA0A
:1053E0004C0C5FEA9C5C0DD105D34FF0000001F03E
:1053F0000041BDE8F081BDE8F04170B5FFF7C4FEA3
:105400006DDBFFBEBDE8F0414FF000000049704782
:105410000000F87F10B591EA030F48BF83F0004306
:105420003FF5C0AB841A71EB030C07D212198CF054
:10543000004C43EB0C03001B61EB0C01DFF8A4E113
:105440004FEA1154A4EB135C1EEA430F18BF9EEA07
:10545000445F00F0B08023EA6E03524221EA045117
:10546000C3EB6E0338BF5B1EDCF1200E25D322FA9E
:105470000CFE10EB0E0043FA0CFE41EB0E01CCF1DA
:10548000200E03FA0EFE10EB0E0051F10001CCF1DC
:10549000200E29D412FA0EF201EB0451BDE810409F
:1054A00058BF7047401C1CBFB2F1004F7047002826
:1054B0000CBF491C20F00100704712EB020E43EBB9
:1054C000030218BF4FF0010E4EEA4202ACF1200C6D
:1054D000DCF11E0E54D943FA0CFE10EB0E0051F114
:1054E000FF31CCF11E0ED5D50EF1010E12FA0EFED3
:1054F000404141EB010101EB445C5FEA5C5C10D987
:1055000010EBDE7001EB045138BFBEF1004FBDE877
:10551000104018BF704700280CBF491C20F0010044
:10552000704730D24FEAD42C11F5001124F40064F6
:105530001BD0B1FA81F20B3AA41AA41ED2F12003B7
:10554000914030FA03F31943904001EBCC71002CE9
:1055500001EB0451BDE81040A8BF704701F1C04104
:105560004FF0000001F000417047B0FA80F310FAEC
:1055700003F100D110BDE41A173C4805C90AE4E75D
:1055800001EB045110BD491001EB0451BDE810407E
:105590004FEA300002E04FF0000170474A0008BFB8
:1055A0000042F8D0B2F5001F28BF704701F000415B
:1055B0004FF0000070479EEA445F07D011EA5E0F8B
:1055C000BDE8104004BF002100207047BDE8104036
:1055D00070B5FFF7D9FD00BF40DFF63E83F0004114
:1055E000104670470000E0FF43004FEAD30C4FEA3B
:1055F0003C0C43401FBF40070CF1605113F0FE4FBD
:1056000070471CF0006F03D100200CF00041704780
:105610000CF0004343EA507010B540EACC0000F0B3
:1056200022FA00BF000000924FEA0001FFF7FABD26
:105630004FF000414FF00000A1F50021704700003D
:1056400090EA010F48BF81F0004100F15E82421AEA
:105650003CBF801A89184FEAD0524FF07F4C1CEAA9
:10566000410FA2EBD15318BF9CEA026F00F03B80C0
:105670004FF0004C4CEA00204CEA012121FA03FCD7
:1056800010EB0C0C1ED202F1FF325FEA1C2040EB43
:10569000C25038BF70471CF07F0F4FEA400C18BF54
:1056A000BCF17F4F38BF7047C3F12003994008BF5A
:1056B00020F00100BCF17F4F38BF7047A0F1C0401F
:1056C00000F017BA4FEA3C00000A40EBC25028BF76
:1056D0001CF0FF0F4FEA400CE6D018BFBCF17F4F23
:1056E00038BF7047EAE79CEA026F05D010EA5C0F0A
:1056F00008BF00F00040704710B500F0B4F900BFDB
:1057000064FBBE3E014800F070BA00BF0000C07FDD
:105710004FF47F0C1CEAD0121EBF1CEAD11392EA90
:105720000C0F93EA0C0F00F0858090EA010F48BF40
:1057300042F4807240F4000C41F400002CF07F41F0
:1057400020F07F4000B58142A2EB03020FF2081C5B
:10575000ACEB504EC0F100009EF800E04FEA4E0E58
:1057600000FB0EFC38BF49004FEA2C1C02F5FA0280
:105770000CFB0EF34FEACE1E4FEA112C4FEAC1216B
:105780000EEB635E42EB22420EFB0CFC4FEA1C5315
:1057900000FB03114FEA112C4FEA01310EFB0CFC08
:1057A0004FEADC4C00FB0C11C14228BF09184CEB3E
:1057B00003335DF804EB10EB410143EBC250B2F54B
:1057C0007C0F38BF704729D512F0F00F1CBF00F1D5
:1057D000C04000F000407047008182838485868746
:1057E00088898B8C8D8E8F919293959697999A9CA0
:1057F0009D9FA0A2A3A5A7A8AAACAEB0B2B3B5B70F
:10580000B9BCBEC0C2C5C7C9CCCED1D4D7D9DCDFE4
:10581000E2E6E9ECF0F3F7FAFE0000004FEA400C94
:105820000CF1807CBCF17E4F28BF7047B0F1C040C6
:1058300000F05FB990EA010F0CEAD11348BF42F4BF
:105840008072624538BF634507D213F47F0F16D0CC
:1058500080EA010000F00040704710B500F003F945
:10586000097EFC3E00F005B880EA010000F000402F
:10587000704780EA010000F0004000F03AB912F4ED
:105880007F0F04BF0248704780EA010000F031B981
:105890000000C07F41000B0ED3F19E0208D950F4E6
:1058A00000034FEA032323FA02F048BF4042704747
:1058B00010B500F0D8F800BF49922480002070474E
:1058C0006FF0004282EA200070470000C10DD1F164
:1058D0009E0206DB4FEA002343F0004323FA02F066
:1058E0007047004207D54FEA4001B1F1FE4F02D2A6
:1058F0004FF00000704710B500F0B5F849922480D1
:10590000002070476FEA20007047000010F000414F
:1059100048BF4042B0FA80F310FA03F2C3F19D038E
:105920000BD051EAC35101EB1220530638BF704728
:1059300000F1010008BF20F001007047B0FA80F3C9
:1059400010FA03F2C3F19D030AD0D90501EB12202E
:10595000530638BF704700F1010008BF20F0010076
:10596000704700004FF47F0C1CEAD0121EBF1CEAE7
:10597000D11392EA0C0F93EA0C0F00F0478090EAE3
:10598000010F48BF42F480724FF0004C4CEA0020F7
:105990004CEA012102EB0302A0FB0113A2F5000275
:1059A000002918BF43F001035B0028BF4FEA33030F
:1059B00042EB22425FEA132C4CEBC2502EBFBCEBF1
:1059C000436FB2F57C0F70474FEA036CBCF1004F98
:1059D00008BF20F00100B2F57C0F38BF70470BD52F
:1059E00082F0FF0212F5803FC8BF704700F1C0404F
:1059F000D8BF00F00040704700F5000C5FEA4C0C87
:105A000048BF7047B0F1C04000F073B890EA010F92
:105A10000CEAD11348BF42F48072624538BF634537
:105A200004D280EA010000F00040704710B500F099
:105A30001AF800BF8900013E00F007B800F009B86D
:105A40005FEA410C5FEA1C6C08D080EA010000F0BC
:105A500050B85FEA400C5FEA1C6CF6D14FF0004092
:105A6000A0F5800070470EF1020E2EF0030E5EF8D6
:105A7000044B244204D44FEA4102B2F17F4F11D8C3
:105A80004FEA4003B3F17F4F0CD80ED14FEAD07CE0
:105A9000B2F17F4F0CEB4C0C0CF1020C08BF4CEB3D
:105AA000D17C04E04FF0080C01E04FEAD17C0CEB14
:105AB0004C0324FA03F404F00704B4F1040C06D2F6
:105AC0000EEB840CBDE810404CF0010C6047DFE8A1
:105AD0000CF0070802024FF00040A0F5800010BD56
