:020000040800F2
:10000000580B0020CD01000891040008B30300083C
:100010008D0400087D020008570E00080000000053
:10002000000000000000000000000000610900085E
:1000300081020008000000001D090008CD0A000828
:10004000E7010008E7010008E7010008E7010008F0
:10005000E7010008E7010008E7010008E7010008E0
:10006000E7010008E7010008E7010008E7010008D0
:10007000E7010008E7010008E7010008E7010008C0
:10008000E7010008E7010008E7010008E7010008B0
:10009000E7010008E7010008E7010008E7010008A0
:1000A000E7010008E7010008E7010008E701000890
:1000B000E7010008E7010008E7010008E701000880
:1000C000E7010008E7010008E7010008E701000870
:1000D000E70100085D0D0008E7010008E50D0008D4
:1000E000E7010008E7010008E7010008E701000850
:1000F000E7010008E7010008E7010008E701000840
:10010000E7010008E7010008E7010008E70100082F
:10011000E7010008E7010008E7010008E70100081F
:10012000E7010008E7010008E7010008E70100080F
:1001300000F002F800F03AF80AA090E8000C8244BF
:100140008344AAF10107DA4501D100F02FF8AFF29C
:10015000090EBAE80F0013F0010F18BFFB1A43F0A5
:1001600001031847D8180000F8180000103A24BFFF
:1001700078C878C1FAD8520724BF30C830C144BF0C
:1001800004680C607047000000230024002500264E
:10019000103A28BF78C1FBD8520728BF30C148BFEA
:1001A0000B6070471FB51FBD10B510BD00F033F8D0
:1001B0001146FFF7F7FF00F09BFE00F051F803B483
:1001C000FFF7F2FF03BC00F048FE0000094880473B
:1001D00009480047FEE7FEE7FEE7FEE7FEE7FEE729
:1001E000FEE7FEE7FEE7FEE704480549054A064B41
:1001F00070470000D10A00083101000858050020AE
:10020000580B0020580700205807002070477047FF
:10021000704770477047754600F02CF8AE460500F1
:100220006946534620F00700854618B020B5FFF711
:10023000DBFFBDE820404FF000064FF000074FF015
:1002400000084FF0000B21F00701AC46ACE8C009F4
:10025000ACE8C009ACE8C009ACE8C0098D467047FD
:1002600010B50446AFF300802046BDE81040FFF70C
:10027000A6BF000000487047F404002000BFFEE75E
:1002800070472DE9F041024600250026002000239A
:100290000024002791F803C00CF00F0591F803C06B
:1002A0000CF0100CBCF1000F03D091F802C04CEA26
:1002B000050591F800C0BCF1000F31D01468002092
:1002C0002BE04FF0010C0CFA00F3B1F800C00CEA7F
:1002D00003069E4220D183004FF00F0C0CFA03F767
:1002E000BC4305FA03FC4CEA040491F803C0BCF1DA
:1002F000280F06D14FF0010C0CFA00FCC2F814C014
:100300000AE091F803C0BCF1480F05D14FF0010C91
:100310000CFA00FCC2F810C0401C0828D1D31460AD
:10032000B1F800C0BCF1FF0F34DD546800202EE0AE
:1003300000F1080C4FF0010808FA0CF3B1F800C006
:100340000CEA03069E4221D183004FF00F0C0CFAF9
:1003500003F7BC4305FA03FC4CEA040491F803C01C
:10036000BCF1280F05D100F1080C08FA0CF8C2F80E
:10037000148091F803C0BCF1480F07D100F1080CBC
:100380004FF0010808FA0CF8C2F81080401C082849
:10039000CED35460BDE8F0810246002093680B4044
:1003A0000BB1012000E000207047416170470161FE
:1003B000704700BFFEE7000001464906084A9269FF
:1003C00042F00102064B9A61064A526822F0E0624E
:1003D000044B5A601A4652680A435A60704700003C
:1003E000001002400000014008B50121042000F087
:1003F000A7FA2020ADF8000048208DF803006946D8
:100400000148FFF73EFF08BD0008014010B5104845
:100410000078012811D120210E48FFF7BDFF60B9F7
:10042000012000F03FFD20210A48FFF7B5FF60B929
:10043000002007490870012010BD20210548FFF762
:10044000ABFF012801D1024908700020F4E7000049
:100450002A0000200008014008B50121042000F016
:100460006FFA5020ADF8000010208DF80300032033
:100470008DF8020069460448FFF703FF1021024887
:10048000FFF795FF08BD00000008014000BFFEE730
:100490007047000002490143024A116070470000A2
:1004A0000000FA050CED00E030B500240CE000255A
:1004B00006E00020074901EBC5010855681CC5B2DC
:1004C000802DF6DB601CC4B2082CF0DB00F0D0F805
:1004D00030BD0000F4000020F0B5144600267F284F
:1004E00001DC3F2900DDF0BD0B46CF1701EB57774C
:1004F000FF10C7F10707FAB2CF1701EB5777FF10CC
:10050000A1EBC707FDB2C5F107070123BB40DEB26F
:100510004CB10A4B03EBC0039B5C3343074F07EB23
:10052000C007BB5408E0054B03EBC0039B5CB3431F
:10053000024F07EBC007BB5400BFD4E7F400002014
:1005400008B501210C2000F0FBF910208DF8030004
:100550003820ADF8000002208DF8020069464048BE
:10056000FFF78FFE10208DF80300C002ADF80000E9
:1005700002208DF8020069463A48FFF782FE00200B
:1005800039490860642000F08DFC01203749C1F82A
:100590008C010021AE2000F051F90021D52000F09F
:1005A0004DF90021502000F049F90021A82000F069
:1005B00045F900213F2000F041F90021D32000F04F
:1005C0003DF90021084600F039F90021402000F0F3
:1005D00035F900218D2000F031F90021142000F0C0
:1005E0002DF90021202000F029F90021022000F03F
:1005F00025F90021A12000F021F90021C02000F000
:100600001DF90021DA2000F019F90021122000F074
:1006100015F90021812000F011F90021EF2000F0F0
:100620000DF90021D92000F009F90021F12000F096
:1006300005F90021DB2000F001F90021302000F055
:10064000FDF80021A42000F0F9F80021A62000F018
:10065000F5F80021AF2000F0F1F8FFF725FF08BD05
:10066000000C0140000801408C81214200802142A1
:1006700030B500241CE004F1B001C8B2002100F044
:10068000DDF80021084600F0D9F80021102000F024
:10069000D5F8002508E0084901EBC501085D0121F6
:1006A00000F0CCF8681CC5B2802DF4DB601CC4B22D
:1006B000082CE0DB30BD0000F40000202DE9F04FF5
:1006C00080460C4615461E46A346A5F12000C5B23D
:1006D00000273EE00C2E07D105EB45001F4901EB3A
:1006E000800010F8079004E01D4800EB051010F89A
:1006F00007904FF0000A26E009F0800028B121465B
:100700004046099AFFF7E8FE09E0099808B9012078
:1007100000E00020024621464046FFF7DDFE4FEA9A
:1007200049604FEA1069601CC4B2A4EB0B00B042F0
:1007300005D15C4608F1010000F0FF0806E00AF16F
:10074000010000F0FF0ABAF1080FD5DB00BF781CEA
:10075000C7B2B742BEDBBDE8F08F0000D60F00087D
:100760004A1400082DE9FF4F81B0074691461E4606
:100770000E9D4FF0000A002439E0301B401EC1B22C
:100780000A2000F01DFCB9FBF0F00A21B0FBF1F2E9
:1007900001FB1208BAF1000F16D1701EA04213DD42
:1007A000B8F1000F0ED10120AB4605EBDB7149100B
:1007B00001FB04710090C8B22B4620220299FFF77A
:1007C0007DFF12E04FF0010A0120AB4605EBDB7123
:1007D000491001FB04710090C8B208F13001CAB29F
:1007E0002B460299FFF76AFF00BF601CC4B2B442F7
:1007F000C3DB05B0BDE8F08F78B505460E4614465C
:1008000018E07A2D03DD002506F11000C6B23A2E5D
:1008100004DD002005460646FFF746FE0120009055
:1008200022780C2331462846FFF748FF05F10800DF
:10083000C5B2641C20780028E3D178BD10B50A4603
:100840001AB10123114C236002E000230F4C2360F6
:10085000002114E000230E4C236000F080031BB144
:100860000123241F236003E00023094C241F23607D
:100870000123074C23604306180E4B1CD9B20829EC
:10088000E8DB0123014C236010BD0000BC012142C4
:100890009481214208B5FFF7EBFE16A2002108461D
:1008A000FFF7AAFF17A214210020FFF7A5FF1848A1
:1008B000006800280EDB17A214215020FFF79CFFD0
:1008C0000C20042300901248142102686420FFF7D2
:1008D00049FF0EE010A214215020FFF78DFF0C20DD
:1008E000042300900A480068424214216420FFF764
:1008F00039FF08BD56656C6F636974794469726528
:100900000000000050574D2020202020203A0000F9
:10091000000000202B0000002D00000070470000A8
:1009200029B1064AD2690243044BDA6104E0034A62
:10093000D2698243014BDA61704700000010024027
:1009400029B1064A92690243044B9A6104E0034AC2
:1009500092698243014B9A61704700000010024087
:100960007047000010B50446002C0EDB0020104933
:10097000086001200F49C1F8B0010F490C80A1B2F5
:100980000D48403800F095F911E0002C0FDA0120F5
:100990000749086000200749C1F8B00160420649D4
:1009A0000880604281B20448403800F082F910BDEE
:1009B000B4812142008021424004004010B500F083
:1009C00001F810BD0CB5002001900090334800687C
:1009D00040F480303149086000BF3048006800F4BE
:1009E000003000900198401C0190009818B90198BF
:1009F000B0F5A06FF1D12948006800F4003010B1C3
:100A00000120009001E0002000900098012843D1CF
:100A10002348006840F0100021490860084600683B
:100A200020F0030008600846006840F002000860FB
:100A30001A484068194948600846406848600846B6
:100A4000406840F4806048600846406820F47C10AC
:100A500048600846406840F4E8104860084600686E
:100A600040F08070086000BF0C48006800F0007023
:100A70000028F9D00948406820F003000749486081
:100A80000846406840F00200486000BF03484068E4
:100A900000F00C000828F9D10CBD00000010024045
:100AA00000200240042808D14FF0E021096941F0FC
:100AB00004014FF0E022116107E04FF0E0210969E5
:100AC00021F004014FF0E0221161704770470000EF
:100AD00010B51348006840F001001149086008464D
:100AE0004068104908400E494860084600680E49B1
:100AF00008400B4908600846006820F48020086020
:100B00000846406820F4FE0048604FF41F008860EB
:100B1000FFF754FF4FF000600449086010BD00006B
:100B2000001002400000FFF8FFFFF6FE08ED00E0B5
:100B300030B589B005460C4601210820FFF700FFBB
:100B400001210220FFF7ECFE4FF44050ADF82000E9
:100B500010208DF8230003208DF8220008A92148D9
:100B6000FFF78FFB4FF440511E48FFF71EFC022099
:100B7000ADF8200018208DF8230003208DF8220006
:100B800008A91848FFF77DFBA8B2ADF81800A0B27D
:100B9000ADF814000020ADF81600ADF81A0005A954
:100BA000114800F089F86020ADF804000020ADF88D
:100BB0000C000120ADF806000020ADF80A0001A9E4
:100BC000094800F02BF80021074800F065F80121E2
:100BD000054800F00BF80121034800F013F809B0B4
:100BE00030BD0000000C01400004004021B102882B
:100BF00042F08002028004E002884FF67F731A40C0
:100C00000280704721B1028842F00102028004E0B4
:100C100002884FF6FE731A400280704770B50022BA
:100C200000230024058C4EF6FF7635400584038CA6
:100C30008488828B48F6FF752A404FF6FF452A408C
:100C40000D884FF6FF7606EA05252A434DF6FF7517
:100C50002B400D8906EA05352B434D8806EA0535FC
:100C60002B430B4DA84202D00A4DA84208D14BF6A7
:100C7000FF752C408D894FF6FF7606EA85152C43CB
:100C800084808283CD88A0F84050038470BD00002A
:100C9000002C0140003401400A460021818B4FF2B4
:100CA000FF7319404FF6FF7303EA02231943818350
:100CB0007047A0F840107047002202881D4B9842F0
:100CC0000ED01D4B98420BD0B0F1804F08D01B4B7B
:100CD000984205D01A4B984202D01A4B984204D140
:100CE0004FF68F731A404B881A43174B984207D020
:100CF000164B984204D04FF6FF431A40CB881A4354
:100D000002808B8883850B8803850A4B98420BD021
:100D1000094B984208D00E4B984205D00D4B984293
:100D200002D00D4B984201D10B7A038601238382B6
:100D300070470000002C01400034014000040040D6
:100D400000080040000C004000100040001400406B
:100D500000400140004401400048014010B540F20D
:100D600025511D4800F048F810B31B4800F06EF8FC
:100D7000C4B21A48008800F40040C8B91748008877
:100D800000F4804060B10A2C03D000201349088091
:100D900020E01248008840F400401049088019E023
:100DA0000D2C06D10D48008840F480400B49088086
:100DB00010E00A480088C0F30D0009490C540748A8
:100DC0000088401C0549088008460088C72801DDC6
:100DD0000020088010BD00000038014028000020DD
:100DE0002C00002010B540F22551024800F004F814
:100DF00010BD00000048004070B5024600240023EA
:100E00000025002040F66A16B14200D100BFC1F3B0
:100E1000421501F01F03012606FA03F3012D02D14A
:100E20009689334006E0022D02D1168A334001E054
:100E3000968A33400C12012606FA04F416883440D0
:100E400013B10CB1012000E0002070BD014688887C
:100E5000C0F30800704700BFFEE700BF7047000006
:100E600010B56FF00400FFF71DFE0A4800680A493C
:100E7000B0FBF1F0094908700846007800EB40012A
:100E8000C1EBC0104FF6FF7101EAC00004490880B1
:100E900010BD00000C00002000127A00200000208D
:100EA000220000200146114A12884A434FF0E023F5
:100EB0005A6100229A611A46126942F001021A61CF
:100EC00000BF4FF0E022106900F001021AB100F4F7
:100ED0008032002AF5D04FF0E022126922F00102A0
:100EE0004FF0E0231A6100229A617047220000202F
:100EF0004FF4A060FFF7CEFAFFF7B2FF0220FFF732
:100F00005BFAFFF7A9FAFFF76FFAFFF719FB002169
:100F100041F61F40FFF70CFE4FF4FA60FFF7C2FFE7
:100F200040E0C820FFF7BEFF1F48006808B9012055
:100F300000E000201C490860FFF768FA38B11B4840
:100F4000006808B9012000E000201849086017482F
:100F50000068F0B1164800681649884204DC4FF476
:100F6000FA701549086008E01148006841F65831E8
:100F7000884202DB1148104908600D4800680E499C
:100F8000096808440A49086008460068FFF7EAFC57
:100F900006E000200649086008460068FFF7E2FC0A
:100FA000FFF778FCBDE70000900121420800002017
:100FB00000000020A8E4FFFF040000200CFEFFFF5B
:100FC00010B50246012000E050430B1EA1F10104C0
:100FD000E1B2F9D110BD00000000000000000000E7
:100FE0000000000000003F40000000000000000082
:100FF0003000400030004000000009000BC03D0000
:101000000BC03D00090018C024407FE02240318021
:101010000000180024C01B000D80324001800380B6
:101020001C4027401C80074000401000600000006A
:101030000000000000000000000000001F802040B1
:1010400040200000402020401F80000000000900D8
:1010500006001F80060009000000040004003F8015
:101060000400040000000010006000000000000008
:10107000000004000400040004000400000000005C
:1010800000400000000000000000002001C0060039
:101090003800400000001F802040204020401F807A
:1010A0000000000010403FC000400000000018C0D9
:1010B000214022402440184000001080204024405D
:1010C00024401B80000002000D0011003FC00140C1
:1010D00000003C80244024402440238000001F80E6
:1010E000244024403440038000003000200027C00A
:1010F0003800200000001B802440244024401B8036
:1011000000001C0022C0224022401F80000000007E
:101110000000084000000000000000000000046023
:10112000000000000000000004000A001100208000
:101130004040090009000900090009000000000002
:101140004040208011000A000400180020002340C5
:101150002400180000001F802040274029401F4025
:101160000000004007C039000F0001C000402040CF
:101170003FC0244024401B8000001F8020402040AE
:1011800020403080000020403FC0204020401F8091
:10119000000020403FC024402E4030C000002040CE
:1011A0003FC024402E00300000000F00108020407F
:1011B00022403380020020403FC0040004003FC0B2
:1011C0002040204020403FC02040204000000060E0
:1011D000202020203FC02000200020403FC024408D
:1011E0000B0030C0204020403FC020400040004065
:1011F00000C03FC03C0003C03C003FC00000204096
:101200003FC00C4023003FC020001F8020402040F2
:1012100020401F80000020403FC0244024001800D0
:1012200000001F802140214020E01FA0000020403E
:101230003FC02440260019C0004018C0244024406C
:10124000224031800000300020403FC0204030006C
:10125000000020003F80004000403F802000200030
:101260003E0001C0070038002000380007C03C00E5
:1012700007C038000000204039C0060039C02040B7
:1012800000002000384007C03840200000003040F7
:1012900021C02640384020C00000000000007FE050
:1012A000402040200000000070000C00038000403F
:1012B00000000000402040207FE00000000000000F
:1012C000200040002000000000000010001000106E
:1012D000001000100010000000004000000000009E
:1012E0000000000002800540054003C000402000CF
:1012F0003FC004400440038000000000038004401D
:1013000004400640000000000380044024403FC029
:10131000004000000380054005400340000000003D
:1013200004401FC0244024402000000002E005507B
:1013300005500650042020403FC00440040003C074
:1013400000400000044027C00040000000000010E2
:101350000010041027E00000000020403FC00140C2
:10136000070004C00440204020403FC0004000402F
:10137000000007C0040007C0040003C000000440D0
:1013800007C00440040003C0004000000380044084
:10139000044003800000041007F004500440038060
:1013A0000000000003800440045007F000100440D7
:1013B00007C0024004000400000000000640054091
:1013C000054004C00000000004001F8004400040ED
:1013D0000000040007800040044007C000400400F3
:1013E000070004C0018006000400060001C00700D9
:1013F00001C006000000044006C0010006C0044011
:1014000000000410071004E0018006000400000042
:10141000044005C006400440000000000000040035
:101420007BE040200000000000000000FFF0000012
:101430000000000040207BE00400000000004000AD
:10144000800040002000200040000000000000005C
:10145000000000000000000000000000000000008C
:101460001FCC000C0000000000000000080030004D
:1014700060000800300060000000022003FC1E2015
:10148000022003FC1E200220000000000E181104A0
:101490003FFF10840C78000000000F0010840F380C
:1014A00000C0077818840078000000780F8410C40A
:1014B00011240E9800E40084000808006800700001
:1014C000000000000000000000000000000000001C
:1014D00007E0181820044002000000004002200429
:1014E000181807E0000000000000024002400180E0
:1014F0000FF0018002400240000000800080008068
:101500000FF800800080008000000001000D000E38
:1015100000000000000000000000000000800080CB
:10152000008000800080008000800000000C000C23
:10153000000000000000000000000000000600188D
:1015400000600180060018002000000007F0080875
:1015500010041004080807F0000000000804080444
:101560001FFC000400040000000000000E0C10141A
:101570001024104411840E0C000000000C181004FC
:101580001104110412880C700000000000E0032018
:10159000042408241FFC0024000000001F9810846D
:1015A00011041104108810700000000007F0088872
:1015B0001104110418880070000000001C001000C5
:1015C00010FC13001C001000000000000E38114435
:1015D0001084108411440E38000000000700088CAD
:1015E00010441044088807F00000000000000000CC
:1015F000030C030C000000000000000000000001CC
:101600000106000000000000000000000080014012
:10161000022004100808100400000220022002200A
:10162000022002200220022000000000100408080E
:101630000410022001400080000000000E00120093
:10164000100C106C10800F00000003E00C1813E465
:10165000142417C4082807D000000004003C03C469
:101660001C40074000E4001C000410041FFC11048F
:10167000110411040E880070000003E00C1810041F
:101680001004100410081C10000010041FFC1004AB
:1016900010041004080807F0000010041FFC1104D7
:1016A000110417C410040818000010041FFC1104D2
:1016B000110017C010000800000003E00C1810040F
:1016C000100410441C780040000010041FFC10841B
:1016D0000080008010841FFC10040000100410041F
:1016E0001FFC1004100400000000000300011001A2
:1016F00010011FFE10001000000010041FFC110458
:1017000003801464181C1004000010041FFC100453
:10171000000400040004000C000010041FFC1F0063
:1017200000FC1F001FFC1004000010041FFC0C0430
:10173000030000E010181FFC100007F00808100458
:1017400010041004080807F0000010041FFC1084A7
:101750001080108010800F00000007F0081810247F
:101760001024101C080A07F2000010041FFC1104CA
:10177000110011C011300E0C000400000E1C1104E9
:101780001084108410441C3800001800100010044D
:101790001FFC100410001800000010001FF81004B7
:1017A0000004000410041FF8100010001E0011E0D7
:1017B000001C007013801C0010001FC0103C00E0D3
:1017C0001F0000E0103C1FC000001004180C16346D
:1017D00001C001C01634180C100410001C001304C2
:1017E00000FC13041C00100000000804101C10640E
:1017F000108413041C0410180000000000000000F6
:101800007FFE4002400240020000000030000C0059
:1018100003800060001C0003000000004002400242
:1018200040027FFE000000000000000000002000D9
:1018300040004000400020000000000100010001C5
:101840000001000100010001000100004000400013
:1018500020000000000000000000000000980124AB
:1018600001440144014400FC000410001FFC0088F6
:10187000010401040088007000000000007000886E
:1018800001040104010400880000000000700088C9
:101890000104010411081FFC0004000000F80144C9
:1018A00001440144014400C8000000000104010497
:1018B0000FFC1104110411001800000000D60129CA
:1018C0000129012901C90106000010041FFC008440
:1018D00001000100010400FC0004000001041904DF
:1018E00019FC0004000400000000000000030001D7
:1018F0000101190119FE0000000010041FFC002462
:10190000004001B4010C01040000000010041004A8
:101910001FFC0004000400000000010401FC01049D
:10192000010001FC0104010000FC010401FC008431
:1019300001000100010400FC0004000000F80104A3
:1019400001040104010400F80000010101FF008509
:10195000010401040088007000000000007000888D
:1019600001040104010501FF00010104010401FC5F
:1019700000840104010001800000000000CC01246B
:10198000012401240124019800000000010001004D
:1019900007F80104010400000000010001F8000440
:1019A00000040004010801FC000401000180017032
:1019B000000C001001600180010001F0010C0030FA
:1019C00001C00030010C01F0010000000104018C95
:1019D00000740170018C010400000101018101719A
:1019E000000E001801600180010000000184010C5C
:1019F000013401440184010C0000000000000000DB
:101A0000000001003EFC4002400200000000000017
:101A10000000FFFF00000000000000004002400244
:101A20003EFC01000000000000000000600080009B
:101A30008000400040002000200000005C1A0008E8
:101A4000000000202C0000006C010008881A00082B
:101A50002C0000202C0B000088010008581B0000FF
:101A6000F40100000000000000A24A040000000091
:101A7000000000000102030406070809000000003E
:081A800000000000000001005D
:0400000508000131BD
:00000001FF
