:020000040800F2
:10000000200A002439030008411800088F1700084F
:100010003D180008F5030008951A000800000000CC
:100020000000000000000000000000004718000869
:10003000F9030008000000004518000849180008EE
:100040005F0300085F0300085F0300085F03000808
:100050005F0300085F030008FB0300085F0300085C
:100060005F0300085F0300085F0300085F030008E8
:100070005F0300085F0300085F0300085F030008D8
:100080005F0300085F0300085F0300085F030008C8
:100090005F0300085F0300085F0300085F030008B8
:1000A0005F0300085F0300085F0300085F030008A8
:1000B0005F0300085F0300085F0300085F03000898
:1000C0005F0300085F0300085F0300085F03000888
:1000D0005F030008851A00085F0300085F0300083B
:1000E0005F0300085F030008000000005F030008D2
:1000F0004D1900085F0300085F0300085F03000854
:100100005F0300085F0300085F0300085F03000847
:100110005F0300085F0300085F0300085F03000837
:100120005F0300085F0300085F0300085F03000827
:100130005F0300085F0300085F0300085F03000817
:1001400000000000000000000000000000000000AF
:100150005F0300085F0300085F0300085F030008F7
:100160005F0300085F0300085F0300085F030008E7
:100170005F0300085F0300085F0300080000000041
:100180005F0300085F0300085F0300085F030008C7
:100190005F0300085F0300085F0300085F030008B7
:1001A0005F0300085F0300085F0300085F030008A7
:1001B0005F0300085F0300085F0300085F03000897
:1001C0005F0300085F0300085F0300085F03000887
:1001D0005F0300085F0300085F0300085F03000877
:1001E0005F0300085F0300085F0300085F03000867
:1001F0005F0300085F0300085F0300085F03000857
:100200005F0300085F0300085F0300085F03000846
:100210005F0300085F0300085F0300085F03000836
:100220005F0300085F0300085F0300080000000090
:100230005F0300085F030008000000005F03000880
:100240005F0300085F0300085F0300085F03000806
:100250005F0300085F0300085F0300085F030008F6
:100260005F0300085F0300085F0300085F030008E6
:100270005F0300085F0300085F0300080000000040
:100280005F0300085F0300085F0300080000000030
:10029000000000005F03000800F002F800F03CF8E6
:1002A0000AA090E8000C82448344AAF10107DA45D1
:1002B00001D100F031F8AFF2090EBAE80F0013F0E7
:1002C000010F18BFFB1A43F0010318473019000053
:1002D00050190000103A24BF78C878C1FAD85207E4
:1002E00024BF30C830C144BF04680C6070470000B0
:1002F0000023002400250026103A28BF78C1FBD82F
:10030000520728BF30C148BF0B6070471FB501F0CE
:1003100067FC1FBD10B510BD00F039F81146FFF79E
:10032000F5FF01F051FC00F057F803B4FFF7F2FFBE
:1003300003BC01F0CDFB0000DFF83000016841F4A0
:10034000700101600A4880470A480047FEE7FEE75F
:10035000FEE7FEE7FEE7FEE7FEE7FEE7FEE7FEE775
:1003600005480649044A064B7047000088ED00E046
:10037000511800089902000820020024200A0024D5
:1003800020020024704770477047704770477546D9
:1003900000F02CF8AE4605006946534620F00700F1
:1003A000854618B020B5FFF7DBFFBDE820404FF0D1
:1003B00000064FF000074FF000084FF0000B21F04F
:1003C0000701AC46ACE8C009ACE8C009ACE8C0091C
:1003D000ACE8C0098D46704710B50446AFF3008005
:1003E0002046BDE81040FFF7A0BF0000004870475E
:1003F000C001002400BFFEE7704710B5012000F0E7
:100400005BFC10BD2DE9F041044600F06FFD804615
:1004100014B90120BDE8F08194F83500022808D015
:100420008020606500BF002084F8340000BF0120F8
:10043000F0E7FE492068884249D0FC49183120681D
:10044000884244D0F9493031206888423FD0F7498A
:100450004831206888423AD0F449603120688842A7
:1004600035D0F24978312068884230D0EF49903158
:10047000206888422BD0ED49A8312068884226D0D8
:10048000EB492068884222D0E94918312068884227
:100490001DD0E74930312068884218D0E4494831FE
:1004A0002068884213D0E2496031206888420ED02B
:1004B000DF4978312068884209D0DD4990312068D1
:1004C000884204D0DA49A8312068884201D101204D
:1004D00000E0002068B12068006820F01E0021685C
:1004E00008602068406920F0800021684861256824
:1004F00006E02068006820F00E002168086025688A
:10050000CA492068884270D0C8491831206888429A
:100510006BD0C64930312068884266D0C349483123
:100520002068884261D0C1496031206888425CD02F
:10053000BE4978312068884257D0BC499031206844
:10054000884252D0B949A831206888424DD0B84974
:100550002068884249D0B64918312068884244D082
:10056000B3493031206888423FD0B14948312068D2
:1005700088423AD0AE4960312068884235D0AC49D3
:1005800078312068884230D0A9499031206888426B
:100590002BD0A749A8312068884226D0A5492068D9
:1005A000884222D0A3491431206888421DD0A14935
:1005B00028312068884218D09E493C312068884202
:1005C00013D09C495031206888420ED0994964313B
:1005D0002068884209D0974978312068884204D041
:1005E00094498C312068884201D1012000E000202C
:1005F00028B1206E006820F48070216E08608B495D
:100600002068884249D0894918312068884244D0FE
:1006100086493031206888423FD08449483120687B
:1006200088423AD0814960312068884235D07F497C
:1006300078312068884230D07C49903120688842E7
:100640002BD07A49A8312068884226D07849206882
:10065000884222D076491831206888421DD07449DA
:1006600030312068884218D071494831206888426A
:1006700013D06F496031206888420ED06C497831C0
:100680002068884209D06A4990312068884204D0A5
:100690006749A8312068884206D12068006820F0A8
:1006A00001002168086005E02068006820F0010072
:1006B0002168086011E000F019FCA0EB0800052893
:1006C0000BD920206065032084F8350000BF00208E
:1006D00084F8340000BF01209CE6286800F0010087
:1006E0000028E8D151492068884249D04F49183143
:1006F0002068884244D04D493031206888423FD03C
:100700004A494831206888423AD0484960312068D7
:10071000884235D0454978312068884230D04349F5
:100720009031206888422BD04049A8312068884207
:1007300026D03F492068884222D03D4918312068A0
:1007400088421DD03A4930312068884218D0384953
:1007500048312068884213D035496031206888428A
:100760000ED0334978312068884209D03049903121
:100770002068884204D02E49A8312068884201D1DF
:10078000012000E0002040B1A66D94F85C0000F06C
:100790001F013F208840B06007E0A76D94F85C001F
:1007A00000F01F01012088407860204920688842BD
:1007B00076D01E4918312068884271D01B493031EB
:1007C000206888426CD0194948312068884267D037
:1007D000164960312068884262D014497831206817
:1007E00088425DD0114990312068884258D00F4925
:1007F000A8312068884253D00D49206888424FD0E4
:100800000B491831206888424AD0094930312068A4
:10081000884245D0064948312068884240D0044982
:100820006031206888423BD0014905E01000024059
:1008300010040240085402587831206888422FD0B2
:100840002549206888422BD02349183120688842E6
:1008500026D022492068884222D0204914312068BD
:1008600088421DD01D4928312068884218D01B4974
:100870003C312068884213D01849503120688842A2
:100880000ED0164964312068884209D01349783166
:100890002068884204D011498C312068884201D1F7
:1008A000012000E0002068B1D4E919104860E06E32
:1008B00040B1E06E006820F48070E16E0860D4E919
:1008C0001C104860012084F8350000BF002084F827
:1008D000340000BF00BF9DE5A00402400854025848
:1008E00070B504460CB9012070BD94F8350002289B
:1008F00003D0802060650120F6E7DC49206888424B
:1009000049D0DA4918312068884244D0D74930317B
:10091000206888423FD0D5494831206888423AD083
:10092000D24960312068884235D0D049783120687A
:10093000884230D0CD499031206888422BD0CB49B5
:10094000A8312068884226D0C9492068884222D030
:10095000C7491831206888421DD0C5493031206808
:10096000884218D0C24948312068884213D0C04913
:100970006031206888420ED0BD49783120688842B5
:1009800009D0BB4990312068884204D0B849A831C9
:100990002068884201D1012000E00020F0B304204B
:1009A00084F83500B149206888424BD0AF491831EE
:1009B0002068884246D0AD4930312068884241D015
:1009C000AA494831206888423CD0A8496031206853
:1009D000884237D0A54978312068884232D0A3496F
:1009E0009031206888422DD0A049A83120688842E3
:1009F00028D09F492068884224D09D49183120681A
:100A000088421FD09A493031206888421AD09849CC
:100A100048312068884215D0954900E020E06031D7
:100A2000206888420ED0924978312068884209D0E7
:100A30008F4990312068884204D08D49A8312068C0
:100A4000884206D12068006820F001002168086013
:100A500009E12068006820F001002168086002E1D7
:100A60002068006820F00E00216808607F49206837
:100A7000884249D07D4918312068884244D07B495A
:100A80003031206888423FD0784948312068884218
:100A90003AD0764960312068884235D07349783140
:100AA0002068884230D071499031206888422BD02C
:100AB0006E49A8312068884226D06D492068884256
:100AC00022D06B491831206888421DD068493031E6
:100AD0002068884218D0664948312068884213D07F
:100AE00063496031206888420ED0614978312068BE
:100AF000884209D05E4990312068884204D05C4920
:100B0000A8312068884206D12068006820F00100E2
:100B10002168086005E02068006820F00100216875
:100B2000086052492068884270D0504918312068C6
:100B300088426BD04D4930312068884266D04B499D
:100B400048312068884261D0484960312068884235
:100B50005CD0464978312068884257D0434990316B
:100B60002068884252D04149A831206888424DD03F
:100B70003F492068884249D03D4918312068884261
:100B800044D03B493031206888423FD03849483111
:100B9000206888423AD0364960312068884235D092
:100BA000334978312068884230D03149903120680B
:100BB00088422BD02E49A8312068884226D02D4962
:100BC0002068884222D02B491431206888421DD0E9
:100BD000284928312068884218D026493C312068AD
:100BE000884213D023495031206888420ED02149D1
:100BF00064312068884209D01E49783120688842D3
:100C000004D01C498C312068884201D1012000E0C9
:100C10000020D8B1206E006820F48070216E08603A
:100C2000A56D94F85C0000F01F0101208840686009
:100C3000D4E919104860E06E40B1E06E006820F41D
:100C40008070E16E0860D4E91C104860012084F8CF
:100C5000350000BF002084F8340000BF206D10B1C3
:100C60002046216D884700203EE60000100002402B
:100C7000100402400854025810B50446142000F035
:100C80002FFF012C12D10121094800F021F930B1C8
:100C900000BF00220221074800F022F906E000BF51
:100CA00001220221034800F01BF900BF10BD000023
:100CB000000002580004025810B5044604480068B9
:100CC000204020B1024804602046FFF7D5FF10BD48
:100CD00088000058F8B502460B4600216F4DD7E05A
:100CE00001278F401E6806EA0704002C72D01E7987
:100CF00006F00306012E04D01E7906F00306022E2C
:100D000013D190684F000326BE40B0434F00DE6809
:100D1000BE4030439060506801268E40B0431E793B
:100D2000C6F300168E40304350601E7906F003066D
:100D3000032E09D0D0684F000326BE40B0434F00B9
:100D40009E68BE403043D0601E7906F00306022E36
:100D500013D1CF0802F1200656F827004E07F70EF0
:100D60000F26BE40B0434F07FF0E1E69BE40304302
:100D7000CF0802F1200646F8270010684F0003262E
:100D8000BE40B0431E7906F003064F00BE4030431C
:100D900010605E6806F44036002E78D000BF404EEA
:100DA000366846F002063E4F3E603E46366806F024
:100DB0000206009600BF00BF3A4E8F0856F8270083
:100DC0008E07370F0F26BE40B043374EB24202D1D6
:100DD00000262EE05BE0354EB24201D1012628E02C
:100DE000334EB24201D1022623E0324EB24201D14B
:100DF00003261EE0304EB24201D1042619E02F4EE8
:100E0000B24201D1052614E02D4EB24201D1062690
:100E10000FE02C4EB24201D107260AE02A4EB24220
:100E200001D1082605E0294EB24201D1092600E091
:100E30000A268F073F0FBE4030431A4E8F0846F8F0
:100E400027004FF0B0463068A0435E6806F4801675
:100E500006B120434FF0B04630607068A0435E6832
:100E600006F4001606B120434FF0B0467060686883
:100E7000A0435E6806F4003606B120436860286827
:100E8000A0435E6806F4803606B120432860491C02
:100E90001E68CE40002E7FF423AFF8BD80000058BE
:100EA000F444025808040058000002580004025894
:100EB00000080258000C0258001002580014025892
:100EC00000180258001C0258002002580024025842
:100ED000024613690B400BB1012000E0002070476F
:100EE0000AB1816101E00B04836170470148006829
:100EF000704700000C00002403480068034909788B
:100F000008440149086070470C00002414000024C4
:100F100010B5052000F0AAF800F0BCF810490968E7
:100F2000C1F303210F4A515C01F01F0120FA01F4C3
:100F30000B48006800F00F001146085C00F01F002D
:100F400024FA00F008490860084804600F2000F007
:100F50000FF808B1012010BD00F036F80020FAE7C4
:100F600018440258EA1B0008040000240000002472
:100F700070B504461148007808B9012070BD0F48CB
:100F800000784FF47A71B1FBF0F00D490968B1FBBC
:100F9000F0F5284600F094F908B10120EEE7102C96
:100FA00007D200222146501E00F023F805480460B5
:100FB00001E00120E2E70020E0E700001400002447
:100FC0000000002410000024704701460846002855
:100FD0000DDB00BF00BF00F01F0301229A40430950
:100FE0009B0003F1E023C3F8002100BF00BF00BF56
:100FF00070472DE9F05F80460D46164600F04CFD27
:10100000074639462A46334601F00700C0F1070A71
:10101000BAF1040F02D94FF0040A01E0C0F1070A47
:10102000D14600F1040ABAF1070F02D24FF0000ACC
:1010300001E0A0F1030AD4464FF0010A0AFA09FAC6
:10104000AAF1010A0AEA020A0AFA0CFA4FF0010BA5
:101050000BFA0CFBABF1010B0BEA030B4AEA0B0496
:101060002146404600F020FDBDE8F09F00BF00F0A3
:101070000702064B19684FF6FF031940044B0B4358
:1010800043EA0221014B196000BF70470CED00E0FC
:101090000000FA05F0B5824E366806F0380636B123
:1010A000082E15D0102E15D0182E7DD114E07C4EB0
:1010B000103E3668C6F3401646B1794E103E36688B
:1010C000C6F3C107774E26FA07F000E07548E5E061
:1010D0007548E3E07548E1E0714E1836366806F071
:1010E00003046F4E18363668C6F305116C4E1C3675
:1010F000366806F001056A4E24363668C6F3CC061B
:1011000016FB05F601EE106AB8EE410A002971D00F
:1011100024B1012C50D0022C6DD16DE0604E103EF8
:101120003668C6F340163EB35D4E103E3668C6F3D1
:10113000C1075C4E26FA07F301EE103AF8EE411AA9
:1011400001EE101AB8EE411A81EE812A9FED581A6D
:10115000C0EE011A524E20363668C6F3080601EE7C
:10116000106AB8EE411A31EE811AF7EE001A31EE2C
:10117000211A62EE010A1EE001EE101AB8EE411AC1
:10118000DFED4C1A81EE812A9FED491AC0EE011A5B
:10119000434E20363668C6F3080601EE106AB8EEF4
:1011A000411A31EE811A00E076E0F7EE001A31EED6
:1011B000211A62EE010A5BE001EE101AB8EE411A44
:1011C0009FED3D2AC2EE011A9FED391A80EE012AE9
:1011D000334E20363668C6F3080601EE106AB8EEC4
:1011E000411A32EE011AB7EE002A31EE021A61EE10
:1011F000810A3DE04EE01DE001EE101AB8EE411A02
:10120000DFED2E1A81EE812A9FED291AC0EE011A18
:10121000234E20363668C6F3080601EE106AB8EE93
:10122000411A31EE811AF7EE001A31EE211A62EE00
:10123000010A1DE001EE101AB8EE411A9FED1E2AB8
:10124000C2EE011A9FED1A1A80EE012A144E2036C2
:101250003668C6F3080601EE106AB8EE411A32EE9F
:10126000011AB7EE002A31EE021A61EE810A00BFC0
:1012700000BF0B4E20363668C6F34626721C01EEC0
:10128000102AB8EE411AC0EE811ABCEEE11A11EE36
:10129000100A00E0002001E0034800BF00BFF0BDDD
:1012A000104402580090D00300093D0040787D01B1
:1012B000000000460024744C0024744A20BCBE4B3D
:1012C00070B504462546681EB0F1807F01D3012029
:1012D0000FE0681E4FF0E02148610F214FF0FF3012
:1012E00000F0E2FB00204FF0E02188610720086158
:1012F000002070BD024600BF92F83C00012801D1D9
:1013000002207047012082F83C0000BF022082F8D2
:101310003D0010684161012082F83D0000BF0020BF
:1013200082F83C0000BF00BFEBE770477047704792
:10133000704770472DE9F04704462068C56920686A
:1013400006682068876840F60F0005EA0009B9F1D1
:10135000000F0FD105F0200060B106F0200010B999
:1013600007F0805030B1206F10B12046216F8847C0
:10137000BDE8F087B9F1000F7ED0F948384018B9C0
:10138000F84830400028F7D005F0010058B106F4C5
:10139000807040B1012021680862D4F88C0040F0D0
:1013A0000100C4F88C0005F0020058B107F00100FC
:1013B00040B1022021680862D4F88C0040F004009B
:1013C000C4F88C0005F0040058B107F0010040B1EA
:1013D000042021680862D4F88C0040F00200C4F8B0
:1013E0008C0005F0080070B106F0200010B9DC4850
:1013F000384040B1082021680862D4F88C0040F0E1
:101400000800C4F88C0005F4006060B106F080604C
:1014100048B14FF4006021680862D4F88C0040F0B5
:101420002000C4F88C00D4F88C0000284ED005F0C1
:10143000200050B106F0200010B907F0805020B114
:10144000206F10B12046216F8847D4F88CA0206807
:10145000806800F04000402802D00AF0280070B3F5
:10146000204600F0C1FA2068806800F04000402863
:1014700021D100BF00BF00E029E02168083151E818
:10148000001F21F040002168083141E80002002AD5
:10149000F1D100BFE06F50B1B348E16F0865E06F74
:1014A000FFF71EFA90B1E06F016D88470EE020460D
:1014B000FFF73FFF0AE02046FFF73BFF06E0FFE7AC
:1014C0002046FFF736FF0020C4F88C0050E7E06E9E
:1014D000012872D105F0100000286ED006F010002F
:1014E0000028FAD01020216808622068806800F087
:1014F000400040287ED1E06F00689C49884258D067
:10150000E06F006899491831884252D0E06F006856
:101510009649303188424CD0E06F00689349483199
:10152000884246D0E06F006890496031884240D0E0
:10153000E06F00688D49783188423AD0E06F0068EA
:101540008A499031884234D0E06F00688749A831D9
:1015500088422ED0E06F00688549884229D0E06F2C
:10156000006883491831884223D0E06F00688049C1
:10157000303188421DD0E06F00687D494831884293
:1015800017D0E06F00687A496031884211D0E06F6F
:1015900000687749783188420BD0E06F0068744961
:1015A0009031884205D0E06F00687149A8318842C7
:1015B00004D1E06F0068406803E0A0E0E06F0068DD
:1015C00040681FFA80F8B8F1000F55D0B4F85C00FD
:1015D000404551DDA4F85E80E06FC069B0F5807FC2
:1015E00041D000BF00BF216851E8001F21F4807086
:1015F000226800E041E042E800010029F3D100BF89
:1016000000BF00BF2168083151E8001F21F0010030
:101610002168083141E80002002AF3D100BF00BF71
:1016200000BF2168083151E8001F21F04000216807
:10163000083141E80002002AF3D100BF2020C4F89D
:1016400088000020E06600BF00BF216851E8001F4D
:1016500021F01000226842E800010029F5D100BF06
:10166000E06FFEF7CFFEB4F85C00B4F85E20801A9D
:1016700081B22046FFF759FE7AE634F85C0F6188A4
:10168000401A1FFA80F860885C3CB8B3B8F1000FCC
:1016900034D000BF00BF216851E8001F21F49070D2
:1016A000226842E800010029F5D100BF00BF00BF59
:1016B0002168083151E8001F294AD24301EA02009B
:1016C0002168083141E80002002AF1D100BF202042
:1016D000C4F888000020E066206700BF00BF2168D2
:1016E00051E8001F21F01000226842E800010029A3
:1016F000F5D100BF41462046FFF717FE38E605F456
:10170000801050B107F4800038B14FF48010216888
:1017100008622046FFF70CFE2AE605F0800058B16B
:1017200006F0800010B907F4000028B1606F10B116
:101730002046616F88471BE605F0400030B106F097
:10174000400018B1204600F085F911E605F40000CC
:1017500080B106F0804068B12046FFF7E8FD07E65B
:101760000100001020010004D119000810000240FF
:101770001004024005F0807030B106F0004018B14E
:101780002046FFF7D3FDF3E500BFF1E5704700BF4A
:10179000FEE7000000B587B000BF00BF2548006825
:1017A00040F08000234908600846006800F080008F
:1017B000019000BF00BF00BF00BF00BF0846006827
:1017C00040F0800008600846006800F0800001904A
:1017D00000BF00BF00BF00BF00BF0846006840F068
:1017E000040008600846006800F00400019000BF93
:1017F00000BF00BF00BF00BF0846006840F0010006
:1018000008600846006800F00100019000BF00BFBA
:1018100000BF4FF444100390012002900220049076
:10182000059002A90448FFF755FA0620FFF7CDFB03
:1018300007B000BDE04402580000025800BFFEE7B8
:1018400000BFFEE77047704710B5FFF755FB10BDAE
:101850003448006840F4700032490860324800683B
:1018600000F00F00072806D22F48006820F00F0074
:10187000C01D2D4908602D48006840F001002B492B
:10188000086000202949103108602848006828496C
:101890000840264908602448006800F00F00072827
:1018A00006D92148006820F00F00C01D1E490860BD
:1018B00000201E4918310860091D0860091D0860D4
:1018C0001C481A49283108601B48091D08601B483C
:1018D000091D08600020091D08601848091D0860DE
:1018E0000020091D08601548091D08600020091D19
:1018F00008600E48006820F480200C490860002031
:101900000A49603108600E4800686FF30F00B0F1BB
:10191000005F02D201200B49086043F2D2000A495D
:101920000860704788ED00E0002000520044025833
:101930007FEDF6EA000202020000FF0180020101D1
:101940000010005C088100510040005210B50024D6
:101950001C480068006900F0010090B31A48006854
:10196000FF2808D918480068A0F58070164908605B
:101970004FF4807407E01448007820B112480478CE
:101980000020114908607CB1601E104908600121E7
:101990000C48FFF7AFFC0B480068006840F00100FE
:1019A00008490968086007E008483038006820F0F6
:1019B00001000649303908606FF0010001490968EB
:1019C000086110BD74010024180000243004014097
:1019D00070B50546AC6B0020A4F85E00A4F8560074
:1019E0002046FFF7A6FC70BD00BF00BF026852E8AA
:1019F000002F22F49071036843E80012002AF5D109
:101A000000BF00BF00BF0268083252E8002F104B31
:101A100002EA03010268083242E80013002BF2D107
:101A200000BFC16E01290CD100BF00BF026852E89F
:101A3000002F22F01001036843E80012002AF5D1BC
:101A400000BF2021C0F888100021C16601677047DF
:101A5000FEFFFFEF10B5044600BF00BF216851E84C
:101A6000001F21F04000226842E800010029F5D162
:101A700000BF2020C4F88400002060672046FFF7E4
:101A800085FE10BD10B50248FFF754FC10BD0000E4
:101A9000E400002400BFFEE702480068C0F3022013
:101AA000704700000CED00E010B5002804DB0A07C9
:101AB000130E054A135406E00A07140E034A00F0F9
:101AC0000F031B1FD45410BD00E400E018ED00E02C
:101AD00000BF7047014908607047000008000024FB
:101AE00010B504464FF47A7104FB01F000F002F8DF
:101AF00010BD000070B5034600224FF0E026756966
:101B00000D4E366803FB06F44FF0E026B16910E095
:101B10004FF0E026B06988420BD0884202D20E1AFC
:101B2000324402E02E1A0E4432440146A24200D34F
:101B300000E0EDE700BF70BD0800002400B587B0ED
:101B400000BF00BF1E48006840F002001C4908604A
:101B50000846006800F00200019000BF00BF00BF0F
:101B600000BF00BF0846006840F002000860084659
:101B7000006800F00200019000BF00BF00BF02201B
:101B80000290012003900490059002A90D48FFF7F0
:101B9000A1F80120029002A90A48FFF79BF800BFB4
:101BA000012202210748FFF79BF900BF00BF012275
:101BB00011460448FFF794F900BF07B000BD0000CC
:101BC000E0440258000402584FF4C870FFF782FF47
:101BD000FFF79EF9FFF7B2FFFFF7DCFD00BFFEE75E
:101BE0004FF04070E1EE100A704700000000010263
:101BF0000304010203040607080900001C1C000876
:101C0000000000241C000000D4020008381C00085A
:101C10001C000024040A0000F00200080090D00319
:101C20000090D00300000000000000001000000041
:081C30000100000000000000AB
:040000050800029954
:00000001FF
