:020000040800F2
:1000000018080020C101000869030008F90200086F
:1000100065030008AD020008A30500080000000009
:100020000000000000000000000000006D03000858
:10003000B1020008000000006B030008590400082A
:10004000DB010008DB010008DB010008DB01000820
:10005000DB010008DB010008DB010008DB01000810
:10006000DB010008DB010008DB010008DB01000800
:10007000DB010008DB010008DB010008DB010008F0
:10008000DB010008DB010008DB010008DB010008E0
:10009000DB010008DB010008DB010008DB010008D0
:1000A000DB010008DB010008DB010008DB010008C0
:1000B000DB010008DB010008DB010008DB010008B0
:1000C000DB010008DB010008DB010008DB010008A0
:1000D000DB010008BD040008DB010008DB010008AB
:1000E000DB010008DB010008DB01000800F002F87A
:1000F00000F03CF80AA090E8000C82448344AAF186
:100100000107DA4501D100F031F8AFF2090EBAE883
:100110000F0013F0010F18BFFB1A43F0010318473B
:10012000C0040000E0040000103A24BF78C878C181
:10013000FAD8520724BF30C830C144BF04680C60ED
:10014000704700000023002400250026103A28BF35
:1001500078C1FBD8520728BF30C148BF0B60704739
:100160001FB500F064F81FBD10B510BD00F070F8A9
:100170001146FFF7F5FF00F019FA00F08EF803B40E
:10018000FFF7F2FF03BC00F00EFA00000B49D1F8B4
:1001900000C04A685CF8043B1068184442F8040B3D
:1001A0008C4528BFA1F1DC0C8A4228BFA1F1DC02FA
:1001B000C1F800C04A6020F000407047AC01002048
:1001C0000948804709480047FEE7FEE7FEE7FEE7EB
:1001D000FEE7FEE7FEE7FEE7FEE7FEE70448054927
:1001E000054A064B704700005D040008ED0000085A
:1001F000180200201808002018040020180400200D
:10020000704700000B4910B5A1F17C020A4CC2E90D
:100210003712372106E000EB104342F82130074B3C
:1002200000FB03400B1EA1F10101F4DC10BD012015
:10023000E8E700004C010020E119D666CD0D010071
:10024000704770477047704700487047B4010020FE
:100250007546FFF7F9FFAE4605006946534620F0A4
:100260000700854618B020B5FFF7B8FFBDE820406D
:100270004FF000064FF000074FF000084FF0000B62
:1002800021F00701AC46ACE8C009ACE8C009ACE815
:10029000C009ACE8C0098D46704710B50446AFF3FD
:1002A00000802046BDE81040FFF769BF00BFFEE7B1
:1002B000704700B5034603E04FF47A7000F005F88C
:1002C000181EA3F10103F7D100BD00EBC001C90066
:1002D0004FF0E0225161002191610521116100BFC1
:1002E0004FF0E021096901F480310029F8D00421A0
:1002F0004FF0E0221161704700BFFEE70B4A9269A0
:1003000042F00402094B9A610C20811C084A1268D1
:10031000012383401A43064B1A601A4613680B22C6
:100320008A409343024A1360704700000010024065
:1003300000080140032004490968012282409143DA
:10034000014A1160704700000C0801400320044975
:100350000968012282401143014A11607047000080
:100360000C08014000BFFEE770477047704710B5AA
:1003700000F002F810BD00000CB5002001900090C4
:100380003348006840F480303149086000BF30488D
:10039000006800F4003000900198401C0190009823
:1003A00018B90198B0F5A06FF1D12948006800F4A0
:1003B000003010B10120009001E000200090009872
:1003C000012843D12348006840F01000214908600B
:1003D0000846006820F0030008600846006840F006
:1003E000020008601A484068194948600846406899
:1003F00048600846406840F48060486008464068AD
:1004000020F47C1048600846406840F4E8104860DA
:100410000846006840F08070086000BF0C48006823
:1004200000F000700028F9D00948406820F003006F
:10043000074948600846406840F00200486000BF35
:100440000348406800F00C000828F9D10CBD0000FA
:1004500000100240002002407047000010B5134811
:10046000006840F0010011490860084640681049E2
:1004700008400E494860084600680E4908400B498C
:1004800008600846006820F480200860084640683C
:1004900020F4FE0048604FF41F008860FFF767FFFC
:1004A0004FF000600449086010BD000000100240D9
:1004B0000000FFF8FFFFF6FE08ED00E010B540F287
:1004C00025511D4800F03EF810B31B4800F064F8B9
:1004D000C4B21A48008800F40040C8B91748008820
:1004E00000F4804060B10A2C03D00020134908803A
:1004F00020E01248008840F400401049088019E0CC
:100500000D2C06D10D48008840F480400B4908802E
:1005100010E00A480088C0F30D0009490C54074850
:100520000088401C0549088008460088C72801DD6E
:100530000020088010BD00000038014004000020A9
:100540000800002070B5024600240023002500208A
:1005500040F66A16B14200D100BFC1F3421501F066
:100560001F03012606FA03F3012D02D196893340B9
:1005700006E0022D02D1168A334001E0968A33400C
:100580000C12012606FA04F41688344013B10CB19B
:10059000012000E0002070BD01468888C0F30800FB
:1005A000704700BFFEE7014600BF7047FFF7A6FE99
:1005B00014E0FFF7EBFD41F2707190FBF1F201FBEB
:1005C000120000F57A742046FFF773FEFFF7BEFEB7
:1005D00040F2DC50FFF76DFEFFF7ACFEE9E70000EC
:1005E00000060008000000200800000028010008A4
:1005F0000806000808000020100800004401000858
:080600000000000000000000F2
:04000005080001C12D
:00000001FF
