:020000040800F2
:100000006806002089010008E50400085F04000874
:10001000E104000843020008710900080000000024
:100020000000000000000000000000005906000869
:1000300047020008000000001506000889070008B4
:10004000A3010008A3010008A3010008A301000800
:10005000A3010008A3010008A3010008A3010008F0
:10006000A3010008A3010008A3010008A3010008E0
:10007000A3010008A3010008A3010008A3010008D0
:10008000A3010008A3010008A3010008A3010008C0
:10009000A3010008A3010008A3010008A3010008B0
:1000A000A3010008A3010008A3010008A3010008A0
:1000B000A3010008A3010008A3010008A301000890
:1000C000A3010008A3010008A3010008A301000880
:1000D000A3010008A3010008A3010008A301000870
:1000E00049020008A3010008A301000800F002F87B
:1000F00000F03AF80AA090E8000C82448344AAF188
:100100000107DA4501D100F02FF8AFF2090EBAE885
:100110000F0013F0010F18BFFB1A43F0010318473B
:10012000900D0000B00D0000103A24BF78C878C1CF
:10013000FAD8520724BF30C830C144BF04680C60ED
:10014000704700000023002400250026103A28BF35
:1001500078C1FBD8520728BF30C148BF0B60704739
:100160001FB51FBD10B510BD00F031F81146FFF7E7
:10017000F7FF00F005FC00F04FF803B4FFF7F2FFC3
:1001800003BC00F057F800000948804709480047C1
:10019000FEE7FEE7FEE7FEE7FEE7FEE7FEE7FEE737
:1001A000FEE7FEE704480549054A064B7047000094
:1001B0008D070008ED000008680000206806002098
:1001C000680200206802002070477047704775463B
:1001D00000F02CF8AE4605006946534620F00700B3
:1001E000854618B020B5FFF7DDFFBDE820404FF091
:1001F00000064FF000074FF000084FF0000B21F011
:100200000701AC46ACE8C009ACE8C009ACE8C009DD
:10021000ACE8C0098D46704710B50446AFF30080C6
:100220002046BDE81040FFF7A8BF00000048704717
:100230000400002001491820ABBEFEE726000200A2
:10024000704700BFFEE7704710B50648008808B940
:10025000012000E00020034908804FF4805000F0A6
:1002600003F810BD0000002001490860704700003D
:1002700014040140002123498279002A3AD00A4619
:10028000126803689A430B461A600A1D12680368D5
:100290009A430B1D1A60027911440A6803681A43D5
:1002A0000A60184A0832126803689A43154B0833EB
:1002B0001A601A1D126803689A43124B0C331A60B5
:1002C0004279102A0ED11A1F126803681A430D4B87
:1002D00008331A601A1D126803681A43094B0C335D
:1002E0001A600DE00749427911440A6803681A430D
:1002F0000A6005E0027911440A6803689A430A60BB
:10030000704700000004014030B500228B071C0F2D
:100310000F2303FA04F20B4B8C1053F82430934351
:10032000084C8D1044F8253023468C1053F82430A7
:100330008C07240F00FA04F42343024C8D1044F878
:10034000253030BD080001402DE9F041024600256E
:100350000026002000230024002791F803C00CF0A1
:100360000F0591F803C00CF0100CBCF1000F03D086
:1003700091F802C04CEA050591F800C0BCF1000FED
:1003800031D0146800202BE04FF0010C0CFA00F380
:10039000B1F800C00CEA03069E4220D183004FF062
:1003A0000F0C0CFA03F7BC4305FA03FC4CEA0404F7
:1003B00091F803C0BCF1280F06D14FF0010C0CFAE4
:1003C00000FCC2F814C00AE091F803C0BCF1480F69
:1003D00005D14FF0010C0CFA00FCC2F810C0401C13
:1003E0000828D1D31460B1F800C0BCF1FF0F34DD90
:1003F000546800202EE000F1080C4FF0010808FAC4
:100400000CF3B1F800C00CEA03069E4221D1830030
:100410004FF00F0C0CFA03F7BC4305FA03FC4CEA4F
:10042000040491F803C0BCF1280F05D100F1080CB9
:1004300008FA0CF8C2F8148091F803C0BCF1480F18
:1004400007D100F1080C4FF0010808FA0CF8C2F8C7
:100450001080401C0828CED35460BDE8F08100BF56
:10046000FEE700001FB50121082000F0E5F801219A
:10047000084600F0E1F828208DF80F004FF4805076
:10048000ADF80C0003208DF80E0003A91348FFF708
:100490005BFF0C210120FFF737FF4FF480500190E4
:1004A00001208DF80A0000208DF8080008208DF842
:1004B000090001A8FFF7DEFE28208DF800000120CA
:1004C0008DF803008DF801008DF802004FF4A06054
:1004D00000F042F8684600F007F81FBD000C01402C
:1004E00000BFFEE77047000070B5002100230F2217
:1004F000C47804B3154C246804F4E064C4F5E064E3
:10050000210AC1F10403CA40447804FA03F1847853
:100510001440214309010E4C0678A155047804F0DB
:100520001F050124AC4005786D11AD0005F1E025F3
:10053000C5F8004109E0047804F01F050124AC402F
:10054000044D0678761145F8264070BD0CED00E0AC
:1005500000E400E080E100E002490143024A11604A
:10056000704700000000FA050CED00E000B589B00E
:100570000121084600F050F80121042000F05CF849
:1005800018208DF823000220ADF8200003208DF8FC
:10059000220008A91A48FFF7D7FE4FF0804000F06C
:1005A00031F90020ADF81A00ADF8160044F61F60CE
:1005B000ADF818004720ADF8140000208DF81C009D
:1005C00005A94FF0804000F081F901A800F072F910
:1005D0006020ADF804000020ADF80C000120ADF85B
:1005E00006000020ADF80A0001A94FF0804000F09D
:1005F0000FF90121880700F0F9F809B000BD0000EB
:100600000008014010B5044621464FF0804000F03C
:100610005BF910BD7047000029B1064AD269024358
:10062000044BDA6104E0034AD2698243014BDA6188
:10063000704700000010024029B1064A9269024347
:10064000044B9A6104E0034A92698243014B9A6128
:100650007047000000100240704710B5FFF786FF9A
:1006600010BD00002DE9F04104460A49204600F083
:10067000FBF98046084900F0D9FA0746074900F01F
:1006800091F9064600F0B2FA85B22846FFF7BAFFA4
:10069000BDE8F081000034430000FA440000FA4352
:1006A00010B500F001F810BD0CB5002001900090CD
:1006B0003348006840F480303149086000BF30485A
:1006C000006800F4003000900198401C01900098F0
:1006D00018B90198B0F5A06FF1D12948006800F46D
:1006E000003010B10120009001E00020009000983F
:1006F000012843D12348006840F0100021490860D8
:100700000846006820F0030008600846006840F0D2
:10071000020008601A484068194948600846406865
:1007200048600846406840F4806048600846406879
:1007300020F47C1048600846406840F4E8104860A7
:100740000846006840F08070086000BF0C480068F0
:1007500000F000700028F9D00948406820F003003C
:10076000074948600846406840F00200486000BF02
:100770000348406800F00C000828F9D10CBD0000C7
:1007800000100240002002407047000010B51348DE
:10079000006840F0010011490860084640681049AF
:1007A00008400E494860084600680E4908400B4959
:1007B00008600846006820F4802008600846406809
:1007C00020F4FE0048604FF41F008860FFF768FFC8
:1007D0004FF000600449086010BD000000100240A6
:1007E0000000FFF8FFFFF6FE08ED00E021B10288EF
:1007F00042F00102028004E002884FF6FE731A40C4
:100800000280704701894FF6F872114001817047EC
:1008100070B5002400220023058C4FF6EF7635409A
:100820000584028C8388048B48F6FF752C404FF6B4
:10083000FF452C400D884FF6FF7606EA05252C4330
:100840004FF6DF752A400D8906EA05152A434D88C3
:1008500006EA05152A43154DA84202D0144DA842B8
:100860001DD14FF67F752A404D894FF6FF7606EA77
:1008700005152A434FF6BF752A408D8806EA0515EF
:100880002A434FF6FF352B404FF2FF752B408D89E1
:1008900006EA85052B43CD8906EA85052B4383802F
:1008A0000483CD880587028470BD0000002C0140C0
:1008B000003401400021018041808180C18001819C
:1008C00041818181C1817047018770470022028880
:1008D0001D4B98420ED01D4B98420BD0B0F1804F6B
:1008E00008D01B4B984205D01A4B984202D01A4BA5
:1008F000984204D14FF68F731A404B881A43174B16
:10090000984207D0164B984204D04FF6FF431A4046
:10091000CB881A4302808B8883850B8803850A4B1A
:1009200098420BD0094B984208D00E4B984205D004
:100930000D4B984202D00D4B984201D10B7A0386A1
:100940000123838270470000002C014000340140E5
:100950000004004000080040000C0040001000406F
:1009600000140040004001400044014000480140A4
:1009700000BFFEE70148008870470000000000202B
:10098000FFF76BFEFFF76EFD09E0FFF7F3FF18B10D
:100990000020FFF767FE02E00148FFF763FEF4E77F
:1009A0000000344390EA010F48BF81F0004100F19C
:1009B0001082421A3CBF801A89184FEAD0524FF079
:1009C0007F4C1CEA410FA2EBD15318BF9CEA026F87
:1009D00000F03B804FF0004C4CEA00204CEA012133
:1009E00021FA03FC10EB0C0C1ED202F1FF325FEA7D
:1009F0001C2040EBC25038BF70471CF07F0F4FEAFD
:100A0000400C18BFBCF17F4F38BF7047C3F12003C3
:100A1000994008BF20F00100BCF17F4F38BF7047FC
:100A2000A0F1C04000F0C9B94FEA3C00000A40EB19
:100A3000C25028BF1CF0FF0F4FEA400CE6D018BF91
:100A4000BCF17F4F38BF7047EAE79CEA026F05D0E0
:100A500010EA5C0F08BF00F00040704710B500F0CE
:100A600066F900BF64FBBE3E4FF47F0C1CEAD01257
:100A70001EBF1CEAD11392EA0C0F93EA0C0F00F090
:100A8000858090EA010F48BF42F4807240F4000C68
:100A900041F400002CF07F4120F07F4000B58142FE
:100AA000A2EB03020FF2081CACEB504EC0F10000A9
:100AB0009EF800E04FEA4E0E00FB0EFC38BF4900E6
:100AC0004FEA2C1C02F5FA020CFB0EF34FEACE1E85
:100AD0004FEA112C4FEAC1210EEB635E42EB22423A
:100AE0000EFB0CFC4FEA1C5300FB03114FEA112CC8
:100AF0004FEA01310EFB0CFC4FEADC4C00FB0C1101
:100B0000C14228BF09184CEB03335DF804EB10EB2E
:100B1000410143EBC250B2F57C0F38BF704729D575
:100B200012F0F00F1CBF00F1C04000F00040704711
:100B3000008182838485868788898B8C8D8E8F91B6
:100B40009293959697999A9C9D9FA0A2A3A5A7A8DA
:100B5000AAACAEB0B2B3B5B7B9BCBEC0C2C5C7C906
:100B6000CCCED1D4D7D9DCDFE2E6E9ECF0F3F7FA6A
:100B7000FE0000004FEA400C0CF1807CBCF17E4F7F
:100B800028BF7047B0F1C04000F017B990EA010FDC
:100B90000CEAD11348BF42F48072624538BF634506
:100BA00007D213F47F0F16D080EA010000F0004056
:100BB000704710B500F0BBF8097EFC3E00F005B8A8
:100BC00080EA010000F00040704780EA010000F078
:100BD000004000F0F2B812F47F0F04BF02487047E3
:100BE00080EA010000F0E9B80000C07FC10DD1F13A
:100BF0009E0206DB4FEA002343F0004323FA02F093
:100C00007047004207D54FEA4001B1F1FE4F02D2D2
:100C10004FF00000704710B500F089F84992248029
:100C2000002070476FEA2000704700004FF47F0CEF
:100C30001CEAD0121EBF1CEAD11392EA0C0F93EAF1
:100C40000C0F00F0478090EA010F48BF42F4807219
:100C50004FF0004C4CEA00204CEA012102EB030269
:100C6000A0FB0113A2F50002002918BF43F0010305
:100C70005B0028BF4FEA330342EB22425FEA132CAA
:100C80004CEBC2502EBFBCEB436FB2F57C0F7047EC
:100C90004FEA036CBCF1004F08BF20F00100B2F531
:100CA0007C0F38BF70470BD582F0FF0212F5803FF2
:100CB000C8BF704700F1C040D8BF00F00040704787
:100CC00000F5000C5FEA4C0C48BF7047B0F1C04023
:100CD00000F073B890EA010F0CEAD11348BF42F458
:100CE0008072624538BF634504D280EA010000F09B
:100CF0000040704710B500F01AF800BF8900013EAF
:100D000000F007B800F009B85FEA410C5FEA1C6C1C
:100D100008D080EA010000F050B85FEA400C5FEABA
:100D20001C6CF6D14FF00040A0F5800070470EF12A
:100D3000020E2EF0030E5EF8044B244204D44FEA58
:100D40004102B2F17F4F11D84FEA4003B3F17F4F18
:100D50000CD80ED14FEAD07CB2F17F4F0CEB4C0C8B
:100D60000CF1020C08BF4CEBD17C04E04FF0080CF6
:100D700001E04FEAD17C0CEB4C0324FA03F404F0BD
:100D80000704B4F1040C06D20EEB840CBDE810404D
:100D90004CF0010C6047DFE80CF0070802024FF04E
:100DA0000040A0F5800010BD0846420018BFD2F1F7
:100DB000807288BF00F0004010BDFF2141EAD05092
:100DC000C005704790EA010F48BF81F000413FF530
:100DD000F0AD421A04D882F00042A0EB02001144A8
:100DE0004FEAD0524FF07F4C1CEA410FA2EBD15397
:100DF00018BF9CEA026F4AD04FF0004C4CEA00202A
:100E00004CEA012121FA03FCB0EB0C0C0FD412F0D8
:100E1000FE0F36D05FEA4C001DD5001240EBC250E9
:100E200038BF70471CF03F0F18BF70470BE0A2F1AE
:100E300001025FEA1C2040EBC25038BF70471CF033
:100E40007F0F18BF7047C3F12003994014BF401EA5
:100E500020F00100704780084FEA122308BF704756
:100E6000B0FA80FCA2EB0C02CCF1280C60FA0CF07A
:100E700093EA122F04BF00EBC25070474FEAC370D1
:100E80007047130A5FEADC1008BF7047F6E79CEA78
:100E9000026F04D010EA5C0F08BF0020704710B545
:100EA000FFF745FF40DFF63E81F00040704700004D
:100EB000D00E0008000000200400000028010008F7
:100EC000D40E00080400002064060000440100085D
:040ED000010000001D
:040000050800018965
:00000001FF
