:020000040800F2
:10000000280A0024390300087B2E0008732E0008FC
:10001000772E0008310500080944000800000000A0
:10002000000000000000000000000000812E000819
:1000300035050008000000007F2E0008832E000810
:100040005F0300085F0300085F0300085F03000808
:100050005F0300085F0300085F0300085F030008F8
:100060005F0300085F0300085F0300085F030008E8
:100070005F0300085F0300085F0300085F030008D8
:100080005F0300085F0300085F0300085F030008C8
:100090005F0300085F0300085F0300085F030008B8
:1000A0005F0300085F0300085F0300085F030008A8
:1000B0005F0300085F0300085F0300085F03000898
:1000C0005F0300085F0300085F0300085F03000888
:1000D0005F030008B94300085F0300085F030008DE
:1000E0005F0300085F030008000000005F030008D2
:1000F000892F00085F0300085F0300085F03000802
:100100005F0300085F0300085F0300085F03000847
:100110005F0300085F0300085F0300085F03000837
:100120005F0300085F0300085F0300085F03000827
:100130005F0300085F0300085F0300085F03000817
:1001400000000000000000000000000000000000AF
:100150005F0300085F0300085F0300085F030008F7
:100160005F0300085F0300085F0300085F030008E7
:100170005F0300085F0300085F0300080000000041
:100180005F0300085F0300085F0300085F030008C7
:100190005F0300085F0300085F0300085F030008B7
:1001A0005F0300085F0300085F0300085F030008A7
:1001B0005F0300085F0300085F0300085F03000897
:1001C0005F0300085F0300085F0300085F03000887
:1001D0005F0300085F0300085F0300085F03000877
:1001E0005F0300085F0300085F0300085F03000867
:1001F0005F0300085F0300085F0300085F03000857
:100200005F0300085F0300085F0300085F03000846
:100210005F0300085F0300085F0300085F03000836
:100220005F0300085F0300085F0300080000000090
:100230005F0300085F030008000000005F03000880
:100240005F0300085F0300085F0300085F03000806
:100250005F0300085F0300085F0300085F030008F6
:100260005F0300085F0300085F0300085F030008E6
:100270005F0300085F0300085F0300080000000040
:100280005F0300085F0300085F0300080000000030
:10029000000000005F03000800F002F800F03CF8E6
:1002A0000AA090E8000C82448344AAF10107DA45D1
:1002B00001D100F031F8AFF2090EBAE80F0013F0E7
:1002C000010F18BFFB1A43F001031847AC480000A8
:1002D000CC480000103A24BF78C878C1FAD8520739
:1002E00024BF30C830C144BF04680C6070470000B0
:1002F0000023002400250026103A28BF78C1FBD82F
:10030000520728BF30C148BF0B6070471FB504F0CB
:1003100019FC1FBD10B510BD00F0D7F81146FFF74E
:10032000F5FF04F075FA00F0F5F803B4FFF7F2FFFB
:1003300003BC04F087F80000DFF83000016841F4E6
:10034000700101600A4880470A480047FEE7FEE75F
:10035000FEE7FEE7FEE7FEE7FEE7FEE7FEE7FEE775
:1003600005480649044A064B7047000088ED00E046
:100370008D2E00089902000828020024280A002473
:1003800028020024704753EA020C00F069802DE92E
:10039000F04B4FF00006002B1FBFB3FA83F503FAB2
:1003A00005F424FA05F65E4012BF1643B2FA82F550
:1003B00002FA05F4C5F120051EBF22FA05FC44EA45
:1003C0000C04203556EA044C4FEA144418BF641C50
:1003D0004FF000084FF00009904271EB030C39D345
:1003E000002919BFB1FA81F701FA07F6B0FA80F7D0
:1003F00000FA07F6C7F120071EBF20FA07FC46EAFD
:100400000C062037B6FBF4FCA7EB0507103F07F0FE
:100410001F0BCBF120060CFA0BFB2CFA06F644BF9F
:10042000B3460026202FA4BF5E464FF0000B5BEAC8
:10043000060C08BF4FF0010B19EB0B09ABFB027C5C
:1004400048EB0608C01B06FB02CC0BFB03CC71EB90
:100450000C01C1E70B46024641464846BDE8F08B19
:1004600013B54FF000004FF00001AFF30080BDE87E
:100470001C4070474FF0000200B513469446964664
:10048000203922BFA0E80C50A0E80C50B1F12001A7
:10049000BFF4F7AF090728BFA0E80C5048BF0CC055
:1004A0005DF804EB890028BF40F8042B08BF7047B3
:1004B00048BF20F8022B11F0804F18BF00F8012B25
:1004C00070477047704770477047754600F02CF8CA
:1004D000AE4605006946534620F00700854618B031
:1004E00020B5FFF73DFFBDE820404FF000064FF07C
:1004F00000074FF000084FF0000B21F00701AC4659
:10050000ACE8C009ACE8C009ACE8C009ACE8C00977
:100510008D46704710B50446AFF300802046BDE815
:100520001040FFF702BF000000487047C8010024D8
:1005300000BFFEE7704700002DE9F041044600F0DF
:100540005BFD804614B90120BDE8F08194F83500C8
:10055000022808D08020606500BF002084F83400A5
:1005600000BF0120F0E7FE492068884249D0FC49DD
:1005700018312068884244D0F949303120688842D7
:100580003FD0F7494831206888423AD0F449603179
:100590002068884235D0F24978312068884230D0CE
:1005A000EF499031206888422BD0ED49A83120686E
:1005B000884226D0EB492068884222D0E949183188
:1005C000206888421DD0E74930312068884218D021
:1005D000E44948312068884213D0E24960312068FC
:1005E00088420ED0DF4978312068884209D0DD4941
:1005F00090312068884204D0DA49A83120688842C6
:1006000001D1012000E0002068B12068006820F0DE
:100610001E00216808602068406920F08000216881
:100620004861256806E02068006820F00E00216817
:1006300008602568CA492068884270D0C8491831C6
:10064000206888426BD0C64930312068884266D025
:10065000C34948312068884261D0C149603120686F
:1006600088425CD0BE4978312068884257D0BC4966
:1006700090312068884252D0B949A8312068884218
:100680004DD0B8492068884249D0B6491831206811
:10069000884244D0B3493031206888423FD0B149C4
:1006A0004831206888423AD0AE496031206888429B
:1006B00035D0AC4978312068884230D0A949903192
:1006C000206888422BD0A749A8312068884226D0CC
:1006D000A5492068884222D0A34914312068884265
:1006E0001DD0A14928312068884218D09E493C314C
:1006F0002068884213D09C495031206888420ED02F
:10070000994964312068884209D097497831206836
:10071000884204D094498C312068884201D101205C
:1007200000E0002028B1206E006820F48070216E67
:1007300008608B492068884249D08949183120686F
:10074000884244D086493031206888423FD084496D
:100750004831206888423AD0814960312068884217
:1007600035D07F4978312068884230D07C4990313B
:10077000206888422BD07A49A8312068884226D048
:1007800078492068884222D076491831206888420A
:100790001DD0744930312068884218D071494831E1
:1007A0002068884213D06F496031206888420ED09B
:1007B0006C4978312068884209D06A4990312068B4
:1007C000884204D06749A8312068884206D1206851
:1007D000006820F001002168086005E020680068DA
:1007E00020F001002168086011E000F005FCA0EB9A
:1007F000080005280BD920206065032084F8350007
:1008000000BF002084F8340000BF01209CE6286867
:1008100000F001000028E8D151492068884249D001
:100820004F4918312068884244D04D493031206802
:1008300088423FD04A494831206888423AD04849E6
:1008400060312068884235D0454978312068884237
:1008500030D043499031206888422BD04049A8319C
:100860002068884226D03F492068884222D03D49EE
:100870001831206888421DD03A49303120688842BA
:1008800018D0384948312068884213D03549603142
:10089000206888420ED0334978312068884209D0D8
:1008A000304990312068884204D02E49A831206810
:1008B000884201D1012000E0002040B1A66D94F8EB
:1008C0005C0000F01F013F208840B06007E0A76D8A
:1008D00094F85C0000F01F010120884078602049F6
:1008E0002068884276D01E4918312068884271D02D
:1008F0001B493031206888426CD019494831206842
:10090000884267D0164960312068884262D0144915
:100910007831206888425DD0114990312068884242
:1009200058D00F49A8312068884253D00D4920681B
:1009300088424FD00B491831206888424AD0094973
:1009400030312068884245D00649483120688842C5
:1009500040D004496031206888423BD0014905E01D
:1009600010000240100402400854025878312068F8
:1009700088422FD02549206888422BD0234918313E
:100980002068884226D022492068884222D0204907
:100990001431206888421DD01D49283120688842C2
:1009A00018D01B493C312068884213D01849503177
:1009B000206888420ED0164964312068884209D0E8
:1009C000134978312068884204D011498C3120685D
:1009D000884201D1012000E0002068B1D4E919105B
:1009E0004860E06E40B1E06E006820F48070E16E17
:1009F0000860D4E91C104860012084F8350000BF6D
:100A0000002084F8340000BF00BF9DE5A004024030
:100A10000854025870B504460CB9012070BD94F812
:100A20003500022803D0802060650120F6E7DC490C
:100A30002068884249D0DA4918312068884244D079
:100A4000D7493031206888423FD0D54948312068A5
:100A500088423AD0D24960312068884235D0D049A6
:100A600078312068884230D0CD4990312068884262
:100A70002BD0CB49A8312068884226D0C9492068AC
:100A8000884222D0C7491831206888421DD0C54904
:100A900030312068884218D0C249483120688842E5
:100AA00013D0C0496031206888420ED0BD497831EA
:100AB0002068884209D0BB4990312068884204D020
:100AC000B849A8312068884201D1012000E0002007
:100AD000F0B3042084F83500B149206888424BD037
:100AE000AF4918312068884246D0AD49303120687E
:100AF000884241D0AA494831206888423CD0A84960
:100B000060312068884237D0A54978312068884212
:100B100032D0A3499031206888422DD0A049A83115
:100B20002068884228D09F492068884224D09D4967
:100B30001831206888421FD09A4930312068884295
:100B40001AD0984948312068884215D0954900E06C
:100B500020E06031206888420ED0924978312068C8
:100B6000884209D08F4990312068884204D08D494D
:100B7000A8312068884206D12068006820F0010072
:100B80002168086009E12068006820F00100216800
:100B9000086002E12068006820F00E00216808600B
:100BA0007F492068884249D07D49183120688842B1
:100BB00044D07B493031206888423FD07849483161
:100BC000206888423AD0764960312068884235D022
:100BD000734978312068884230D07149903120685B
:100BE00088422BD06E49A8312068884226D06D49B2
:100BF0002068884222D06B491831206888421DD075
:100C0000684930312068884218D0664948312068E8
:100C1000884213D063496031206888420ED0614910
:100C200078312068884209D05E4990312068884236
:100C300004D05C49A8312068884206D12068006849
:100C400020F001002168086005E02068006820F0BD
:100C500001002168086052492068884270D05049DC
:100C60001831206888426BD04D4930312068884265
:100C700066D04B4948312068884261D0484960318C
:100C8000206888425CD0464978312068884257D035
:100C9000434990312068884252D04149A8312068A8
:100CA00088424DD03F492068884249D03D4918319B
:100CB0002068884244D03B493031206888423FD088
:100CC00038494831206888423AD036496031206836
:100CD000884235D0334978312068884230D0314954
:100CE0009031206888422BD02E49A8312068884254
:100CF00026D02D492068884222D02B491431206803
:100D000088421DD0284928312068884218D02649B9
:100D10003C312068884213D02349503120688842F2
:100D20000ED0214964312068884209D01E497831AB
:100D30002068884204D01C498C312068884201D147
:100D4000012000E00020D8B1206E006820F48070FF
:100D5000216E0860A56D94F85C0000F01F01012071
:100D600088406860D4E919104860E06E40B1E06ED8
:100D7000006820F48070E16E0860D4E91C104860BF
:100D8000012084F8350000BF002084F8340000BF43
:100D9000206D10B12046216D884700203EE60000FE
:100DA0001000024010040240085402580348006832
:100DB00040F001000149086070470000200400581D
:100DC000F8B502460B4600216F4DD7E001278F4052
:100DD0001E6806EA0704002C72D01E7906F003068E
:100DE000012E04D01E7906F00306022E13D190685E
:100DF0004F000326BE40B0434F00DE68BE40304384
:100E00009060506801268E40B0431E79C6F30016EC
:100E10008E40304350601E7906F00306032E09D041
:100E2000D0684F000326BE40B0434F009E68BE40CE
:100E30003043D0601E7906F00306022E13D1CF088E
:100E400002F1200656F827004E07F70E0F26BE4087
:100E5000B0434F07FF0E1E69BE403043CF0802F17A
:100E6000200646F8270010684F000326BE40B04316
:100E70001E7906F003064F00BE40304310605E68E6
:100E800006F44036002E78D000BF404E366846F05B
:100E900002063E4F3E603E46366806F00206009669
:100EA00000BF00BF3A4E8F0856F827008E07370F55
:100EB0000F26BE40B043374EB24202D100262EE08C
:100EC0005BE0354EB24201D1012628E0334EB242FA
:100ED00001D1022623E0324EB24201D103261EE0A8
:100EE000304EB24201D1042619E02F4EB24201D158
:100EF000052614E02D4EB24201D106260FE02C4EFD
:100F0000B24201D107260AE02A4EB24201D1082698
:100F100005E0294EB24201D1092600E00A268F07DA
:100F20003F0FBE4030431A4E8F0846F827004FF05F
:100F3000B0463068A0435E6806F4801606B12043D0
:100F40004FF0B04630607068A0435E6806F400164B
:100F500006B120434FF0B04670606868A0435E68F9
:100F600006F4003606B1204368602868A0435E6836
:100F700006F4803606B120432860491C1E68CE4026
:100F8000002E7FF423AFF8BD80000058F4440258CF
:100F900008040058000002580004025800080258D3
:100FA000000C025800100258001402580018025891
:100FB000001C0258002002580024025802461369FF
:100FC0000B400BB1012000E00020704710B54269D2
:100FD00021EA020302EA010443EA0443836110BDEB
:100FE0000AB1816101E00B04836170470148006828
:100FF000000C70470010005C01480068704700005A
:101000001400002403480068034909780844014992
:1010100008607047140000241C00002410B505204F
:1010200000F0AAF800F0E2FC10490968C1F30321BE
:101030000F4A515C01F01F0120FA01F40B480068CF
:1010400000F00F001146085C00F01F0024FA00F0C9
:1010500008490860084804600F2000F00FF808B144
:10106000012010BD00F036F80020FAE718440258BD
:101070004E4B0008040000240000002470B5044614
:101080001148007808B9012070BD0F4800784FF46E
:101090007A71B1FBF0F00D490968B1FBF0F5284613
:1010A00001F0BAF908B10120EEE7102C07D20022B6
:1010B0002146501E00F023F80548046001E001209D
:1010C000E2E70020E0E700001C000024000000240C
:1010D0001800002470470146084600280DDB00BFB9
:1010E00000BF00F01F0301229A4043099B0003F157
:1010F000E023C3F8002100BF00BF00BF70472DE907
:10110000F05F80460D46164603F080F907463946E3
:101110002A46334601F00700C0F1070ABAF1040F6E
:1011200002D94FF0040A01E0C0F1070AD14600F1EC
:10113000040ABAF1070F02D24FF0000A01E0A0F151
:10114000030AD4464FF0010A0AFA09FAAAF1010A81
:101150000AEA020A0AFA0CFA4FF0010B0BFA0CFB2E
:10116000ABF1010B0BEA030B4AEA0B0421464046A4
:1011700003F054F9BDE8F09F00BF00F00702064BF2
:1011800019684FF6FF031940044B0B4343EA022151
:10119000014B196000BF70470CED00E00000FA053C
:1011A0000348006840F08070014908607047000003
:1011B0000C48025810B500F0CFFB05490968C1F38F
:1011C0000211044A515C01F01F01C84010BD00002B
:1011D000204402584E4B000870B50146844D2D68DE
:1011E00005F00303824D2D68C5F30530804D2D1D9C
:1011F0002D68C5F300147E4D14352D68C5F3CC055C
:1012000015FB04F501EE105AB8EE411AF0EE410A52
:1012100000286FD023B1012B4ED0022B6BD16BE095
:10122000734D283D2D68C5F340153DB3704D283DE5
:101230002D68C5F3C1066F4D25FA06F201EE102A9E
:10124000F8EE411A01EE100AB8EE411A81EE812A39
:101250009FED691AC0EE811A654D10352D68C5F3F2
:10126000080501EE105AB8EE411A31EE811AF7EE78
:10127000001A31EE211A22EE010A1CE001EE100ADA
:10128000B8EE411ADFED5D1A81EE812A9FED5A1A00
:10129000C0EE811A564D10352D68C5F3080501EED4
:1012A000105AB8EE411A31EE811AF7EE001A31EEFB
:1012B000211A22EE010A5BE001EE100AB8EE411A93
:1012C000DFED4F1A81EE812A9FED4B1AC0EE811A95
:1012D000474D10352D68C5F3080501EE105AB8EEDC
:1012E000411A31EE811AF7EE001A31EE211A22EE80
:1012F000010A3DE077E01DE001EE100AB8EE411A68
:101300009FED402AC2EE011A9FED3B1A80EE812A22
:10131000374D10352D68C5F3080501EE105AB8EEAB
:10132000411A32EE011AB7EE002A31EE021A21EE0E
:10133000810A1DE001EE100AB8EE411ADFED301A05
:1013400081EE812A9FED2C1AC0EE811A284D1035AE
:101350002D68C5F3080501EE105AB8EE411A31EEBA
:10136000811AF7EE001A31EE211A22EE010A00BFAF
:1013700000BF1F4D10352D68C5F3462501EE105AEC
:10138000B8EE411AF7EE001A31EE211AC0EE011A3A
:10139000BCEEE11A81ED001A154D10352D68C5F32C
:1013A000064501EE105AB8EE411AF7EE001A31EE7A
:1013B000211AC0EE011ABCEEE11A81ED011A0C4DA2
:1013C00010352D68C5F3066501EE105AB8EE411AC6
:1013D000F7EE001A31EE211AC0EE011ABCEEE11A46
:1013E00081ED021A03E000250D604D608D6070BD37
:1013F000284402580090D003000000460024744C9A
:101400000024744A20BCBE4B70B50146844D2D6843
:1014100005F00303824D2D68C5F30550804D2D1D49
:101420002D68C5F300247E4D1C352D68C5F3CC0511
:1014300015FB04F501EE105AB8EE411AF0EE410A20
:1014400000286FD023B1012B4ED0022B6BD16BE063
:10145000734D283D2D68C5F340153DB3704D283DB3
:101460002D68C5F3C1066F4D25FA06F201EE102A6C
:10147000F8EE411A01EE100AB8EE411A81EE812A07
:101480009FED691AC0EE811A654D18352D68C5F3B8
:10149000080501EE105AB8EE411A31EE811AF7EE46
:1014A000001A31EE211A22EE010A1CE001EE100AA8
:1014B000B8EE411ADFED5D1A81EE812A9FED5A1ACE
:1014C000C0EE811A564D18352D68C5F3080501EE9A
:1014D000105AB8EE411A31EE811AF7EE001A31EEC9
:1014E000211A22EE010A5BE001EE100AB8EE411A61
:1014F000DFED4F1A81EE812A9FED4B1AC0EE811A63
:10150000474D18352D68C5F3080501EE105AB8EEA1
:10151000411A31EE811AF7EE001A31EE211A22EE4D
:10152000010A3DE077E01DE001EE100AB8EE411A35
:101530009FED402AC2EE011A9FED3B1A80EE812AF0
:10154000374D18352D68C5F3080501EE105AB8EE71
:10155000411A32EE011AB7EE002A31EE021A21EEDC
:10156000810A1DE001EE100AB8EE411ADFED301AD3
:1015700081EE812A9FED2C1AC0EE811A284D183574
:101580002D68C5F3080501EE105AB8EE411A31EE88
:10159000811AF7EE001A31EE211A22EE010A00BF7D
:1015A00000BF1F4D18352D68C5F3462501EE105AB2
:1015B000B8EE411AF7EE001A31EE211AC0EE011A08
:1015C000BCEEE11A81ED001A154D18352D68C5F3F2
:1015D000064501EE105AB8EE411AF7EE001A31EE48
:1015E000211AC0EE011ABCEEE11A81ED011A0C4D70
:1015F00018352D68C5F3066501EE105AB8EE411A8C
:10160000F7EE001A31EE211AC0EE011ABCEEE11A13
:1016100081ED021A03E000250D604D608D6070BD04
:10162000284402580090D003000000460024744C67
:101630000024744A20BCBE4B2DE9F04104460D46FF
:1016400014B90120BDE8F081BD48006800F00F002A
:10165000A8420ED2BA48006820F00F002843B849CB
:1016600008600846006800F00F00A84201D0012081
:10167000E8E7207800F0040004280ED1B149206981
:10168000096801F07001884207D9AE48006820F06F
:10169000700021690843AB490860207800F0080019
:1016A000082811D1A749091D6069096801F0700176
:1016B000884209D9A348001D006820F070006169C4
:1016C0000843A049091D0860207800F01000102888
:1016D00011D19C49091DA069096801F4E0618842A3
:1016E00009D99848001D006820F4E060A16908430A
:1016F0009449091D0860207800F02000202811D1AD
:1017000090490831E069096801F07001884209D9FF
:101710008C480830006820F07000E169084389496E
:1017200008310860207800F0020002280ED18549B7
:10173000E068096801F00F01884207D98148006814
:1017400020F00F00E16808437E490860207800F02F
:101750000100002850D07B48006820F47060A16828
:101760000843784908606068022807D1754818382E
:101770000068C0F34040F8B9012063E760680328BF
:1017800007D1704818380068C0F34060A0B9012044
:1017900058E76068012807D16A4818380068C0F324
:1017A000002048B901204DE7664818380068C0F3AA
:1017B000800008B9012045E762480838006820F039
:1017C0000700616808435F4908390860FFF714FCA7
:1017D000064608E0FFF710FC801B41F28831884282
:1017E00001D903202EE757480838006800F0380078
:1017F0006168B0EBC10FEDD1207800F00200022843
:101800000ED15049E068096801F00F01884207D203
:101810004C48006820F00F00E1680843494908601F
:101820004748006800F00F00A8420ED944480068FD
:1018300020F00F002843424908600846006800F085
:101840000F00A84201D00120FCE6207800F004003F
:1018500004280ED13B492069096801F070018842D3
:1018600007D23848006820F07000216908433549E4
:101870000860207800F00800082811D13149091DBE
:101880006069096801F07001884209D22D48001D85
:10189000006820F07000616908432A49091D08604A
:1018A000207800F01000102811D12649091DA069E8
:1018B000096801F4E061884209D22248001D0068ED
:1018C00020F4E060A16908431E49091D08602078E2
:1018D00000F02000202811D11A490831E069096878
:1018E00001F07001884209D216480830006820F0E3
:1018F0007000E169084313490831086000F076F888
:1019000010490968C1F303210F4A515C01F01F011E
:1019100020FA01F70B48006800F00F001146085C40
:1019200000F01F0027FA00F0084908600848076027
:1019300008480068FFF7A2FB8046404682E60000A8
:1019400000200052184402584E4B000804000024A6
:10195000000000241800002410B500F047F80D49DD
:101960000968C1F303210C4A515C01F01F0120FA00
:1019700001F40848006800F00F001146085C00F010
:101980001F0024FA00F00549086005480460084675
:10199000006810BD184402584E4B00080400002493
:1019A0000000002400B5FFF7D7FF05490968C1F31F
:1019B0000211044A515C01F01F01C84000BD000043
:1019C0001C4402584E4B000800B5FFF7C5FF0549FF
:1019D0000968C1F30221044A515C01F01F01C840AB
:1019E00000BD00001C4402584E4B0008F0B5824E6A
:1019F000366806F0380636B1082E15D0102E15D0F0
:101A0000182E7DD114E07C4E103E3668C6F3401689
:101A100046B1794E103E3668C6F3C107774E26FAB6
:101A200007F000E07548E5E07548E3E07548E1E05F
:101A3000714E1836366806F003046F4E1836366855
:101A4000C6F305116C4E1C36366806F001056A4E69
:101A500024363668C6F3CC0616FB05F601EE106A8E
:101A6000B8EE410A002971D024B1012C50D0022CCB
:101A70006DD16DE0604E103E3668C6F340163EB341
:101A80005D4E103E3668C6F3C1075C4E26FA07F37A
:101A900001EE103AF8EE411A01EE101AB8EE411AB2
:101AA00081EE812A9FED581AC0EE011A524E20365F
:101AB0003668C6F3080601EE106AB8EE411A31EE38
:101AC000811AF7EE001A31EE211A62EE010A1EE0C9
:101AD00001EE101AB8EE411ADFED4C1A81EE812AA0
:101AE0009FED491AC0EE011A434E20363668C6F300
:101AF000080601EE106AB8EE411A31EE811A00E0D4
:101B000076E0F7EE001A31EE211A62EE010A5BE090
:101B100001EE101AB8EE411A9FED3D2AC2EE011AED
:101B20009FED391A80EE012A334E20363668C6F30F
:101B3000080601EE106AB8EE411A32EE011AB7EE4D
:101B4000002A31EE021A61EE810A3DE04EE01DE00E
:101B500001EE101AB8EE411ADFED2E1A81EE812A3D
:101B60009FED291AC0EE011A234E20363668C6F3BF
:101B7000080601EE106AB8EE411A31EE811AF7EE4E
:101B8000001A31EE211A62EE010A1DE001EE101A70
:101B9000B8EE411A9FED1E2AC2EE011A9FED1A1AE5
:101BA00080EE012A144E20363668C6F3080601EE90
:101BB000106AB8EE411A32EE011AB7EE002A31EE81
:101BC000021A61EE810A00BF00BF0B4E2036366854
:101BD000C6F34626721C01EE102AB8EE411AC0EE7A
:101BE000811ABCEEE11A11EE100A00E0002001E0BB
:101BF000034800BF00BFF0BD104402580090D0035E
:101C000000093D0040787D01000000460024744C2E
:101C10000024744A20BCBE4B2DE9F047044614B999
:101C20000120BDE8F087207800F00100002870D086
:101C3000FA48006800F03808F8481830D0F80090EA
:101C4000B8F1100F06D0B8F1180F0FD109F003004A
:101C500002280BD1F14810380068C0F3404000283A
:101C60006AD06068002867D10120DAE700BF6068A9
:101C7000B0F5803F08D1E9481038006840F4803062
:101C8000E649103908602EE0606868B9E34810380A
:101C9000006820F48030E149103908600846006887
:101CA00020F4802008601EE06068B0F5A02F0DD100
:101CB000DA481038006840F48020D84910390860AC
:101CC0000846006840F4803008600CE0D3481038C3
:101CD000006820F48030D149103908600846006857
:101CE00020F48020086000BF606898B1FFF784F995
:101CF000054606E0FFF780F9401B642801D9032060
:101D00008FE7C64810380068C0F340400028F1D083
:101D100012E012E0FFF770F9054606E0FFF76CF9F4
:101D2000401B642801D903207BE7BC4810380068B9
:101D3000C0F340400028F1D100BF207800F002003D
:101D4000022874D1B548006800F03808B34818304C
:101D5000D0F80090B8F1000F05D0B8F1180F56D1A7
:101D600009F00300D0BBAD4810380068C0F3800014
:101D700018B1E06808B9012053E7A8481038006896
:101D800020F01900E1680843A44910390860FFF702
:101D900033F9054606E0FFF72FF9401B022801D969
:101DA00003203EE79D4810380068C0F380000028FB
:101DB000F1D000BFFFF71AF941F2030188421AD8A7
:101DC000206940280BD195480C38006820F47C30FD
:101DD00040F4003091490C39086017E017E08F4853
:101DE0000C38006820F47C30216940EA01308B49CE
:101DF0000C3908600AE089480C38006820F0FE4081
:101E0000217C40EA016085490C39086066E0E068A1
:101E100088B382481038006820F01900E168084350
:101E20007E4910390860FFF7E7F8054607E056E0FD
:101E3000FFF7E2F8401B022801D90320F1E67748BA
:101E400010380068C0F380000028F1D000BFFFF711
:101E5000CDF841F2030188421AD8206940280BD1FD
:101E60006E480C38006820F47C3040F400306B4938
:101E70000C39086017E017E068480C38006820F457
:101E80007C30216940EA013064490C3908600AE07D
:101E900062480C38006820F0FE40217C40EA016076
:101EA0005E490C39086019E05C481038006820F081
:101EB00001005A4910390860FFF79EF8054606E010
:101EC000FFF79AF8401B022801D90320A9E65348DE
:101ED00010380068C0F380000028F1D100BF2078DE
:101EE00000F0100010287CD14C48006800F0380841
:101EF0004A481830D0F80090B8F1080F06D0B8F171
:101F0000180F3DD109F00300012839D1434810389A
:101F10000068C0F3002020B1E069802801D00120D2
:101F20007FE600BFFFF762F841F2030188421AD84A
:101F3000206A20280AD139480C38006820F0F8407F
:101F400040F0804035490C39086018E033480C38BF
:101F5000006820F0F84094F8201040EA81602F4992
:101F60000C3908600BE02D48001F006820F07C5001
:101F700094F8201040EA01602849091F086066E0D3
:101F8000E06978B325481038006840F080002349A4
:101F900010390860FFF730F8054606E0FFF72CF827
:101FA000401B022801D903203BE61C48103800687A
:101FB000C0F300200028F1D000BFFFF717F841F26E
:101FC000030188421CD8206A20280CD113480C3801
:101FD000006820F0F84040F0804010490C3908605B
:101FE0001AE035E01CE00D480C38006820F0F8409D
:101FF00094F8201040EA816008490C3908600BE031
:102000000648001F006820F07C5094F8201040EA39
:1020100001600249091F086019E0000010440258DD
:10202000FA48006820F08000F8490860FEF7E4FFF5
:10203000054606E0FEF7E0FF401B022801D9032019
:10204000EFE5F2480068C0F300200028F2D100BF9D
:10205000207800F00800082836D16069D0B1EB483C
:102060007430006840F00100E84974310860FEF700
:10207000C3FF054606E0FEF7BFFF401B022801D95B
:102080000320CEE5E14874300068C0F3400000282A
:10209000F1D019E0DD487430006820F00100DB4920
:1020A00074310860FEF7A8FF054606E0FEF7A4FFBE
:1020B000401B022801D90320B3E5D44874300068DE
:1020C000C0F340000028F1D1207800F02000202843
:1020D00030D1A069B8B1CD48006840F48050CB49F8
:1020E0000860FEF789FF054606E0FEF785FF401B06
:1020F000022801D9032094E5C4480068C0F34030A9
:102100000028F2D016E0C148006820F48050BF4992
:102110000860FEF771FF054606E0FEF76DFF401B05
:10212000022801D903207CE5B8480068C0F340309C
:102130000028F2D1207800F0040004287DD1B448B2
:10214000006840F48070B2490860FEF755FF05460C
:1021500006E0FEF751FF401B642801D9032060E52B
:10216000AB48006800F480700028F2D000BFA0687F
:10217000012808D1A5487030006840F00100A3494B
:10218000703108602DE0A06868B9A0487030006820
:1021900020F001009D49703108600846006820F079
:1021A000040008601DE0A06805280DD19748703034
:1021B000006840F0040095497031086008460068E6
:1021C00040F0010008600CE090487030006820F09A
:1021D00001008E49703108600846006820F0040054
:1021E000086000BFA068A0B1FEF706FF054608E042
:1021F000FEF702FF401B41F28831884201D90320DB
:102200000FE5824870300068C0F340000028EFD02E
:1022100013E0FEF7F1FE054608E0FEF7EDFE401B79
:1022200041F28831884201D90320FAE477487030BE
:102230000068C0F340000028EFD1606A00287DD01C
:1022400072481030006800F03800182877D0606AB3
:10225000022875D16D48006820F080706B490860D5
:10226000FEF7CAFE054606E0FEF7C6FE401B022842
:1022700001D90320D5E465480068C0F34060002818
:10228000F2D100BFD4E90A1041EA00105F492831B9
:10229000096840F2F332914308435C4928310860F1
:1022A000208E401EC0F30800616B491E4FF47E4231
:1022B00002EA41210843218F491ED20102EA01416D
:1022C00008433C21095D491E120202EA01610843EC
:1022D0004E493031086000BF081F006820F001003F
:1022E000091F08604948343000684FF6F871884388
:1022F000A16C40EAC10045493431086043482C30A4
:10230000006820F00C00216C084340492C31086023
:102310000846006820F00200616C08433B492C31FC
:1023200008600846006840F480300860084600688D
:1023300040F4003008600846006802E06AE038E0D7
:102340001FE040F4802008600846006840F001006B
:1023500008602E48006840F080702C490860FEF745
:102360004BFE054606E0FEF747FE401B022801D95A
:10237000032056E425480068C0F340600028F2D0EE
:1023800048E02248006820F0807020490860FEF78D
:1023900033FE054606E0FEF72FFE401B022801D95A
:1023A00003203EE419480068C0F340600028F2D1E1
:1023B00030E0164828300768144830300668606AF4
:1023C000012821D007F00301A06A81421CD1C7F384
:1023D0000511E06A884217D1C6F30801206B401E40
:1023E000814211D1606B401EC6F3462188420BD159
:1023F000A06B401EC6F30641884205D1E06B401E2B
:10240000C6F30661884205D001200AE40044025860
:1024100000480258002004E470B504462546681EB2
:10242000B0F1807F01D301200FE0681E4FF0E02162
:1024300048610F214FF0FF3001F0F0FF00204FF016
:10244000E021886107200861002070BD024600BFBE
:1024500092F83C00012801D102207047012082F847
:102460003C0000BF022082F83D001068416101205D
:1024700082F83D0000BF002082F83C0000BF00BF92
:10248000EBE72DE9F04104460D461646002700BF54
:1024900094F83C00012802D10220BDE8F08101201F
:1024A00084F83C0000BF0C2E51D005DC4EB1042E48
:1024B0001ED0082E7AD133E0102E60D0142EF9D120
:1024C00075E02946206800F019FE2068806940F018
:1024D0000800216888612068806920F00400216874
:1024E000886120688069296908432168886178E0EB
:1024F0002946206800F058FE2068806940F400609A
:10250000216888612068806920F480602168886182
:1025100020688069296940EA01202168886160E0BB
:102520002946206800F09AFE2068C06940F0080043
:102530002168C8612068C06920F004002168C86172
:102540002068C069296908432168C86149E02946B3
:10255000206800F0DDFE2068C06940F4006021685A
:10256000C8612068C06920F480602168C861206863
:10257000C069296940EA01202168C86131E0294623
:10258000206800F0FFFE2068406D40F008002168E0
:1025900048652068406D20F0040021684865206887
:1025A000406D29690843216848651AE017E029460B
:1025B000206800F01FFF2068406D40F40060216833
:1025C00048652068406D20F4806021684865206877
:1025D000406D296940EA01202168486501E0012732
:1025E00000BF00BF00BF002084F83C0000BF384699
:1025F00053E710B504460CB9012010BD94F83D0016
:1026000028B9002084F83C00204600F029F8022078
:1026100084F83D00211D206800F0F8FC012084F8BA
:10262000480000BF84F83E0001213F2001554020B2
:10263000015541200155422001554320015500BF5D
:1026400000BF012084F84400452001554620015573
:102650004720015500BF012084F83D000020CCE751
:102660007047000070B504460D4615B994F83E0059
:1026700015E0042D02D13F20005D10E0082D02D1AD
:102680004020005D0BE00C2D02D14120005D06E0F2
:10269000102D02D14220005D01E04320005D0128A1
:1026A00001D0012070BD1DB9022084F83E001AE05F
:1026B000042D03D102213F20015514E0082D03D140
:1026C0000221402001550EE00C2D03D102214120B2
:1026D000015508E0102D03D102214220015502E0EE
:1026E00002214320015501222946206800F0F4FC14
:1026F0002B49206888420FD02A49206888420BD095
:1027000029492068884207D028492068884203D098
:1027100027492068884201D1012000E0002028B12B
:102720002068406C40F40040216848641C492068DF
:1027300088421BD02068B0F1804F17D01D49206817
:10274000884213D01C49206888420FD01B4920685A
:1027500088420BD013492068884207D01849206866
:10276000884203D010492068884210D120688068D0
:10277000144900EA0106062E0FD0B6F5803F0CD0B2
:102780002068006840F001002168086005E02068CA
:10279000006840F0010021680860002082E7000026
:1027A000000001400004014000400140004401409D
:1027B000004801400004004000080040000C0040B8
:1027C00000180040070001007047704770477047CD
:1027D00070470146D1F88430D1F8882043EA0200DE
:1027E000704700002DE9F04704462068C56920685D
:1027F00006682068876840F60F0005EA0009B9F10D
:10280000000F0FD105F0200060B106F0200010B9D4
:1028100007F0805030B1206F10B12046216F8847FB
:10282000BDE8F087B9F1000F7ED0F948384018B9FB
:10283000F84830400028F7D005F0010058B106F400
:10284000807040B1012021680862D4F88C0040F00B
:102850000100C4F88C0005F0020058B107F0010037
:1028600040B1022021680862D4F88C0040F00400D6
:10287000C4F88C0005F0040058B107F0010040B125
:10288000042021680862D4F88C0040F00200C4F8EB
:102890008C0005F0080070B106F0200010B9DC488B
:1028A000384040B1082021680862D4F88C0040F01C
:1028B0000800C4F88C0005F4006060B106F0806088
:1028C00048B14FF4006021680862D4F88C0040F0F1
:1028D0002000C4F88C00D4F88C0000284ED005F0FD
:1028E000200050B106F0200010B907F0805020B150
:1028F000206F10B12046216F8847D4F88CA0206843
:10290000806800F04000402802D00AF0280070B330
:10291000204600F06BFE2068806800F040004028F0
:1029200021D100BF00BF00E029E02168083151E853
:10293000001F21F040002168083141E80002002A10
:10294000F1D100BFE06F50B1B348E16F0865E06FAF
:10295000FEF760F890B1E06F016D88470EE0204609
:10296000FFF736FF0AE02046FFF732FF06E0FFE7F9
:102970002046FFF72DFF0020C4F88C0050E7E06EE2
:10298000012872D105F0100000286ED006F010006A
:102990000028FAD01020216808622068806800F0C2
:1029A000400040287ED1E06F00689C49884258D0A2
:1029B000E06F006899491831884252D0E06F006892
:1029C0009649303188424CD0E06F006893494831D5
:1029D000884246D0E06F006890496031884240D01C
:1029E000E06F00688D49783188423AD0E06F006826
:1029F0008A499031884234D0E06F00688749A83115
:102A000088422ED0E06F00688549884229D0E06F67
:102A1000006883491831884223D0E06F00688049FC
:102A2000303188421DD0E06F00687D4948318842CE
:102A300017D0E06F00687A496031884211D0E06FAA
:102A400000687749783188420BD0E06F006874499C
:102A50009031884205D0E06F00687149A831884202
:102A600004D1E06F0068406803E0A0E0E06F006818
:102A700040681FFA80F8B8F1000F55D0B4F85C0038
:102A8000404551DDA4F85E80E06FC069B0F5807FFD
:102A900041D000BF00BF216851E8001F21F48070C1
:102AA000226800E041E042E800010029F3D100BFC4
:102AB00000BF00BF2168083151E8001F21F001006C
:102AC0002168083141E80002002AF3D100BF00BFAD
:102AD00000BF2168083151E8001F21F04000216843
:102AE000083141E80002002AF3D100BF2020C4F8D9
:102AF00088000020E06600BF00BF216851E8001F89
:102B000021F01000226842E800010029F5D100BF41
:102B1000E06FFDF711FDB4F85C00B4F85E20801A98
:102B200081B22046FFF750FE7AE634F85C0F6188E8
:102B3000401A1FFA80F860885C3CB8B3B8F1000F07
:102B400034D000BF00BF216851E8001F21F490700D
:102B5000226842E800010029F5D100BF00BF00BF94
:102B60002168083151E8001F294AD24301EA0200D6
:102B70002168083141E80002002AF1D100BF20207D
:102B8000C4F888000020E066206700BF00BF21680D
:102B900051E8001F21F01000226842E800010029DE
:102BA000F5D100BF41462046FFF70EFE38E605F49A
:102BB000801050B107F4800038B14FF480102168C4
:102BC00008622046FFF703FE2AE605F0800058B1B0
:102BD00006F0800010B907F4000028B1606F10B152
:102BE0002046616F88471BE605F0400030B106F0D3
:102BF000400018B1204600F02FFD11E605F400005A
:102C000080B106F0804068B12046FFF7DFFD07E69F
:102C10000100001020010004D3350008100002401C
:102C20001004024005F0807030B106F0004018B189
:102C30002046FFF7CAFDF3E500BFF1E510B50446F5
:102C40000CB9012010BDA06900B100E000BFD4F8AC
:102C5000840028B9002084F88000204600F02AF87B
:102C60002420C4F884002068006820F00100216856
:102C70000860204600F0A2FF012800D1E2E7A06A28
:102C800010B1204600F0EEFB2068406820F4904030
:102C9000216848602068806820F02A0021688860E8
:102CA0002068006840F0010021680860204600F0BC
:102CB00055FCC7E710B586B004462B49206888420A
:102CC00050D100BF00BF2948006840F010002749DC
:102CD00008600846006800F01000009000BF00BFC8
:102CE00000BF00BF00BF21481038006840F001005D
:102CF0001E49103908600846006800F00100009085
:102D000000BF00BF00BF00BF00BF0846006840F022
:102D1000010008600846006800F00100009000BF54
:102D200000BF00BF4FF4007001900220029001200C
:102D30000390022004900720059001A90C48FEF79B
:102D40003FF84FF4806001900720059001A90848E2
:102D5000FEF736F82520FEF7BEF90322114625209E
:102D6000FEF7CDF906B010BD00100140F044025846
:102D70000000025870B504460D461646D4F8880087
:102D800020282CD105B10EB9012070BD00BF94F8E8
:102D90008000012801D10220F7E7012084F880009B
:102DA00000BF0020E0660F492068884211D02068EB
:102DB000406800F4000060B100BF00BF216851E826
:102DC000001F41F08060226842E800010029F5D12F
:102DD00000BF32462946204601F0B6F9D5E7022069
:102DE000D3E70000000C00581D4A0168914236D11B
:102DF0001C49098801F4004189BB1A49098801F47A
:102E0000804171B1184909780A2903D00021154A77
:102E1000118024E01349098841F40041114A1180CE
:102E20001DE0114909780D2906D10E49098841F4A0
:102E300080410C4A118012E00B490978094A128836
:102E4000C2F30D02094B995406490988491C054AE9
:102E5000118011460988C72901DD002111807047C2
:102E6000001001401000002412000024240000245F
:102E7000704700BFFEE700BFFEE700BFFEE77047F8
:102E8000704710B5FEF7BEF810BD0000344800686A
:102E900040F47000324908603248006800F00F00CA
:102EA000072806D22F48006820F00F00C01D2D49CA
:102EB00008602D48006840F001002B4908600020A0
:102EC00029491031086028480068284908402649E7
:102ED00008602448006800F00F00072806D9214840
:102EE000006820F00F00C01D1E49086000201E4928
:102EF00018310860091D0860091D08601C481A493E
:102F0000283108601B48091D08601B48091D08601E
:102F10000020091D08601848091D08600020091DCF
:102F200008601548091D08600020091D08600E484A
:102F3000006820F480200C49086000200A496031B4
:102F400008600E4800686FF30F00B0F1005F02D216
:102F500001200B49086043F2D2000A49086070471B
:102F600088ED00E000200052004402587FEDF6EAB0
:102F7000000202020000FF01800201010010005C5B
:102F8000088100510040005210B500241C48006820
:102F9000006900F0010090B31A480068FF2808D9C2
:102FA00018480068A0F58070164908604FF48074D6
:102FB00007E01448007820B1124804780020114935
:102FC00008607CB1601E1049086001210C48FFF7C1
:102FD0003DFA0B480068006840F0010008490968A4
:102FE000086007E008483038006820F00100064912
:102FF000303908606FF0010001490968086110BDAF
:103000007C010024200000243004014010B5026837
:10301000294B98420ED0B0F1804F0BD0274B9842ED
:1030200008D0274B984205D0264B984202D0264B19
:10303000984203D122F070024B681A431E4B98420B
:1030400017D0B0F1804F14D01C4B984211D01C4BBC
:1030500098420ED01B4B98420BD01B4B984208D085
:103060001A4B984205D01A4B984202D0194B9842FD
:1030700003D122F44072CB681A4322F080034C69DA
:1030800043EA040202608B68C3620B6883620A4BE6
:1030900098420BD00C4B984208D00C4B984205D06C
:1030A0000B4B984202D00B4B984201D10B69036342
:1030B0000123436110BD00000000014000040040F6
:1030C00000080040000C00400004014000400140A6
:1030D000004401400048014030B501F01F050124C3
:1030E00004FA05F3046A9C430462046A01F01F05B4
:1030F00002FA05F52C43046230BD000030B5056AC4
:1031000025F001050562026A43688469204D2C4060
:1031100024F003040D682C4322F002028D682A4338
:103120001C4DA84200D10FE01B4DA84200D10BE07E
:103130001A4DA84200D107E0194DA84200D103E082
:10314000184DA84206D100BF22F00802CD682A43DC
:1031500022F004020F4DA8420BD00F4DA84208D018
:103160000E4DA84205D00E4DA84202D00D4DA842EA
:1031700007D123F4807323F400734D692B438D69C9
:103180002B43436084614D684563026230BD00009B
:103190008FFFFEFF0000014000040140004001409D
:1031A000004401400048014030B5056A25F0100593
:1031B0000562026A43688469224D2C4024F44074FD
:1031C0000D6844EA052422F020028D6842EA0512C7
:1031D0001D4DA84200D10FE01C4DA84200D10BE0CC
:1031E0001B4DA84200D100BF1A4DA84200D100BF1C
:1031F000194DA84207D106E022F08002CD6842EACC
:10320000051222F04002104DA8420BD00F4DA842EB
:1032100008D00F4DA84205D00E4DA84202D00E4D49
:10322000A84209D123F4806323F400634D6943EA83
:1032300085038D6943EA8503436084614D68856336
:10324000026230BDFF8FFFFE00000140000401401C
:1032500000400140004401400048014030B5056A8B
:1032600025F480750562026A4368C469224D2C40CA
:1032700024F003040D682C4322F400728D6842EAA6
:1032800005221E4DA84200D10FE01D4DA84200D1DD
:103290000BE01C4DA84200D100BF1B4DA84200D13D
:1032A00000BF1A4DA84207D106E022F40062CD68A3
:1032B00042EA052222F48062104DA8420BD0104D44
:1032C000A84208D00F4DA84205D00F4DA84202D009
:1032D0000E4DA84209D123F4805323F400534D69C5
:1032E00043EA05138D6943EA05134360C4614D68E1
:1032F000C563026230BD00008FFFFEFF0000014089
:1033000000040140004001400044014000480140E9
:1033100030B5056A25F480550562036A4468C269C0
:10332000124D2A4022F440720D6842EA052223F42D
:1033300000538D6843EA05330D4DA8420BD00D4D67
:10334000A84208D00C4DA84205D00C4DA84202D08E
:103350000B4DA84204D124F480444D6944EA8514FD
:103360004460C2614D680564036230BDFF8FFFFE9B
:1033700000000140000401400040014000440140C1
:103380000048014030B5056A25F480350562026ABF
:103390004368446D114D2C400D682C4322F40032DB
:1033A0000D8942EA05420E4DA8420BD00D4DA842B0
:1033B00008D00D4DA84205D00C4DA84202D00C4DAE
:1033C000A84204D123F480334D6943EA05234360C6
:1033D00044654D688565026230BD00008FFFFEFFC9
:1033E0000000014000040140004001400044014051
:1033F0000048014030B5056A25F480150562026A6F
:103400004368446D114D2C400D6844EA052422F4B4
:1034100000120D8942EA05520D4DA8420BD00D4D08
:10342000A84208D00C4DA84205D00C4DA84202D0AD
:103430000B4DA84204D123F480234D6943EA852330
:10344000436044654D68C565026230BDFF8FFFFE75
:1034500000000140000401400040014000440140E0
:103460000048014090F8281001F0010139B10168CD
:10347000496821F40031C26A11430268516090F832
:10348000281001F00201022907D10168496821F4DE
:103490008031026B11430268516090F8281001F0EE
:1034A0000401042907D10168496821F48021426B95
:1034B00011430268516090F8281001F008010829B2
:1034C00007D10168496821F40041826B1143026809
:1034D000516090F8281001F01001102907D10168FF
:1034E000896821F48051C26B11430268916090F8A1
:1034F000281001F02001202907D10168896821F4F2
:103500000051026C11430268916090F8281001F09C
:103510004001402913D10168496821F48011426CAF
:10352000114302685160416CB1F5801F07D10168F9
:10353000496821F4C001826C11430268516090F81F
:10354000281001F08001802907D10168496821F421
:103550000021C26C114302685160704738B50446BF
:103560000020C4F88C00FDF747FD05462068006880
:1035700000F0080008280CD16FF07E402B46002296
:103580004FF400110090204600F096FE08B1032091
:1035900038BD2068006800F0040004280CD16FF0EA
:1035A0007E402B4600224FF480010090204600F020
:1035B00083FE08B10320EBE72020C4F88400C4F8A0
:1035C00088000020E06600BF84F8800000BF00BFD4
:1035D000DEE770B50546AC6B0020A4F85E00A4F8E9
:1035E00056002046FFF7F4F870BD000000BF00BF92
:1035F000026852E8002F22F49071036843E8001239
:10360000002AF5D100BF00BF00BF0268083252E8AF
:10361000002F104B02EA03010268083242E800134F
:10362000002BF2D100BFC16E01290CD100BF00BF39
:10363000026852E8002F22F01001036843E80012EC
:10364000002AF5D100BF2021C0F888100021C166F2
:1036500001677047FEFFFFEF10B5044600BF00BFD3
:10366000216851E8001F21F04000226842E8000173
:103670000029F5D100BF2020C4F884000020606735
:103680002046FFF7F5FB10BD2DE9F0410446B4F8E4
:103690006070D4F88800222857D12068406A86B22A
:1036A000A56D06EA07002880A06D801CA065B4F80F
:1036B0005E00401EA4F85E00B4F85E0000284AD107
:1036C00000BF00BF216851E8001F21F490702268FC
:1036D00042E800010029F5D100BF00BF00BF21680A
:1036E000083151E8001F21F001002168083141E84C
:1036F0000002002AF3D100BF2020C4F88800002077
:103700002067E06E01281CD10020E06600BF00BFEA
:10371000216851E8001F21F01000226842E80001F2
:103720000029F5D100BF2068C069C0F3001010B1B6
:10373000102021680862B4F85C102046FFF744F8B6
:1037400009E02046FFF750FB05E02068806940F063
:10375000080021688861BDE8F08100002DE9F84F7C
:103760000446B4F860B02068C5692068006800901D
:103770002068D0F808A0D4F8880022287ED1B4F8B8
:10378000689096E02068406A1FFA80F8A76D08EA02
:103790000B003880A06D801CA065B4F85E00401E50
:1037A000A4F85E002068C56905F00700B0B305F015
:1037B000010060B1009800F4807040B101202168E0
:1037C0000862D4F88C0040F00100C4F88C0005F0C9
:1037D000020058B10AF0010040B1022021680862DD
:1037E000D4F88C0040F00400C4F88C0005F004000C
:1037F00058B10AF0010040B1042021680862D4F8F1
:103800008C0040F00200C4F88C00D4F88C0028B181
:103810002046FEF7DDFF0020C4F88C00B4F85E00FF
:1038200068BB00BF00BF216851E8001F21F4807011
:10383000226842E800010029F5D100BF00BF00BFA7
:103840002168083151E8001F344A01EA020021686A
:10385000083141E80002002AF2D100BF2020C4F85C
:10386000880000202067E06E01281FD10020E0665C
:1038700000BF00BF216851E8001F01E046E018E0EA
:1038800021F01000226842E800010029F2D100BFB7
:103890002068C069C0F3001010B1102021680862D0
:1038A000B4F85C102046FEF78FFF02E02046FFF7D9
:1038B0009BFAB9F1000F04D005F0200000287FF436
:1038C00061AFB4F85E6006B3B4F86800B04223DDBF
:1038D00000BF00BF2168083151E8001F21F080506F
:1038E0002168083141E80002002AF3D100BF0C48EA
:1038F000206700BF00BF216851E8001F41F0200091
:10390000226842E800010029F5D105E020688069BD
:1039100040F0080021688861BDE8F88FFEFFFFEFE6
:103920008936000870B50446B4F86060D4F88800A1
:10393000222857D12068406A85B2F0B22840A16D94
:103940000870A06D401CA065B4F85E00401EA4F88D
:103950005E00B4F85E0000284AD100BF00BF2168B5
:1039600051E8001F21F49070226842E8000100290C
:10397000F5D100BF00BF00BF2168083151E8001F2A
:1039800021F001002168083141E80002002AF3D14A
:1039900000BF2020C4F8880000202067E06E0128C6
:1039A0001CD10020E06600BF00BF216851E8001F65
:1039B00021F01000226842E800010029F5D100BF83
:1039C0002068C069C0F3001010B11020216808629F
:1039D000B4F85C102046FEF7F7FE09E02046FFF73A
:1039E00003FA05E02068806940F0080021688861DA
:1039F00070BD00002DE9F05F0446B4F860A02068B7
:103A0000C5692068D0F800B02068D0F80890D4F8D4
:103A1000880022287DD1B4F8688095E02068406A4B
:103A200087B20AF0FF003840A16D0870A06D401CFD
:103A3000A065B4F85E00401EA4F85E002068C56969
:103A400005F00700A8B305F0010058B10BF4807031
:103A500040B1012021680862D4F88C0040F00100D8
:103A6000C4F88C0005F0020058B109F0010040B123
:103A7000022021680862D4F88C0040F00400C4F8E9
:103A80008C0005F0040058B109F0010040B1042099
:103A900021680862D4F88C0040F00200C4F88C0061
:103AA000D4F88C0028B12046FEF792FE0020C4F81E
:103AB0008C00B4F85E0068BB00BF00BF216851E80D
:103AC000001F21F48070226842E800010029F5D12E
:103AD00000BF00BF00BF2168083151E8001F354A10
:103AE00001EA02002168083141E80002002AF2D10F
:103AF00000BF2020C4F8880000202067E06E012865
:103B00001FD10020E06600BF00BF216851E8001F00
:103B100001E046E018E021F01000226842E80001D0
:103B20000029F2D100BF2068C069C0F3001010B1B5
:103B3000102021680862B4F85C102046FEF744FEAD
:103B400002E02046FFF750F9B8F1000F04D005F06D
:103B5000200000287FF462AFB4F85E6006B3B4F8CA
:103B60006800B04223DD00BF00BF2168083151E882
:103B7000001F21F080502168083141E80002002A2E
:103B8000F3D100BF0C48206700BF00BF216851E897
:103B9000001F41F02000226842E800010029F5D111
:103BA00005E02068806940F0080021688861BDE870
:103BB000F09F0000FEFFFFEF253900082DE9F04FD0
:103BC00089B0054600200890F8492868884200D14D
:103BD00000E000BF2969A868084369690843E969EA
:103BE00040EA010828680068F149084040EA0800F6
:103BF000296808602868406820F44050E968084354
:103C000029684860D5F81880E8492868884202D0B9
:103C1000286A40EA080828688068E649084040EABF
:103C20000800296888602868C06A20F00F00696A67
:103C300008432968C86200BFDF492868884220D14C
:103C4000DE48006800F03800182811D005DC48B1C3
:103C5000082809D0102811D108E020280AD02828E7
:103C60000CD109E001240BE0042409E0082407E05A
:103C7000102405E0202403E0402401E0802400BF5C
:103C8000F8E0CF492868884219D1CC48006800F094
:103C90000700062810D2DFE800F0030507090B0D26
:103CA00000240BE0042409E0082407E0102405E0C8
:103CB000202403E0402401E0802400BFDAE0C14971
:103CC0002868884219D1BD48006800F0070006281E
:103CD00010D2DFE800F0030507090B0D00240BE00C
:103CE000042409E0082407E0102405E0202403E070
:103CF000402401E0802400BFBCE0B349286888422A
:103D000019D1AE48006800F00700062810D2DFE89D
:103D100000F0030507090B0D00240BE0042409E063
:103D2000082407E0102405E0202403E0402401E0FB
:103D3000802400BF9EE0A5492868884219D19F4889
:103D4000006800F00700062810D2DFE800F0030545
:103D500007090B0D00240BE0042409E0082407E008
:103D6000102405E0202403E0402401E0802400BF6B
:103D700080E097492868884220D19048006800F088
:103D80003800182811D005DC48B1082809D01028BF
:103D900011D108E020280AD028280CD109E00124FC
:103DA0000BE0042409E0082407E0102405E02024A7
:103DB00003E0402401E0802400BF5BE085492868DF
:103DC000884219D17D48006800F00700062810D20B
:103DD000DFE800F0030507090B0D00240BE00424C5
:103DE00009E0082407E0102405E0202403E0402433
:103DF00001E0802400BF3DE077492868884219D15E
:103E00006E48006800F00700062810D2DFE800F0D6
:103E1000030507090B0D00240BE0042409E0082426
:103E200007E0102405E0202403E0402401E0802482
:103E300000BF1FE05D49286888421AD15F48001D15
:103E4000006800F00700062810D2DFE800F0030544
:103E500007090B0D02240BE0042409E0082407E005
:103E6000102405E0202403E0402401E0802400BF6A
:103E700000E0802400BF4D49286888427DD1102C85
:103E80001AD006DC022C09D0042C0BD0082C29D126
:103E90000DE0202C21D0402C24D120E0FDF78AF920
:103EA000064623E005A8FDF797F9069E1EE002A846
:103EB000FDF7AAFA039E19E0404854380068C0F3A1
:103EC000401040B13D4854380068C0F3C101434838
:103ED00020FA01F600E0414E08E0414E06E04FF4C2
:103EE000004603E000260120089000BF00BF002E1E
:103EF00010D03C49686A31F81000B6FBF0F96868E8
:103F000000EB4000484503D868680003484502D2EA
:103F10000120089003E13349686A31F810C0624615
:103F2000002330461946FCF72EFA4FF48073002226
:103F30008446ACFB030B01FB03B10CFB021C69685C
:103F40004908034659184CEB0200CDE90010D5F89A
:103F500004C06246002308460199FCF714FA07469C
:103F6000B7F5407F06D3B7F5801F03D22868C76036
:103F7000D5E002E001200890D1E0E869B0F5004FFB
:103F80007BD1082C39D005DC5CB1012C2CD0042C61
:103F90004CD12DE0102C35D0202C42D0402C45D1D6
:103FA00041E0FDF7FFFC064644E00000000C00582D
:103FB000F369FFCFFFF4FF11001001405444025891
:103FC0000044004000480040004C004000500040C9
:103FD0000014014000780040007C00400090D003B5
:103FE00000093D005E4B0008FDF7EEFC064621E0AF
:103FF00005A8FDF7F1F8069E1CE002A8FDF704FAFB
:10400000039E17E04C480068C0F3401038B14A489E
:104010000068C0F3C101494820FA01F600E0474EAC
:1040200008E0474E06E04FF4004603E0002601207A
:10403000089000BF00BFFEB14249686A31F8100025
:10404000B6FBF0F04000696800EB5100B0FBF1F7FF
:10405000102F0FD3B7F5803F0CD24FF6F07007EA60
:10406000000AC7F342004AEA000A2868C0F80CA018
:1040700055E002E00120089051E0082C1AD005DC40
:104080005CB1012C0DD0042C2DD10EE0102C16D0DB
:10409000202C23D0402C26D122E0FDF783FC0646BD
:1040A00025E0FDF791FC064621E005A8FDF794F810
:1040B000069E1CE002A8FDF7A7F9039E17E01E4824
:1040C0000068C0F3401038B11B480068C0F3C1015C
:1040D0001A4820FA01F600E0184E08E0184E06E0F3
:1040E0004FF4004603E000260120089000BF00BF07
:1040F000AEB11449686A31F81000B6FBF0F0696897
:1041000000EB5100B0FBF1F7102F06D3B7F5803F5D
:1041100003D2B8B22968C86001E0012008900120EC
:10412000A5F86A00A5F86800002028676867089865
:1041300009B0BDE8F08F0000004402580090D003A1
:1041400000093D005E4B000830B503469965A3F8B1
:104150005C20A3F85E200020186700BF9868B0F5C7
:10416000805F0AD1186920B940F2FF10A3F86000FF
:1041700020E0FF20A3F860001CE0986848B91869A7
:1041800018B9FF20A3F8600014E07F20A3F86000B6
:1041900010E09868B0F1805F09D1186918B97F20E4
:1041A000A3F8600006E03F20A3F8600002E00020D2
:1041B000A3F8600000BF0020C3F88C002220C3F8E1
:1041C000880000BF00BF1C68083454E8004F44F06A
:1041D00001001C68083444E80005002DF3D100BF3D
:1041E000586EB0F1005F31D1B3F8680090422DDC19
:1041F0009868B0F5805F04D1186910B92A4818672B
:1042000001E02A48186700BF002083F8800000BF43
:10421000186960B100BF00BF1C6854E8004F44F447
:1042200080701D6845E80004002CF5D100BF00BF78
:1042300000BF1C68083454E8004F44F080501C68EC
:10424000083444E80005002DF3D12BE09868B0F560
:10425000805F04D1186910B91548186701E0154846
:10426000186700BF002083F8800000BF186960B1A4
:1042700000BF00BF1C6854E8004F44F490701D68F4
:1042800045E80004002CF5D10CE000BF00BF1C681D
:1042900054E8004F44F020001D6845E80004002C5D
:1042A000F5D100BF002030BD5D370008F5390008AA
:1042B00089360008253900082DE9F04104460D46ED
:1042C00017469846069E6AE0701C002867D0FCF7E7
:1042D00093FEA0EB0800B04200D846BB00BF00BF71
:1042E000216851E8001F21F4D070226842E80001E3
:1042F0000029F5D100BF00BF00BF2168083151E897
:10430000001F21F001002168083141E80002002A65
:10431000F3D100BF2020C4F88400C4F8880000BF97
:10432000002084F8800000BF0320BDE8F0812068F1
:10433000006800F0040088B32068C069C0F3C020A2
:1043400060B34FF400602168086200BF00BF2168BD
:1043500051E8001F21F4D070226842E800010029D2
:10436000F5D100BF00BF00BF2168083151E8001F30
:1043700021F001002168083141E80002002AF3D150
:1043800000BF202044F8840F6060A060843C00BF20
:10439000002084F8800000BF0320C6E7FFE7206804
:1043A000C0692840A84201D1012000E00020B842A5
:1043B0008AD00020B9E7000070B500240F4D1048E6
:1043C000FEF710FA00BF03E0641CAC4200D904E021
:1043D0000B48FEF7FEF92028F6D100BF002403E0C9
:1043E000641CAC4200D906E0012206490448FEF7ED
:1043F000C1FC0028F4D100BF70BD0000FFFF010028
:10440000EC0000241200002400BFFEE70248006810
:10441000C0F30220704700000CED00E010B500284A
:1044200004DB0A07130E054A135406E00A07140EAC
:10443000034A00F00F031B1FD45410BD00E400E03A
:1044400018ED00E000BF704730B58DB004460D4652
:104450001C2101A8FCF70EF800BF00BF2F48006820
:1044600040F004002D4908600846006800F0040090
:10447000009000BF00BF00BF00BF00BF2748103042
:10448000006840F0020025491031086008460068C5
:1044900000F00200009000BF00BF00BF204821498B
:1044A00008600846456000218160C4608021816108
:1044B00000214161FEF79DF84020089002200990FC
:1044C00001200A9002200B9003200C9008A91648A6
:1044D000FCF776FC60200190204604EBD071491077
:1044E000029100200390002201A90E48FDF7C9FFA8
:1044F000032201212C20FCF702FE2C20FCF7EBFD0F
:1045000008480068C06840F0010006490968C860B2
:1045100000210448FEF7A6F80DB030BDE044025873
:10452000000401407C0100240008025810B5044634
:1045300004B910BD0748046001210748FDF786FF54
:1045400005480068006840F00100034909680860F8
:1045500000BFEEE7200000247C0100240149086030
:10456000704700000800002410B504464FF47A712B
:1045700004FB01F000F002F810BD000070B5034626
:1045800000224FF0E02675690D4E366803FB06F4F5
:104590004FF0E026B16910E04FF0E026B0698842A4
:1045A0000BD0884202D20E1A324402E02E1A0E4478
:1045B00032440146A24200D300E0EDE700BF70BDE7
:1045C0000800002400B587B000BF00BF364800686F
:1045D00040F08000344908600846006800F0800020
:1045E000019000BF00BF00BF00BF00BF08460068C9
:1045F00040F0800008600846006800F080000190EC
:1046000000BF00BF00BF00BF00BF0846006840F009
:10461000040008600846006800F00400019000BF34
:1046200000BF00BF00BF00BF0846006840F00100A7
:1046300008600846006800F00100019000BF00BF5C
:1046400000BF082002900020039001200490022067
:10465000059002A91548FCF7B3FB04200290002046
:104660000390012004900220059002A90F48FCF756
:10467000A7FB4FF40050029000200390012004900B
:104680000220059002A90A48FCF79AFB012002903B
:104690000020039002200490059002A90548FCF731
:1046A0008FFB07B000BD0000E0440258001C025818
:1046B000000802580000025870B50446002514B1E5
:1046C00001202C4908702B480078002836D008219A
:1046D0002948FCF773FC80B104212748FCF76EFCE5
:1046E00058B14FF400512548FCF768FC28B101216E
:1046F0002348FCF763FC012820D10A20FFF734FF90
:1047000000201C49087008211B48FCF757FC00B921
:10471000012504211848FCF751FC00B902254FF48B
:1047200000511648FCF74AFC00B903250121144842
:10473000FCF744FC01281BD1042519E008210E4890
:10474000FCF73CFC012813D104210B48FCF736FC94
:1047500001280DD141030948FCF730FC012807D19D
:1047600001210748FCF72AFC10B901200149087013
:10477000284670BD1D000024001C02580008025885
:104780000000025800B587B000BF00BF1E48006897
:1047900040F002001C4908600846006800F0020072
:1047A000019000BF00BF00BF00BF00BF0846006807
:1047B00040F0020008600846006800F00200019026
:1047C00000BF00BF00BF02200290012003900490B0
:1047D000059002A90D48FCF7F3FA0120029002A906
:1047E0000A48FCF7EDFA00BF012202210748FCF756
:1047F000F7FB00BF00BF012211460448FCF7F0FBA5
:1048000000BF07B000BD0000E04402580004025899
:1048100086B00025002400F049F8FCF7FFFB0423D4
:1048200002220521A02000F0E1F84FF4C870FFF744
:1048300095FE4FF4E13000F069F9FFF7A3FFFFF7B1
:10484000C1FE44F61F614810FFF7FEFD01200190F4
:1048500000200290012003900320049001A9114838
:10486000FCF7AEFA41F288300F4908600520FFF7E7
:104870005DFE16E00020FFF71FFF0546012D02D167
:104880000520FFF753FE601CC4B20A20FFF76CFE40
:10489000322C06DD002400BF02210248FCF796FB03
:1048A00000BFE7E7000402583404014010B500BF20
:1048B0004C48006800F4003000B139E000BF00BF90
:1048C00000BFBFF34F8F00BF00BF00BF00BF00BFDE
:1048D00000BFBFF36F8F00BF00BF00BF0020424981
:1048E000086000BF00BF00BFBFF34F8F00BF00BF15
:1048F00000BF00BF00BF00BFBFF36F8F00BF00BF8E
:1049000000BF3848006840F400303649086000BFF6
:1049100000BF00BFBFF34F8F00BF00BF00BF00BF8D
:1049200000BF00BFBFF36F8F00BF00BF00BF00BF5D
:1049300000BF2C4B1B6803F4803303B148E0002315
:10494000284C7034236000BF00BF00BFBFF34F8FFF
:1049500000BF00BF00BF231F1868C0F34E3100BF67
:10496000C0F3C90200BF43F6E07303EA41134FF0FE
:10497000404404EA827423431B4C1034236000BF7C
:1049800000BF131EA2F10102EDD10B1EA1F1010126
:10499000E6D100BF00BF00BFBFF34F8F00BF00BF15
:1049A00000BF104B1B6843F480330E4C236000BFE4
:1049B00000BF00BFBFF34F8F00BF00BF00BF00BFED
:1049C00000BF00BFBFF36F8F00BF00BF00BF00BFBD
:1049D00005484C30006840F0040003494C31086041
:1049E00010BD000014ED00E050EF00E02DE9F041B3
:1049F0009CB080460C4615461E460027404800687D
:104A000020F004003E49086000BF002000903D48AF
:104A1000006820F001003B4908600846006800F08B
:104A20000100009036480C30006840F440403449A2
:104A30000C3108600846006800F44040009000BF58
:104A400000BF00BF2E480C30006800F40050B0F5E5
:104A5000005FF7D1212001904FF4803002900020B8
:104A6000049008900120079002200A9002210B91E7
:104A7000CDF834800C940E950F96002112910821E8
:104A800011910021139101A8FDF7C6F807461FB147
:104A900001201CB0BDE8F0813F2014900320159048
:104AA00000201690082017904020199000011A90BD
:104AB000402018901B90022114A8FCF7BDFD07466A
:104AC0000FB10120E5E7FCF76BFB0F48006840F0F1
:104AD00080000D49086000BF0B48F430006840F0CA
:104AE00002000949F43108600846006800F002003D
:104AF000009000BF00BFFCF759F90020C9E7000093
:104B00000C4802582C0400580044025810B50446C2
:104B100009480A4908600846446000218160C16074
:104B2000016181610C214161FEF788F8012204498D
:104B30000248FEF71FF910BD00100140EC000024F0
:104B4000120000244FF04070E1EE100A70470000A0
:104B50000000010203040102030406070809010022
:104B600002000400060008000A000C0010002000EB
:104B70004000800000010000984B00080000002465
:104B800024000000D4020008BC4B000824000024CC
:104B9000040A0000F00200080090D0030090D00347
:104BA0000000000000000000000000000000000005
:0C4BB000100000000101000000000000E7
:040000050800029954
:00000001FF
